{
  "contractName": "T1155",
  "abi": [
    {
      "anonymous": false,
      "inputs": [
        {
          "indexed": true,
          "internalType": "address",
          "name": "_owner",
          "type": "address"
        },
        {
          "indexed": true,
          "internalType": "address",
          "name": "_operator",
          "type": "address"
        },
        {
          "indexed": false,
          "internalType": "bool",
          "name": "_approved",
          "type": "bool"
        }
      ],
      "name": "ApprovalForAll",
      "type": "event"
    },
    {
      "anonymous": false,
      "inputs": [
        {
          "indexed": true,
          "internalType": "uint256",
          "name": "_id",
          "type": "uint256"
        },
        {
          "indexed": false,
          "internalType": "address",
          "name": "_from",
          "type": "address"
        },
        {
          "indexed": false,
          "internalType": "address",
          "name": "_to",
          "type": "address"
        },
        {
          "indexed": false,
          "internalType": "uint256",
          "name": "_tokenId",
          "type": "uint256"
        },
        {
          "indexed": false,
          "internalType": "uint256",
          "name": "_value",
          "type": "uint256"
        },
        {
          "indexed": false,
          "internalType": "uint256",
          "name": "_parentId",
          "type": "uint256"
        }
      ],
      "name": "Transfer",
      "type": "event"
    },
    {
      "inputs": [
        {
          "internalType": "uint256",
          "name": "",
          "type": "uint256"
        }
      ],
      "name": "idToCreator",
      "outputs": [
        {
          "internalType": "address",
          "name": "",
          "type": "address"
        }
      ],
      "stateMutability": "view",
      "type": "function"
    },
    {
      "inputs": [],
      "name": "tokenNonce",
      "outputs": [
        {
          "internalType": "uint256",
          "name": "",
          "type": "uint256"
        }
      ],
      "stateMutability": "view",
      "type": "function"
    },
    {
      "inputs": [
        {
          "internalType": "address",
          "name": "_from",
          "type": "address"
        },
        {
          "internalType": "address",
          "name": "_to",
          "type": "address"
        },
        {
          "internalType": "uint256",
          "name": "_tokenId",
          "type": "uint256"
        },
        {
          "internalType": "uint256",
          "name": "_value",
          "type": "uint256"
        }
      ],
      "name": "transfer",
      "outputs": [],
      "stateMutability": "nonpayable",
      "type": "function"
    },
    {
      "inputs": [
        {
          "internalType": "address",
          "name": "_owner",
          "type": "address"
        },
        {
          "internalType": "uint256",
          "name": "_id",
          "type": "uint256"
        }
      ],
      "name": "balanceOf",
      "outputs": [
        {
          "internalType": "uint256",
          "name": "",
          "type": "uint256"
        }
      ],
      "stateMutability": "view",
      "type": "function"
    },
    {
      "inputs": [
        {
          "internalType": "address[]",
          "name": "_owners",
          "type": "address[]"
        },
        {
          "internalType": "uint256[]",
          "name": "_ids",
          "type": "uint256[]"
        }
      ],
      "name": "balanceOfBatch",
      "outputs": [
        {
          "internalType": "uint256[]",
          "name": "",
          "type": "uint256[]"
        }
      ],
      "stateMutability": "view",
      "type": "function"
    },
    {
      "inputs": [
        {
          "internalType": "address",
          "name": "_operator",
          "type": "address"
        },
        {
          "internalType": "bool",
          "name": "_approved",
          "type": "bool"
        }
      ],
      "name": "setApprovalForAll",
      "outputs": [],
      "stateMutability": "nonpayable",
      "type": "function"
    },
    {
      "inputs": [
        {
          "internalType": "address",
          "name": "_owner",
          "type": "address"
        },
        {
          "internalType": "address",
          "name": "_operator",
          "type": "address"
        }
      ],
      "name": "isApprovedForAll",
      "outputs": [
        {
          "internalType": "bool",
          "name": "",
          "type": "bool"
        }
      ],
      "stateMutability": "view",
      "type": "function"
    },
    {
      "inputs": [
        {
          "internalType": "uint256",
          "name": "_initialSupply",
          "type": "uint256"
        }
      ],
      "name": "mint",
      "outputs": [],
      "stateMutability": "nonpayable",
      "type": "function"
    },
    {
      "inputs": [
        {
          "internalType": "address",
          "name": "_from",
          "type": "address"
        },
        {
          "internalType": "uint256",
          "name": "_tokenId",
          "type": "uint256"
        },
        {
          "internalType": "uint256",
          "name": "_value",
          "type": "uint256"
        }
      ],
      "name": "burn",
      "outputs": [],
      "stateMutability": "nonpayable",
      "type": "function"
    }
  ],
  "bytecode": "0x608060405234801561001057600080fd5b50611471806100206000396000f3fe608060405234801561001057600080fd5b50600436106100925760003560e01c806390f71b441161006657806390f71b4414610302578063a0712d6814610320578063a22cb4651461034e578063e985e9c51461039e578063f5298aca1461041a57610092565b8062fdd58e146100975780630411b252146100f957806339a07756146101715780634e1273f4146101df575b600080fd5b6100e3600480360360408110156100ad57600080fd5b81019080803573ffffffffffffffffffffffffffffffffffffffff16906020019092919080359060200190929190505050610472565b6040518082815260200191505060405180910390f35b61016f6004803603608081101561010f57600080fd5b81019080803573ffffffffffffffffffffffffffffffffffffffff169060200190929190803573ffffffffffffffffffffffffffffffffffffffff16906020019092919080359060200190929190803590602001909291905050506104cc565b005b61019d6004803603602081101561018757600080fd5b81019080803590602001909291905050506106a1565b604051808273ffffffffffffffffffffffffffffffffffffffff1673ffffffffffffffffffffffffffffffffffffffff16815260200191505060405180910390f35b6102ab600480360360408110156101f557600080fd5b810190808035906020019064010000000081111561021257600080fd5b82018360208201111561022457600080fd5b8035906020019184602083028401116401000000008311171561024657600080fd5b90919293919293908035906020019064010000000081111561026757600080fd5b82018360208201111561027957600080fd5b8035906020019184602083028401116401000000008311171561029b57600080fd5b90919293919293905050506106d4565b6040518080602001828103825283818151815260200191508051906020019060200280838360005b838110156102ee5780820151818401526020810190506102d3565b505050509050019250505060405180910390f35b61030a610853565b6040518082815260200191505060405180910390f35b61034c6004803603602081101561033657600080fd5b8101908080359060200190929190505050610859565b005b61039c6004803603604081101561036457600080fd5b81019080803573ffffffffffffffffffffffffffffffffffffffff169060200190929190803515159060200190929190505050610a2d565b005b610400600480360360408110156103b457600080fd5b81019080803573ffffffffffffffffffffffffffffffffffffffff169060200190929190803573ffffffffffffffffffffffffffffffffffffffff169060200190929190505050610b2e565b604051808215151515815260200191505060405180910390f35b6104706004803603606081101561043057600080fd5b81019080803573ffffffffffffffffffffffffffffffffffffffff1690602001909291908035906020019092919080359060200190929190505050610bc2565b005b600080600083815260200190815260200160002060008473ffffffffffffffffffffffffffffffffffffffff1673ffffffffffffffffffffffffffffffffffffffff16815260200190815260200160002054905092915050565b8383600073ffffffffffffffffffffffffffffffffffffffff168173ffffffffffffffffffffffffffffffffffffffff161415610571576040517f08c379a00000000000000000000000000000000000000000000000000000000081526004018080602001828103825260198152602001807f41646472657373206d757374206265206e6f6e2d7a65726f2e0000000000000081525060200191505060405180910390fd5b3373ffffffffffffffffffffffffffffffffffffffff168273ffffffffffffffffffffffffffffffffffffffff161480610638575060011515600360008473ffffffffffffffffffffffffffffffffffffffff1673ffffffffffffffffffffffffffffffffffffffff16815260200190815260200160002060003373ffffffffffffffffffffffffffffffffffffffff1673ffffffffffffffffffffffffffffffffffffffff16815260200190815260200160002060009054906101000a900460ff161515145b61068d576040517f08c379a000000000000000000000000000000000000000000000000000000000815260040180806020018281038252602f81526020018061140d602f913960400191505060405180910390fd5b61069986868686610fa5565b505050505050565b60026020528060005260406000206000915054906101000a900473ffffffffffffffffffffffffffffffffffffffff1681565b6060828290508585905014610751576040517f08c379a00000000000000000000000000000000000000000000000000000000081526004018080602001828103825260188152602001807f4172726179206c656e676874206d757374206d617463682e000000000000000081525060200191505060405180910390fd5b6060858590506040519080825280602002602001820160405280156107855781602001602082028038833980820191505090505b50905060008090505b86869050811015610846576000808686848181106107a857fe5b90506020020135815260200190815260200160002060008888848181106107cb57fe5b9050602002013573ffffffffffffffffffffffffffffffffffffffff1673ffffffffffffffffffffffffffffffffffffffff1673ffffffffffffffffffffffffffffffffffffffff1681526020019081526020016000205482828151811061082f57fe5b60200260200101818152505080600101905061078e565b5080915050949350505050565b60055481565b60006005600081546001019190508190559050336002600083815260200190815260200160002060006101000a81548173ffffffffffffffffffffffffffffffffffffffff021916908373ffffffffffffffffffffffffffffffffffffffff1602179055508160008083815260200190815260200160002060003373ffffffffffffffffffffffffffffffffffffffff1673ffffffffffffffffffffffffffffffffffffffff168152602001908152602001600020819055506006600081546001019190508190557f4c7590a3f05a5a37b795a5200b327b8ac5d551868fb1e62b88b62f81733b6e2a60003384866000604051808673ffffffffffffffffffffffffffffffffffffffff1673ffffffffffffffffffffffffffffffffffffffff1681526020018573ffffffffffffffffffffffffffffffffffffffff1673ffffffffffffffffffffffffffffffffffffffff1681526020018481526020018381526020018281526020019550505050505060405180910390a26006546001600083815260200190815260200160002060003373ffffffffffffffffffffffffffffffffffffffff1673ffffffffffffffffffffffffffffffffffffffff168152602001908152602001600020819055505050565b80600360003373ffffffffffffffffffffffffffffffffffffffff1673ffffffffffffffffffffffffffffffffffffffff16815260200190815260200160002060008473ffffffffffffffffffffffffffffffffffffffff1673ffffffffffffffffffffffffffffffffffffffff16815260200190815260200160002060006101000a81548160ff0219169083151502179055508173ffffffffffffffffffffffffffffffffffffffff163373ffffffffffffffffffffffffffffffffffffffff167f17307eab39ab6107e8899845ad3d59bd9653f200f220920489ca2b5937696c3183604051808215151515815260200191505060405180910390a35050565b6000600360008473ffffffffffffffffffffffffffffffffffffffff1673ffffffffffffffffffffffffffffffffffffffff16815260200190815260200160002060008373ffffffffffffffffffffffffffffffffffffffff1673ffffffffffffffffffffffffffffffffffffffff16815260200190815260200160002060009054906101000a900460ff16905092915050565b8283600073ffffffffffffffffffffffffffffffffffffffff168173ffffffffffffffffffffffffffffffffffffffff161415610c67576040517f08c379a00000000000000000000000000000000000000000000000000000000081526004018080602001828103825260198152602001807f41646472657373206d757374206265206e6f6e2d7a65726f2e0000000000000081525060200191505060405180910390fd5b3373ffffffffffffffffffffffffffffffffffffffff168273ffffffffffffffffffffffffffffffffffffffff161480610d2e575060011515600360008473ffffffffffffffffffffffffffffffffffffffff1673ffffffffffffffffffffffffffffffffffffffff16815260200190815260200160002060003373ffffffffffffffffffffffffffffffffffffffff1673ffffffffffffffffffffffffffffffffffffffff16815260200190815260200160002060009054906101000a900460ff161515145b610d83576040517f08c379a000000000000000000000000000000000000000000000000000000000815260040180806020018281038252602f81526020018061140d602f913960400191505060405180910390fd5b610de58360008087815260200190815260200160002060008873ffffffffffffffffffffffffffffffffffffffff1673ffffffffffffffffffffffffffffffffffffffff1681526020019081526020016000205461127a90919063ffffffff16565b60008086815260200190815260200160002060008773ffffffffffffffffffffffffffffffffffffffff1673ffffffffffffffffffffffffffffffffffffffff168152602001908152602001600020819055506006600081546001019190508190557f4c7590a3f05a5a37b795a5200b327b8ac5d551868fb1e62b88b62f81733b6e2a8660008787600160008b815260200190815260200160002060008c73ffffffffffffffffffffffffffffffffffffffff1673ffffffffffffffffffffffffffffffffffffffff16815260200190815260200160002054604051808673ffffffffffffffffffffffffffffffffffffffff1673ffffffffffffffffffffffffffffffffffffffff1681526020018573ffffffffffffffffffffffffffffffffffffffff1673ffffffffffffffffffffffffffffffffffffffff1681526020018481526020018381526020018281526020019550505050505060405180910390a26006546001600086815260200190815260200160002060008773ffffffffffffffffffffffffffffffffffffffff1673ffffffffffffffffffffffffffffffffffffffff168152602001908152602001600020819055505050505050565b6110078160008085815260200190815260200160002060008773ffffffffffffffffffffffffffffffffffffffff1673ffffffffffffffffffffffffffffffffffffffff1681526020019081526020016000205461127a90919063ffffffff16565b60008084815260200190815260200160002060008673ffffffffffffffffffffffffffffffffffffffff1673ffffffffffffffffffffffffffffffffffffffff168152602001908152602001600020819055506110bc60008084815260200190815260200160002060008573ffffffffffffffffffffffffffffffffffffffff1673ffffffffffffffffffffffffffffffffffffffff16815260200190815260200160002054826112c490919063ffffffff16565b60008084815260200190815260200160002060008573ffffffffffffffffffffffffffffffffffffffff1673ffffffffffffffffffffffffffffffffffffffff168152602001908152602001600020819055506006600081546001019190508190556001600084815260200190815260200160002060008573ffffffffffffffffffffffffffffffffffffffff1673ffffffffffffffffffffffffffffffffffffffff168152602001908152602001600020819055506006547f4c7590a3f05a5a37b795a5200b327b8ac5d551868fb1e62b88b62f81733b6e2a858585856001600089815260200190815260200160002060008b73ffffffffffffffffffffffffffffffffffffffff1673ffffffffffffffffffffffffffffffffffffffff16815260200190815260200160002054604051808673ffffffffffffffffffffffffffffffffffffffff1673ffffffffffffffffffffffffffffffffffffffff1681526020018573ffffffffffffffffffffffffffffffffffffffff1673ffffffffffffffffffffffffffffffffffffffff1681526020018481526020018381526020018281526020019550505050505060405180910390a250505050565b60006112bc83836040518060400160405280601e81526020017f536166654d6174683a207375627472616374696f6e206f766572666c6f77000081525061134c565b905092915050565b600080828401905083811015611342576040517f08c379a000000000000000000000000000000000000000000000000000000000815260040180806020018281038252601b8152602001807f536166654d6174683a206164646974696f6e206f766572666c6f77000000000081525060200191505060405180910390fd5b8091505092915050565b60008383111582906113f9576040517f08c379a00000000000000000000000000000000000000000000000000000000081526004018080602001828103825283818151815260200191508051906020019080838360005b838110156113be5780820151818401526020810190506113a3565b50505050905090810190601f1680156113eb5780820380516001836020036101000a031916815260200191505b509250505060405180910390fd5b506000838503905080915050939250505056fe4e656564206f70657261746f7220617070726f76616c20666f7220337264207061727479207472616e73666572732ea2646970667358221220e25b3211c9663546493f199abbc5fa1031f2d4fa9c9475e70f66f517594e64ff64736f6c63430006000033",
  "source": "pragma solidity ^0.6.0;\r\n\r\nimport \"@openzeppelin/contracts/math/SafeMath.sol\";\r\n\r\n/**\r\n * @dev Token for tracechain based on ERC1155.\r\n */\r\ncontract T1155 {\r\n    using SafeMath for uint256;\r\n\r\n    // tokenId => (owner => balance).\r\n    mapping(uint256 => mapping(address => uint256)) internal balances;\r\n\r\n    // tokenId => (owner => eventId).\r\n    mapping(uint256 => mapping(address => uint256)) internal origins;\r\n\r\n    // tokenId => creators id of token to its creator\r\n    mapping(uint256 => address) public idToCreator;\r\n\r\n    // owner => (operator => approved)\r\n    mapping(address => mapping(address => bool)) internal operatorApproval;\r\n\r\n    // tokenId => uri id of a token to its metadata uri(unused for now).\r\n    mapping(uint256 => string) internal idToUri;\r\n\r\n    // A nonce to ensure a unique id for each mint.\r\n    uint256 public tokenNonce;\r\n\r\n    // A nonce to ensure a unique id for each event.\r\n    uint256 internal eventNonce;\r\n\r\n    modifier creatorOnly(uint256 _tokenId) {\r\n        require(idToCreator[_tokenId] == msg.sender, \"Creator only\");\r\n        _;\r\n    }\r\n\r\n    modifier canOperate(address _from, address _to) {\r\n        require(_to != address(0x0), \"Address must be non-zero.\");\r\n        require(\r\n            _from == msg.sender || operatorApproval[_from][msg.sender] == true,\r\n            \"Need operator approval for 3rd party transfers.\"\r\n        );\r\n        _;\r\n    }\r\n\r\n    /**\r\n    @dev Emits when tokens are transferred, including zero value transfers as well as minting or burning.\r\n    @param _id id of the event.\r\n    @param _from address of the holder whose balance is decreased.\r\n    @param _to address of the recipient whose balance is increased.\r\n    @param _tokenId token type being transferred.\r\n    @param _value number of tokens the holder balance is decreased by and match what the recipient balance is increased by.\r\n    @param _parentId id of the parent event.\r\n    When minting tokens, the `_from` argument MUST be set to `0x0` (i.e. zero address).\r\n    When burning tokens, the `_to` argument MUST be set to `0x0` (i.e. zero address).\r\n    When minting tokens, the `_parentId` argument MUST be set to `0`.\r\n  */\r\n    event Transfer(\r\n        uint256 indexed _id,\r\n        address _from,\r\n        address _to,\r\n        uint256 _tokenId,\r\n        uint256 _value,\r\n        uint256 _parentId\r\n    );\r\n\r\n    /**\r\n    @dev Emits when approval for a second party/operator address to manage all tokens for an owner address is enabled or disabled (absence of an event assumes disabled).\r\n  */\r\n    event ApprovalForAll(\r\n        address indexed _owner,\r\n        address indexed _operator,\r\n        bool _approved\r\n    );\r\n\r\n    /**\r\n    @dev Transfers `_value` amount of an `_tokenId` from the `_from` address to the `_to` address specified.\r\n    @param _from address of the holder whose balance is decreased.\r\n    @param _to address of the recipient whose balance is increased.\r\n    @param _tokenId token type being transferred.\r\n    @param _value number of tokens the holder balance is decreased by and match what the recipient balance is increased by.\r\n  */\r\n    function transfer(\r\n        address _from,\r\n        address _to,\r\n        uint256 _tokenId,\r\n        uint256 _value\r\n    ) external canOperate(_from, _to) {\r\n        _transfer(_from, _to, _tokenId, _value);\r\n    }\r\n\r\n    /**\r\n    @dev Actually performs the transfer.\r\n  */\r\n    function _transfer(\r\n        address _from,\r\n        address _to,\r\n        uint256 _tokenId,\r\n        uint256 _value\r\n    ) internal {\r\n        balances[_tokenId][_from] = balances[_tokenId][_from].sub(_value);\r\n        balances[_tokenId][_to] = _value.add(balances[_tokenId][_to]);\r\n\r\n        origins[_tokenId][_to] = ++eventNonce;\r\n        emit Transfer(\r\n            eventNonce,\r\n            _from,\r\n            _to,\r\n            _tokenId,\r\n            _value,\r\n            origins[_tokenId][_from]\r\n        );\r\n    }\r\n\r\n    /**\r\n    @dev Get the balance of an account's Tokens.\r\n    @param _owner address of the token holder\r\n    @param _id id of the token\r\n    @return owner's balance of the Token type requested\r\n  */\r\n    function balanceOf(address _owner, uint256 _id)\r\n        external\r\n        view\r\n        returns (uint256)\r\n    {\r\n        return balances[_id][_owner];\r\n    }\r\n\r\n    /**\r\n    @dev Get the balance of multiple account/token pairs\r\n    @param _owners addresses of the token holders\r\n    @param _ids ids of the Tokens\r\n    @return owner's balance of the Token types requested (i.e. balance for each (owner, id) pair)\r\n  */\r\n    function balanceOfBatch(address[] calldata _owners, uint256[] calldata _ids)\r\n        external\r\n        view\r\n        returns (uint256[] memory)\r\n    {\r\n        require(_owners.length == _ids.length, \"Array lenght must match.\");\r\n\r\n        uint256[] memory balances_ = new uint256[](_owners.length);\r\n\r\n        for (uint256 i = 0; i < _owners.length; ++i) {\r\n            balances_[i] = balances[_ids[i]][_owners[i]];\r\n        }\r\n\r\n        return balances_;\r\n    }\r\n\r\n    /**\r\n    @dev Enable or disable approval for a third party (\"operator\") to manage all of the caller's tokens.\r\n    @param _operator address to add to the set of authorized operators.\r\n    @param _approved true if the operator is approved, false to revoke approval.\r\n  */\r\n    function setApprovalForAll(address _operator, bool _approved) external {\r\n        operatorApproval[msg.sender][_operator] = _approved;\r\n        emit ApprovalForAll(msg.sender, _operator, _approved);\r\n    }\r\n\r\n    /**\r\n    @dev Queries the approval status of an operator for a given owner.\r\n    @param _owner owner of the tokens.\r\n    @param _operator address of authorized operator.\r\n    @return true if the operator is approved, false to revoke approval.\r\n  */\r\n    function isApprovedForAll(address _owner, address _operator)\r\n        external\r\n        view\r\n        returns (bool)\r\n    {\r\n        return operatorApproval[_owner][_operator];\r\n    }\r\n\r\n    /**\r\n    @dev Mints an `_initialSupply` amount(s) of a new token to the minter (msg.sender for now).\r\n    @param _initialSupply number of token the minter balance is increased by.\r\n  */\r\n    function mint(uint256 _initialSupply) external {\r\n        uint256 tokenId = ++tokenNonce;\r\n        idToCreator[tokenId] = msg.sender;\r\n        balances[tokenId][msg.sender] = _initialSupply;\r\n\r\n        emit Transfer(\r\n            ++eventNonce,\r\n            address(0x0),\r\n            msg.sender,\r\n            tokenId,\r\n            _initialSupply,\r\n            0\r\n        );\r\n        origins[tokenId][msg.sender] = eventNonce;\r\n    }\r\n\r\n    /**\r\n    @dev Burns a `_value` amount(s) of `_id` from the `_from` address.\r\n    @param _from address of the owner.\r\n    @param _tokenId id of the token.\r\n    @param _value amount to be burnt.\r\n  */\r\n    function burn(\r\n        address _from,\r\n        uint256 _tokenId,\r\n        uint256 _value\r\n    ) external canOperate(_from, _from) {\r\n        balances[_tokenId][_from] = balances[_tokenId][_from].sub(_value);\r\n\r\n        emit Transfer(\r\n            ++eventNonce,\r\n            _from,\r\n            address(0x0),\r\n            _tokenId,\r\n            _value,\r\n            origins[_tokenId][_from]\r\n        );\r\n        origins[_tokenId][_from] = eventNonce;\r\n    }\r\n}\r\n",
  "sourcePath": "C:\\Users\\Vahatra\\Source\\github-monorepo\\contracts\\v1155\\contracts\\T1155.sol",
  "compiler": {
    "name": "solc",
    "version": "0.6.0+commit.26b70077.Emscripten.clang"
  },
  "schemaVersion": "3.1.0",
  "updatedAt": "2020-10-10T14:36:41.918Z",
  "devdoc": {
    "details": "Token for tracechain based on ERC1155.",
    "methods": {
      "balanceOf(address,uint256)": {
        "details": "Get the balance of an account's Tokens.",
        "params": {
          "_id": "id of the token",
          "_owner": "address of the token holder"
        },
        "returns": {
          "_0": "owner's balance of the Token type requested"
        }
      },
      "balanceOfBatch(address[],uint256[])": {
        "details": "Get the balance of multiple account/token pairs",
        "params": {
          "_ids": "ids of the Tokens",
          "_owners": "addresses of the token holders"
        },
        "returns": {
          "_0": "owner's balance of the Token types requested (i.e. balance for each (owner, id) pair)"
        }
      },
      "burn(address,uint256,uint256)": {
        "details": "Burns a `_value` amount(s) of `_id` from the `_from` address.",
        "params": {
          "_from": "address of the owner.",
          "_tokenId": "id of the token.",
          "_value": "amount to be burnt."
        }
      },
      "isApprovedForAll(address,address)": {
        "details": "Queries the approval status of an operator for a given owner.",
        "params": {
          "_operator": "address of authorized operator.",
          "_owner": "owner of the tokens."
        },
        "returns": {
          "_0": "true if the operator is approved, false to revoke approval."
        }
      },
      "mint(uint256)": {
        "details": "Mints an `_initialSupply` amount(s) of a new token to the minter (msg.sender for now).",
        "params": {
          "_initialSupply": "number of token the minter balance is increased by."
        }
      },
      "setApprovalForAll(address,bool)": {
        "details": "Enable or disable approval for a third party (\"operator\") to manage all of the caller's tokens.",
        "params": {
          "_approved": "true if the operator is approved, false to revoke approval.",
          "_operator": "address to add to the set of authorized operators."
        }
      },
      "transfer(address,address,uint256,uint256)": {
        "details": "Transfers `_value` amount of an `_tokenId` from the `_from` address to the `_to` address specified.",
        "params": {
          "_from": "address of the holder whose balance is decreased.",
          "_to": "address of the recipient whose balance is increased.",
          "_tokenId": "token type being transferred.",
          "_value": "number of tokens the holder balance is decreased by and match what the recipient balance is increased by."
        }
      }
    }
  },
  "userdoc": {
    "methods": {}
  }
}