{
  "contractName": "V1155",
  "abi": [
    {
      "anonymous": false,
      "inputs": [
        {
          "indexed": true,
          "internalType": "address",
          "name": "_owner",
          "type": "address"
        },
        {
          "indexed": true,
          "internalType": "address",
          "name": "_operator",
          "type": "address"
        },
        {
          "indexed": false,
          "internalType": "bool",
          "name": "_approved",
          "type": "bool"
        }
      ],
      "name": "ApprovalForAll",
      "type": "event"
    },
    {
      "anonymous": false,
      "inputs": [
        {
          "indexed": true,
          "internalType": "uint256",
          "name": "_id",
          "type": "uint256"
        },
        {
          "indexed": false,
          "internalType": "address",
          "name": "_sender",
          "type": "address"
        },
        {
          "indexed": false,
          "internalType": "address",
          "name": "_receiver",
          "type": "address"
        },
        {
          "indexed": false,
          "internalType": "uint256",
          "name": "_token",
          "type": "uint256"
        },
        {
          "indexed": false,
          "internalType": "uint256",
          "name": "_value",
          "type": "uint256"
        }
      ],
      "name": "GraphTransfer",
      "type": "event"
    },
    {
      "inputs": [
        {
          "internalType": "uint256",
          "name": "",
          "type": "uint256"
        }
      ],
      "name": "idToCreator",
      "outputs": [
        {
          "internalType": "address",
          "name": "",
          "type": "address"
        }
      ],
      "stateMutability": "view",
      "type": "function"
    },
    {
      "inputs": [],
      "name": "tokenNonce",
      "outputs": [
        {
          "internalType": "uint256",
          "name": "",
          "type": "uint256"
        }
      ],
      "stateMutability": "view",
      "type": "function"
    },
    {
      "inputs": [
        {
          "internalType": "address",
          "name": "_sender",
          "type": "address"
        },
        {
          "internalType": "address",
          "name": "_receiver",
          "type": "address"
        },
        {
          "internalType": "uint256",
          "name": "_token",
          "type": "uint256"
        },
        {
          "internalType": "uint256",
          "name": "_value",
          "type": "uint256"
        }
      ],
      "name": "transfer",
      "outputs": [],
      "stateMutability": "nonpayable",
      "type": "function"
    },
    {
      "inputs": [
        {
          "internalType": "address",
          "name": "_owner",
          "type": "address"
        },
        {
          "internalType": "uint256",
          "name": "_id",
          "type": "uint256"
        }
      ],
      "name": "balanceOf",
      "outputs": [
        {
          "internalType": "uint256",
          "name": "",
          "type": "uint256"
        }
      ],
      "stateMutability": "view",
      "type": "function"
    },
    {
      "inputs": [
        {
          "internalType": "address[]",
          "name": "_owners",
          "type": "address[]"
        },
        {
          "internalType": "uint256[]",
          "name": "_ids",
          "type": "uint256[]"
        }
      ],
      "name": "balanceOfBatch",
      "outputs": [
        {
          "internalType": "uint256[]",
          "name": "",
          "type": "uint256[]"
        }
      ],
      "stateMutability": "view",
      "type": "function"
    },
    {
      "inputs": [
        {
          "internalType": "address",
          "name": "_operator",
          "type": "address"
        },
        {
          "internalType": "bool",
          "name": "_approved",
          "type": "bool"
        }
      ],
      "name": "setApprovalForAll",
      "outputs": [],
      "stateMutability": "nonpayable",
      "type": "function"
    },
    {
      "inputs": [
        {
          "internalType": "address",
          "name": "_owner",
          "type": "address"
        },
        {
          "internalType": "address",
          "name": "_operator",
          "type": "address"
        }
      ],
      "name": "isApprovedForAll",
      "outputs": [
        {
          "internalType": "bool",
          "name": "",
          "type": "bool"
        }
      ],
      "stateMutability": "view",
      "type": "function"
    },
    {
      "inputs": [
        {
          "internalType": "uint256",
          "name": "_initialSupply",
          "type": "uint256"
        }
      ],
      "name": "mint",
      "outputs": [],
      "stateMutability": "nonpayable",
      "type": "function"
    },
    {
      "inputs": [
        {
          "internalType": "address",
          "name": "_sender",
          "type": "address"
        },
        {
          "internalType": "uint256",
          "name": "_token",
          "type": "uint256"
        },
        {
          "internalType": "uint256",
          "name": "_value",
          "type": "uint256"
        }
      ],
      "name": "burn",
      "outputs": [],
      "stateMutability": "nonpayable",
      "type": "function"
    }
  ],
  "bytecode": "0x608060405234801561001057600080fd5b506112a7806100206000396000f3fe608060405234801561001057600080fd5b50600436106100925760003560e01c806390f71b441161006657806390f71b4414610302578063a0712d6814610320578063a22cb4651461034e578063e985e9c51461039e578063f5298aca1461041a57610092565b8062fdd58e146100975780630411b252146100f957806339a07756146101715780634e1273f4146101df575b600080fd5b6100e3600480360360408110156100ad57600080fd5b81019080803573ffffffffffffffffffffffffffffffffffffffff16906020019092919080359060200190929190505050610472565b6040518082815260200191505060405180910390f35b61016f6004803603608081101561010f57600080fd5b81019080803573ffffffffffffffffffffffffffffffffffffffff169060200190929190803573ffffffffffffffffffffffffffffffffffffffff16906020019092919080359060200190929190803590602001909291905050506104cc565b005b61019d6004803603602081101561018757600080fd5b81019080803590602001909291905050506106a1565b604051808273ffffffffffffffffffffffffffffffffffffffff1673ffffffffffffffffffffffffffffffffffffffff16815260200191505060405180910390f35b6102ab600480360360408110156101f557600080fd5b810190808035906020019064010000000081111561021257600080fd5b82018360208201111561022457600080fd5b8035906020019184602083028401116401000000008311171561024657600080fd5b90919293919293908035906020019064010000000081111561026757600080fd5b82018360208201111561027957600080fd5b8035906020019184602083028401116401000000008311171561029b57600080fd5b90919293919293905050506106d4565b6040518080602001828103825283818151815260200191508051906020019060200280838360005b838110156102ee5780820151818401526020810190506102d3565b505050509050019250505060405180910390f35b61030a610853565b6040518082815260200191505060405180910390f35b61034c6004803603602081101561033657600080fd5b8101908080359060200190929190505050610859565b005b61039c6004803603604081101561036457600080fd5b81019080803573ffffffffffffffffffffffffffffffffffffffff1690602001909291908035151590602001909291905050506109cd565b005b610400600480360360408110156103b457600080fd5b81019080803573ffffffffffffffffffffffffffffffffffffffff169060200190929190803573ffffffffffffffffffffffffffffffffffffffff169060200190929190505050610ace565b604051808215151515815260200191505060405180910390f35b6104706004803603606081101561043057600080fd5b81019080803573ffffffffffffffffffffffffffffffffffffffff1690602001909291908035906020019092919080359060200190929190505050610b62565b005b600080600083815260200190815260200160002060008473ffffffffffffffffffffffffffffffffffffffff1673ffffffffffffffffffffffffffffffffffffffff16815260200190815260200160002054905092915050565b8383600073ffffffffffffffffffffffffffffffffffffffff168173ffffffffffffffffffffffffffffffffffffffff161415610571576040517f08c379a00000000000000000000000000000000000000000000000000000000081526004018080602001828103825260198152602001807f41646472657373206d757374206265206e6f6e2d7a65726f2e0000000000000081525060200191505060405180910390fd5b3373ffffffffffffffffffffffffffffffffffffffff168273ffffffffffffffffffffffffffffffffffffffff161480610638575060011515600260008473ffffffffffffffffffffffffffffffffffffffff1673ffffffffffffffffffffffffffffffffffffffff16815260200190815260200160002060003373ffffffffffffffffffffffffffffffffffffffff1673ffffffffffffffffffffffffffffffffffffffff16815260200190815260200160002060009054906101000a900460ff161515145b61068d576040517f08c379a000000000000000000000000000000000000000000000000000000000815260040180806020018281038252602f815260200180611243602f913960400191505060405180910390fd5b61069986868686610e96565b505050505050565b60016020528060005260406000206000915054906101000a900473ffffffffffffffffffffffffffffffffffffffff1681565b6060828290508585905014610751576040517f08c379a00000000000000000000000000000000000000000000000000000000081526004018080602001828103825260188152602001807f4172726179206c656e676874206d757374206d617463682e000000000000000081525060200191505060405180910390fd5b6060858590506040519080825280602002602001820160405280156107855781602001602082028038833980820191505090505b50905060008090505b86869050811015610846576000808686848181106107a857fe5b90506020020135815260200190815260200160002060008888848181106107cb57fe5b9050602002013573ffffffffffffffffffffffffffffffffffffffff1673ffffffffffffffffffffffffffffffffffffffff1673ffffffffffffffffffffffffffffffffffffffff1681526020019081526020016000205482828151811061082f57fe5b60200260200101818152505080600101905061078e565b5080915050949350505050565b60045481565b60006004600081546001019190508190559050336001600083815260200190815260200160002060006101000a81548173ffffffffffffffffffffffffffffffffffffffff021916908373ffffffffffffffffffffffffffffffffffffffff1602179055508160008083815260200190815260200160002060003373ffffffffffffffffffffffffffffffffffffffff1673ffffffffffffffffffffffffffffffffffffffff168152602001908152602001600020819055506005600081546001019190508190557ff555a57d749fd35cb056310a3cdb5e5b1f362659920b0a32cc3c184b891ab2c86000338486604051808573ffffffffffffffffffffffffffffffffffffffff1673ffffffffffffffffffffffffffffffffffffffff1681526020018473ffffffffffffffffffffffffffffffffffffffff1673ffffffffffffffffffffffffffffffffffffffff16815260200183815260200182815260200194505050505060405180910390a25050565b80600260003373ffffffffffffffffffffffffffffffffffffffff1673ffffffffffffffffffffffffffffffffffffffff16815260200190815260200160002060008473ffffffffffffffffffffffffffffffffffffffff1673ffffffffffffffffffffffffffffffffffffffff16815260200190815260200160002060006101000a81548160ff0219169083151502179055508173ffffffffffffffffffffffffffffffffffffffff163373ffffffffffffffffffffffffffffffffffffffff167f17307eab39ab6107e8899845ad3d59bd9653f200f220920489ca2b5937696c3183604051808215151515815260200191505060405180910390a35050565b6000600260008473ffffffffffffffffffffffffffffffffffffffff1673ffffffffffffffffffffffffffffffffffffffff16815260200190815260200160002060008373ffffffffffffffffffffffffffffffffffffffff1673ffffffffffffffffffffffffffffffffffffffff16815260200190815260200160002060009054906101000a900460ff16905092915050565b8283600073ffffffffffffffffffffffffffffffffffffffff168173ffffffffffffffffffffffffffffffffffffffff161415610c07576040517f08c379a00000000000000000000000000000000000000000000000000000000081526004018080602001828103825260198152602001807f41646472657373206d757374206265206e6f6e2d7a65726f2e0000000000000081525060200191505060405180910390fd5b3373ffffffffffffffffffffffffffffffffffffffff168273ffffffffffffffffffffffffffffffffffffffff161480610cce575060011515600260008473ffffffffffffffffffffffffffffffffffffffff1673ffffffffffffffffffffffffffffffffffffffff16815260200190815260200160002060003373ffffffffffffffffffffffffffffffffffffffff1673ffffffffffffffffffffffffffffffffffffffff16815260200190815260200160002060009054906101000a900460ff161515145b610d23576040517f08c379a000000000000000000000000000000000000000000000000000000000815260040180806020018281038252602f815260200180611243602f913960400191505060405180910390fd5b610d858360008087815260200190815260200160002060008873ffffffffffffffffffffffffffffffffffffffff1673ffffffffffffffffffffffffffffffffffffffff168152602001908152602001600020546110b090919063ffffffff16565b60008086815260200190815260200160002060008773ffffffffffffffffffffffffffffffffffffffff1673ffffffffffffffffffffffffffffffffffffffff168152602001908152602001600020819055506005600081546001019190508190557ff555a57d749fd35cb056310a3cdb5e5b1f362659920b0a32cc3c184b891ab2c88660008787604051808573ffffffffffffffffffffffffffffffffffffffff1673ffffffffffffffffffffffffffffffffffffffff1681526020018473ffffffffffffffffffffffffffffffffffffffff1673ffffffffffffffffffffffffffffffffffffffff16815260200183815260200182815260200194505050505060405180910390a25050505050565b610ef88160008085815260200190815260200160002060008773ffffffffffffffffffffffffffffffffffffffff1673ffffffffffffffffffffffffffffffffffffffff168152602001908152602001600020546110b090919063ffffffff16565b60008084815260200190815260200160002060008673ffffffffffffffffffffffffffffffffffffffff1673ffffffffffffffffffffffffffffffffffffffff16815260200190815260200160002081905550610fad60008084815260200190815260200160002060008573ffffffffffffffffffffffffffffffffffffffff1673ffffffffffffffffffffffffffffffffffffffff16815260200190815260200160002054826110fa90919063ffffffff16565b60008084815260200190815260200160002060008573ffffffffffffffffffffffffffffffffffffffff1673ffffffffffffffffffffffffffffffffffffffff168152602001908152602001600020819055506005547ff555a57d749fd35cb056310a3cdb5e5b1f362659920b0a32cc3c184b891ab2c885858585604051808573ffffffffffffffffffffffffffffffffffffffff1673ffffffffffffffffffffffffffffffffffffffff1681526020018473ffffffffffffffffffffffffffffffffffffffff1673ffffffffffffffffffffffffffffffffffffffff16815260200183815260200182815260200194505050505060405180910390a250505050565b60006110f283836040518060400160405280601e81526020017f536166654d6174683a207375627472616374696f6e206f766572666c6f770000815250611182565b905092915050565b600080828401905083811015611178576040517f08c379a000000000000000000000000000000000000000000000000000000000815260040180806020018281038252601b8152602001807f536166654d6174683a206164646974696f6e206f766572666c6f77000000000081525060200191505060405180910390fd5b8091505092915050565b600083831115829061122f576040517f08c379a00000000000000000000000000000000000000000000000000000000081526004018080602001828103825283818151815260200191508051906020019080838360005b838110156111f45780820151818401526020810190506111d9565b50505050905090810190601f1680156112215780820380516001836020036101000a031916815260200191505b509250505060405180910390fd5b506000838503905080915050939250505056fe4e656564206f70657261746f7220617070726f76616c20666f7220337264207061727479207472616e73666572732ea26469706673582212207debb655f4ffd6ad8f636a0fdc521d579f394059b18c1b35f4964b383a4e139064736f6c63430006000033",
  "source": "pragma solidity ^0.6.0;\r\n\r\nimport \"@openzeppelin/contracts/math/SafeMath.sol\";\r\n\r\n/// @dev Token based on ERC1155.\r\ncontract V1155 {\r\n    using SafeMath for uint256;\r\n\r\n    // tokenId => (owner => balance).\r\n    mapping(uint256 => mapping(address => uint256)) internal balances;\r\n\r\n    // tokenId => creators id of token to its creator\r\n    mapping(uint256 => address) public idToCreator;\r\n\r\n    // owner => (operator => approved)\r\n    mapping(address => mapping(address => bool)) internal operatorApproval;\r\n\r\n    // tokenId => uri id of a token to its metadata uri (unused for now).\r\n    mapping(uint256 => string) internal idToUri;\r\n\r\n    // A nonce to ensure a unique id for each mint.\r\n    uint256 public tokenNonce;\r\n\r\n    // A nonce to ensure a unique id for each event.\r\n    uint256 internal eventNonce;\r\n\r\n    modifier creatorOnly(uint256 _token) {\r\n        require(idToCreator[_token] == msg.sender, \"Creator only\");\r\n        _;\r\n    }\r\n\r\n    modifier canOperate(address _sender, address _receiver) {\r\n        require(_receiver != address(0x0), \"Address must be non-zero.\");\r\n        require(\r\n            _sender == msg.sender ||\r\n                operatorApproval[_sender][msg.sender] == true,\r\n            \"Need operator approval for 3rd party transfers.\"\r\n        );\r\n        _;\r\n    }\r\n\r\n    /// @dev Emits when tokens are transferred, including zero value transfers as well as minting or burning.\r\n    /// @param _id id of the event.\r\n    /// @param _sender address of the holder whose balance is decreased.\r\n    /// @param _receiver address of the recipient whose balance is increased.\r\n    /// @param _token token type being transferred.\r\n    /// @param _value number of tokens the holder balance is decreased by and match what the recipient balance is increased by.\r\n    // When minting tokens, the `_sender` argument MUST be set to `0x0` (i.e. zero address).\r\n    // When burning tokens, the `_receiver` argument MUST be set to `0x0` (i.e. zero address).\r\n    // When minting tokens, the `_parentId` argument MUST be set to `0`.\r\n    event GraphTransfer(\r\n        uint256 indexed _id,\r\n        address _sender,\r\n        address _receiver,\r\n        uint256 _token,\r\n        uint256 _value\r\n    );\r\n\r\n    /// @dev Emits when approval for a second party/operator address to manage all tokens for an owner address is enabled or disabled (absence of an event assumes disabled).\r\n    event ApprovalForAll(\r\n        address indexed _owner,\r\n        address indexed _operator,\r\n        bool _approved\r\n    );\r\n\r\n    /// @dev Transfers `_value` amount of an `_token` sender the `_sender` address to the `_receiver` address specified.\r\n    /// @param _sender address of the holder whose balance is decreased.\r\n    /// @param _receiver address of the recipient whose balance is increased.\r\n    /// @param _token token type being transferred.\r\n    /// @param _value number of tokens the holder balance is decreased by and match what the recipient balance is increased by.\r\n    function transfer(\r\n        address _sender,\r\n        address _receiver,\r\n        uint256 _token,\r\n        uint256 _value\r\n    ) external canOperate(_sender, _receiver) {\r\n        _transfer(_sender, _receiver, _token, _value);\r\n    }\r\n\r\n    /// @dev Actually performs the transfer.\r\n    function _transfer(\r\n        address _sender,\r\n        address _receiver,\r\n        uint256 _token,\r\n        uint256 _value\r\n    ) internal {\r\n        balances[_token][_sender] = balances[_token][_sender].sub(_value);\r\n        balances[_token][_receiver] = _value.add(balances[_token][_receiver]);\r\n\r\n        emit GraphTransfer(eventNonce, _sender, _receiver, _token, _value);\r\n    }\r\n\r\n    /// @dev Get the balance of an account's Tokens.\r\n    /// @param _owner address of the token holder\r\n    /// @param _id id of the token\r\n    /// @return owner's balance of the Token type requested\r\n    function balanceOf(address _owner, uint256 _id)\r\n        external\r\n        view\r\n        returns (uint256)\r\n    {\r\n        return balances[_id][_owner];\r\n    }\r\n\r\n    /// @dev Get the balance of multiple account/token pairs\r\n    /// @param _owners addresses of the token holders\r\n    /// @param _ids ids of the Tokens\r\n    /// @return owner's balance of the Token types requested (i.e. balance for each (owner, id) pair)\r\n    function balanceOfBatch(address[] calldata _owners, uint256[] calldata _ids)\r\n        external\r\n        view\r\n        returns (uint256[] memory)\r\n    {\r\n        require(_owners.length == _ids.length, \"Array lenght must match.\");\r\n\r\n        uint256[] memory balances_ = new uint256[](_owners.length);\r\n\r\n        for (uint256 i = 0; i < _owners.length; ++i) {\r\n            balances_[i] = balances[_ids[i]][_owners[i]];\r\n        }\r\n\r\n        return balances_;\r\n    }\r\n\r\n    /// @dev Enable or disable approval for a third party (\"operator\") to manage all of the caller's tokens.\r\n    /// @param _operator address to add to the set of authorized operators.\r\n    /// @param _approved true if the operator is approved, false to revoke approval.\r\n    function setApprovalForAll(address _operator, bool _approved) external {\r\n        operatorApproval[msg.sender][_operator] = _approved;\r\n        emit ApprovalForAll(msg.sender, _operator, _approved);\r\n    }\r\n\r\n    /// @dev Queries the approval status of an operator for a given owner.\r\n    /// @param _owner owner of the tokens.\r\n    /// @param _operator address of authorized operator.\r\n    /// @return true if the operator is approved, false to revoke approval.\r\n    function isApprovedForAll(address _owner, address _operator)\r\n        external\r\n        view\r\n        returns (bool)\r\n    {\r\n        return operatorApproval[_owner][_operator];\r\n    }\r\n\r\n    /// @dev Mints an `_initialSupply` amount(s) of a new token to the minter (msg.sender for now).\r\n    /// @param _initialSupply number of token the minter balance is increased by.\r\n    function mint(uint256 _initialSupply) external {\r\n        uint256 tokenId = ++tokenNonce;\r\n        idToCreator[tokenId] = msg.sender;\r\n        balances[tokenId][msg.sender] = _initialSupply;\r\n\r\n        emit GraphTransfer(\r\n            ++eventNonce,\r\n            address(0x0),\r\n            msg.sender,\r\n            tokenId,\r\n            _initialSupply\r\n        );\r\n    }\r\n\r\n    /// @dev Burns a `_value` amount(s) of `_id` sender the `_sender` address.\r\n    /// @param _sender address of the owner.\r\n    /// @param _token id of the token.\r\n    /// @param _value amount to be burnt.\r\n    function burn(\r\n        address _sender,\r\n        uint256 _token,\r\n        uint256 _value\r\n    ) external canOperate(_sender, _sender) {\r\n        balances[_token][_sender] = balances[_token][_sender].sub(_value);\r\n\r\n        emit GraphTransfer(++eventNonce, _sender, address(0x0), _token, _value);\r\n    }\r\n}\r\n",
  "sourcePath": "C:\\Users\\Vahatra\\Source\\github-monorepo\\contracts\\v1155\\contracts\\V1155.sol",
  "compiler": {
    "name": "solc",
    "version": "0.6.0+commit.26b70077.Emscripten.clang"
  },
  "schemaVersion": "3.1.0",
  "updatedAt": "2020-10-10T15:22:54.955Z",
  "devdoc": {
    "details": "Token based on ERC1155.",
    "methods": {
      "balanceOf(address,uint256)": {
        "details": "Get the balance of an account's Tokens.",
        "params": {
          "_id": "id of the token",
          "_owner": "address of the token holder"
        },
        "returns": {
          "_0": "owner's balance of the Token type requested"
        }
      },
      "balanceOfBatch(address[],uint256[])": {
        "details": "Get the balance of multiple account/token pairs",
        "params": {
          "_ids": "ids of the Tokens",
          "_owners": "addresses of the token holders"
        },
        "returns": {
          "_0": "owner's balance of the Token types requested (i.e. balance for each (owner, id) pair)"
        }
      },
      "burn(address,uint256,uint256)": {
        "details": "Burns a `_value` amount(s) of `_id` sender the `_sender` address.",
        "params": {
          "_sender": "address of the owner.",
          "_token": "id of the token.",
          "_value": "amount to be burnt."
        }
      },
      "isApprovedForAll(address,address)": {
        "details": "Queries the approval status of an operator for a given owner.",
        "params": {
          "_operator": "address of authorized operator.",
          "_owner": "owner of the tokens."
        },
        "returns": {
          "_0": "true if the operator is approved, false to revoke approval."
        }
      },
      "mint(uint256)": {
        "details": "Mints an `_initialSupply` amount(s) of a new token to the minter (msg.sender for now).",
        "params": {
          "_initialSupply": "number of token the minter balance is increased by."
        }
      },
      "setApprovalForAll(address,bool)": {
        "details": "Enable or disable approval for a third party (\"operator\") to manage all of the caller's tokens.",
        "params": {
          "_approved": "true if the operator is approved, false to revoke approval.",
          "_operator": "address to add to the set of authorized operators."
        }
      },
      "transfer(address,address,uint256,uint256)": {
        "details": "Transfers `_value` amount of an `_token` sender the `_sender` address to the `_receiver` address specified.",
        "params": {
          "_receiver": "address of the recipient whose balance is increased.",
          "_sender": "address of the holder whose balance is decreased.",
          "_token": "token type being transferred.",
          "_value": "number of tokens the holder balance is decreased by and match what the recipient balance is increased by."
        }
      }
    }
  },
  "userdoc": {
    "methods": {}
  }
}