{
  "contractName": "MixinNF",
  "abi": [
    {
      "inputs": [
        {
          "internalType": "uint256",
          "name": "id",
          "type": "uint256"
        }
      ],
      "name": "isNonFungible",
      "outputs": [
        {
          "internalType": "bool",
          "name": "",
          "type": "bool"
        }
      ],
      "stateMutability": "pure",
      "type": "function"
    },
    {
      "inputs": [
        {
          "internalType": "uint256",
          "name": "id",
          "type": "uint256"
        }
      ],
      "name": "isFungible",
      "outputs": [
        {
          "internalType": "bool",
          "name": "",
          "type": "bool"
        }
      ],
      "stateMutability": "pure",
      "type": "function"
    },
    {
      "inputs": [
        {
          "internalType": "uint256",
          "name": "id",
          "type": "uint256"
        }
      ],
      "name": "getNonFungibleIndex",
      "outputs": [
        {
          "internalType": "uint256",
          "name": "",
          "type": "uint256"
        }
      ],
      "stateMutability": "pure",
      "type": "function"
    },
    {
      "inputs": [
        {
          "internalType": "uint256",
          "name": "id",
          "type": "uint256"
        }
      ],
      "name": "getNonFungibleBaseType",
      "outputs": [
        {
          "internalType": "uint256",
          "name": "",
          "type": "uint256"
        }
      ],
      "stateMutability": "pure",
      "type": "function"
    },
    {
      "inputs": [
        {
          "internalType": "uint256",
          "name": "id",
          "type": "uint256"
        }
      ],
      "name": "isNonFungibleBaseType",
      "outputs": [
        {
          "internalType": "bool",
          "name": "",
          "type": "bool"
        }
      ],
      "stateMutability": "pure",
      "type": "function"
    },
    {
      "inputs": [
        {
          "internalType": "uint256",
          "name": "id",
          "type": "uint256"
        }
      ],
      "name": "isNonFungibleItem",
      "outputs": [
        {
          "internalType": "bool",
          "name": "",
          "type": "bool"
        }
      ],
      "stateMutability": "pure",
      "type": "function"
    },
    {
      "inputs": [
        {
          "internalType": "uint256",
          "name": "id",
          "type": "uint256"
        }
      ],
      "name": "ownerOf",
      "outputs": [
        {
          "internalType": "address",
          "name": "",
          "type": "address"
        }
      ],
      "stateMutability": "view",
      "type": "function"
    }
  ],
  "bytecode": "0x608060405234801561001057600080fd5b50610518806100206000396000f3fe608060405234801561001057600080fd5b506004361061007d5760003560e01c80637269a3271161005b5780637269a327146101125780639cca1c6414610142578063adebf6f214610172578063e44591f0146101a25761007d565b80635e81b958146100825780636352211e146100b25780636f969c2d146100e2575b600080fd5b61009c600480360361009791908101906103dc565b6101d2565b6040516100a9919061044d565b60405180910390f35b6100cc60048036036100c791908101906103dc565b610241565b6040516100d99190610432565b60405180910390f35b6100fc60048036036100f791908101906103dc565b61027d565b6040516101099190610468565b60405180910390f35b61012c600480360361012791908101906103dc565b6102bf565b604051610139919061044d565b60405180910390f35b61015c600480360361015791908101906103dc565b61032d565b6040516101699190610468565b60405180910390f35b61018c600480360361018791908101906103dc565b61036b565b604051610199919061044d565b60405180910390f35b6101bc60048036036101b791908101906103dc565b610399565b6040516101c9919061044d565b60405180910390f35b60007f800000000000000000000000000000000000000000000000000000000000000080831614801561023a575060007fffffffffffffffffffffffffffffffffffffffffffffffffffffffffffffffff6fffffffffffffffffffffffffffffffff16831614155b9050919050565b600080600083815260200190815260200160002060009054906101000a900473ffffffffffffffffffffffffffffffffffffffff169050919050565b600060807fffffffffffffffffffffffffffffffffffffffffffffffffffffffffffffffff6fffffffffffffffffffffffffffffffff16901b82169050919050565b60007f8000000000000000000000000000000000000000000000000000000000000000808316148015610326575060007fffffffffffffffffffffffffffffffffffffffffffffffffffffffffffffffff6fffffffffffffffffffffffffffffffff168316145b9050919050565b60007fffffffffffffffffffffffffffffffffffffffffffffffffffffffffffffffff6fffffffffffffffffffffffffffffffff1682169050919050565b6000807f80000000000000000000000000000000000000000000000000000000000000008316149050919050565b60007f8000000000000000000000000000000000000000000000000000000000000000808316149050919050565b6000813590506103d6816104cb565b92915050565b6000602082840312156103ee57600080fd5b60006103fc848285016103c7565b91505092915050565b61040e81610483565b82525050565b61041d81610495565b82525050565b61042c816104c1565b82525050565b60006020820190506104476000830184610405565b92915050565b60006020820190506104626000830184610414565b92915050565b600060208201905061047d6000830184610423565b92915050565b600061048e826104a1565b9050919050565b60008115159050919050565b600073ffffffffffffffffffffffffffffffffffffffff82169050919050565b6000819050919050565b6104d4816104c1565b81146104df57600080fd5b5056fea2646970667358221220290e313f532c1b9a4bd169f513efb4554f4b645bde1aa2aa07ddb150d433dac964736f6c63430006020033",
  "source": "// SPDX-License-Identifier: UNLICENSED\r\npragma solidity ^0.6.0;\r\npragma experimental ABIEncoderV2;\r\n\r\ncontract MixinNF {\r\n    /// Use a split bit implementation.\r\n    /// Store the type in the upper 128 bits..\r\n    uint256 internal constant TYPE_MASK = uint256(uint128(~0)) << 128;\r\n\r\n    /// ..and the non-fungible index in the lower 128\r\n    uint256 internal constant NF_INDEX_MASK = uint128(~0);\r\n\r\n    /// The top bit is a flag to tell if this is a NFI.\r\n    uint256 internal constant TYPE_NF_BIT = 1 << 255;\r\n\r\n    /// mapping of nft to owner\r\n    mapping(uint256 => address) internal nfOwners;\r\n\r\n    /// @dev Returns true if token is non-fungible\r\n    function isNonFungible(uint256 id) public pure returns (bool) {\r\n        return id & TYPE_NF_BIT == TYPE_NF_BIT;\r\n    }\r\n\r\n    /// @dev Returns true if token is fungible\r\n    function isFungible(uint256 id) public pure returns (bool) {\r\n        return id & TYPE_NF_BIT == 0;\r\n    }\r\n\r\n    /// @dev Returns index of non-fungible token\r\n    function getNonFungibleIndex(uint256 id) public pure returns (uint256) {\r\n        return id & NF_INDEX_MASK;\r\n    }\r\n\r\n    /// @dev Returns base type of non-fungible token\r\n    function getNonFungibleBaseType(uint256 id) public pure returns (uint256) {\r\n        return id & TYPE_MASK;\r\n    }\r\n\r\n    /// @dev Returns true if input is base-type of a non-fungible token\r\n    function isNonFungibleBaseType(uint256 id) public pure returns (bool) {\r\n        // A base type has the NF bit but does not have an index.\r\n        return (id & TYPE_NF_BIT == TYPE_NF_BIT) && (id & NF_INDEX_MASK == 0);\r\n    }\r\n\r\n    /// @dev Returns true if input is a non-fungible token\r\n    function isNonFungibleItem(uint256 id) public pure returns (bool) {\r\n        // A base type has the NF bit but does has an index.\r\n        return (id & TYPE_NF_BIT == TYPE_NF_BIT) && (id & NF_INDEX_MASK != 0);\r\n    }\r\n\r\n    /// @dev returns owner of a non-fungible token\r\n    function ownerOf(uint256 id) public view returns (address) {\r\n        return nfOwners[id];\r\n    }\r\n}\r\n",
  "sourcePath": "C:\\Users\\Vahatra\\Source\\github-monorepo\\contracts\\token\\contracts\\MixinNF.sol",
  "compiler": {
    "name": "solc",
    "version": "0.6.2+commit.bacdbe57.Emscripten.clang"
  },
  "schemaVersion": "3.3.1",
  "updatedAt": "2020-10-29T19:46:13.508Z",
  "devdoc": {
    "methods": {
      "getNonFungibleBaseType(uint256)": {
        "details": "Returns base type of non-fungible token"
      },
      "getNonFungibleIndex(uint256)": {
        "details": "Returns index of non-fungible token"
      },
      "isFungible(uint256)": {
        "details": "Returns true if token is fungible"
      },
      "isNonFungible(uint256)": {
        "details": "Returns true if token is non-fungible"
      },
      "isNonFungibleBaseType(uint256)": {
        "details": "Returns true if input is base-type of a non-fungible token"
      },
      "isNonFungibleItem(uint256)": {
        "details": "Returns true if input is a non-fungible token"
      },
      "ownerOf(uint256)": {
        "details": "returns owner of a non-fungible token"
      }
    }
  },
  "userdoc": {
    "methods": {}
  }
}