{
  "contractName": "SwapVerifier",
  "abi": [
    {
      "inputs": [],
      "name": "DOMAIN_SEPARATOR",
      "outputs": [
        {
          "internalType": "bytes32",
          "name": "",
          "type": "bytes32"
        }
      ],
      "stateMutability": "view",
      "type": "function"
    },
    {
      "inputs": [],
      "name": "EIP712_DOMAIN_TYPEHASH",
      "outputs": [
        {
          "internalType": "bytes32",
          "name": "",
          "type": "bytes32"
        }
      ],
      "stateMutability": "view",
      "type": "function"
    },
    {
      "inputs": [],
      "name": "SWAP_TYPEHASH",
      "outputs": [
        {
          "internalType": "bytes32",
          "name": "",
          "type": "bytes32"
        }
      ],
      "stateMutability": "view",
      "type": "function"
    },
    {
      "inputs": [],
      "name": "name",
      "outputs": [
        {
          "internalType": "string",
          "name": "",
          "type": "string"
        }
      ],
      "stateMutability": "view",
      "type": "function"
    },
    {
      "inputs": [
        {
          "internalType": "address",
          "name": "",
          "type": "address"
        }
      ],
      "name": "signerNonces",
      "outputs": [
        {
          "internalType": "uint256",
          "name": "",
          "type": "uint256"
        }
      ],
      "stateMutability": "view",
      "type": "function"
    },
    {
      "inputs": [
        {
          "components": [
            {
              "internalType": "address",
              "name": "sender",
              "type": "address"
            },
            {
              "internalType": "uint256[]",
              "name": "senderTokenIds",
              "type": "uint256[]"
            },
            {
              "internalType": "uint256[]",
              "name": "senderTokenAmounts",
              "type": "uint256[]"
            },
            {
              "internalType": "uint256[]",
              "name": "signerTokenIds",
              "type": "uint256[]"
            },
            {
              "internalType": "uint256[]",
              "name": "signerTokenAmounts",
              "type": "uint256[]"
            }
          ],
          "internalType": "struct SwapLib.Swap",
          "name": "_swap",
          "type": "tuple"
        },
        {
          "internalType": "uint256",
          "name": "_nonce",
          "type": "uint256"
        },
        {
          "internalType": "uint256",
          "name": "_expiry",
          "type": "uint256"
        },
        {
          "internalType": "uint8",
          "name": "_v",
          "type": "uint8"
        },
        {
          "internalType": "bytes32",
          "name": "_r",
          "type": "bytes32"
        },
        {
          "internalType": "bytes32",
          "name": "_s",
          "type": "bytes32"
        }
      ],
      "name": "SwapVerify",
      "outputs": [
        {
          "internalType": "address",
          "name": "signer_",
          "type": "address"
        }
      ],
      "stateMutability": "nonpayable",
      "type": "function"
    }
  ],
  "bytecode": "0x6080604052604051620000129062000178565b60405180910390206040518060400160405280600781526020017f56616861747261000000000000000000000000000000000000000000000000008152508051906020012062000067620000aa60201b60201c565b306040516020016200007d94939291906200018f565b60405160208183030381529060405280519060200120600155348015620000a357600080fd5b506200022f565b6000804690508091505090565b620000c281620001e7565b82525050565b620000d381620001fb565b82525050565b6000620000e8604383620001dc565b91507f454950373132446f6d61696e28737472696e67206e616d652c75696e7432353660008301527f20636861696e49642c6164647265737320766572696679696e67436f6e74726160208301527f63742900000000000000000000000000000000000000000000000000000000006040830152604382019050919050565b620001728162000225565b82525050565b60006200018582620000d9565b9150819050919050565b6000608082019050620001a66000830187620000c8565b620001b56020830186620000c8565b620001c4604083018562000167565b620001d36060830184620000b7565b95945050505050565b600081905092915050565b6000620001f48262000205565b9050919050565b6000819050919050565b600073ffffffffffffffffffffffffffffffffffffffff82169050919050565b6000819050919050565b610dab806200023f6000396000f3fe608060405234801561001057600080fd5b50600436106100625760003560e01c806306fdde03146100675780633644e515146100855780633c850b1f146100a35780634bc30ea7146100d3578063abd9e333146100f1578063c7977be714610121575b600080fd5b61006f61013f565b60405161007c9190610b26565b60405180910390f35b61008d610178565b60405161009a9190610a49565b60405180910390f35b6100bd60048036036100b891908101906105b4565b61017e565b6040516100ca9190610ba8565b60405180910390f35b6100db610196565b6040516100e89190610a49565b60405180910390f35b61010b600480360361010691908101906105dd565b6101ad565b6040516101189190610a2e565b60405180910390f35b610129610353565b6040516101369190610a49565b60405180910390f35b6040518060400160405280600781526020017f566168617472610000000000000000000000000000000000000000000000000081525081565b60015481565b60006020528060005260406000206000915090505481565b6040516101a2906109cd565b604051809103902081565b600060016101ba8861036a565b858585604051600081526020016040526040516101da9493929190610ae1565b6020604051602081039080840390855afa1580156101fc573d6000803e3d6000fd5b505050602060405103519050600073ffffffffffffffffffffffffffffffffffffffff168173ffffffffffffffffffffffffffffffffffffffff161415610278576040517f08c379a000000000000000000000000000000000000000000000000000000000815260040161026f90610b88565b60405180910390fd5b6000808273ffffffffffffffffffffffffffffffffffffffff1673ffffffffffffffffffffffffffffffffffffffff1681526020019081526020016000206000815480929190600101919050558614610306576040517f08c379a00000000000000000000000000000000000000000000000000000000081526004016102fd90610b68565b60405180910390fd5b84421115610349576040517f08c379a000000000000000000000000000000000000000000000000000000000815260040161034090610b48565b60405180910390fd5b9695505050505050565b60405161035f906109e2565b604051809103902081565b600060015460405161037b906109cd565b6040518091039020836000015184602001518560400151866060015187608001516040516020016103b196959493929190610a64565b604051602081830303815290604052805190602001206040516020016103d89291906109f7565b604051602081830303815290604052805190602001209050919050565b60008135905061040481610d19565b92915050565b600082601f83011261041b57600080fd5b813561042e61042982610bf0565b610bc3565b9150818183526020840193506020810190508385602084028201111561045357600080fd5b60005b838110156104835781610469888261058a565b845260208401935060208301925050600181019050610456565b5050505092915050565b60008135905061049c81610d30565b92915050565b600060a082840312156104b457600080fd5b6104be60a0610bc3565b905060006104ce848285016103f5565b600083015250602082013567ffffffffffffffff8111156104ee57600080fd5b6104fa8482850161040a565b602083015250604082013567ffffffffffffffff81111561051a57600080fd5b6105268482850161040a565b604083015250606082013567ffffffffffffffff81111561054657600080fd5b6105528482850161040a565b606083015250608082013567ffffffffffffffff81111561057257600080fd5b61057e8482850161040a565b60808301525092915050565b60008135905061059981610d47565b92915050565b6000813590506105ae81610d5e565b92915050565b6000602082840312156105c657600080fd5b60006105d4848285016103f5565b91505092915050565b60008060008060008060c087890312156105f657600080fd5b600087013567ffffffffffffffff81111561061057600080fd5b61061c89828a016104a2565b965050602061062d89828a0161058a565b955050604061063e89828a0161058a565b945050606061064f89828a0161059f565b935050608061066089828a0161048d565b92505060a061067189828a0161048d565b9150509295509295509295565b600061068a83836109a0565b60208301905092915050565b61069f81610c78565b82525050565b60006106b082610c28565b6106ba8185610c4b565b93506106c583610c18565b8060005b838110156106f65781516106dd888261067e565b97506106e883610c3e565b9250506001810190506106c9565b5085935050505092915050565b61070c81610c8a565b82525050565b61072361071e82610c8a565b610cfe565b82525050565b600061073482610c33565b61073e8185610c5c565b935061074e818560208601610ccb565b61075781610d08565b840191505092915050565b600061076f601183610c5c565b91507f5349474e41545552455f455850495245440000000000000000000000000000006000830152602082019050919050565b60006107af608083610c6d565b91507f5377617028616464726573732073656e6465722c75696e743235365b5d20736560008301527f6e646572546f6b656e4964732c75696e743235365b5d2073656e646572546f6b60208301527f656e416d6f756e74732c75696e743235365b5d207369676e6572546f6b656e4960408301527f64732c75696e743235365b5d207369676e6572546f6b656e416d6f756e7473296060830152608082019050919050565b6000610861604383610c6d565b91507f454950373132446f6d61696e28737472696e67206e616d652c75696e7432353660008301527f20636861696e49642c6164647265737320766572696679696e67436f6e74726160208301527f63742900000000000000000000000000000000000000000000000000000000006040830152604382019050919050565b60006108ed600d83610c5c565b91507f494e56414c49445f4e4f4e4345000000000000000000000000000000000000006000830152602082019050919050565b600061092d600e83610c5c565b91507f494e56414c49445f5349474e45520000000000000000000000000000000000006000830152602082019050919050565b600061096d600883610c6d565b91507f19010000000000000000000000000000000000000000000000000000000000006000830152600882019050919050565b6109a981610cb4565b82525050565b6109b881610cb4565b82525050565b6109c781610cbe565b82525050565b60006109d8826107a2565b9150819050919050565b60006109ed82610854565b9150819050919050565b6000610a0282610960565b9150610a0e8285610712565b602082019150610a1e8284610712565b6020820191508190509392505050565b6000602082019050610a436000830184610696565b92915050565b6000602082019050610a5e6000830184610703565b92915050565b600060c082019050610a796000830189610703565b610a866020830188610696565b8181036040830152610a9881876106a5565b90508181036060830152610aac81866106a5565b90508181036080830152610ac081856106a5565b905081810360a0830152610ad481846106a5565b9050979650505050505050565b6000608082019050610af66000830187610703565b610b0360208301866109be565b610b106040830185610703565b610b1d6060830184610703565b95945050505050565b60006020820190508181036000830152610b408184610729565b905092915050565b60006020820190508181036000830152610b6181610762565b9050919050565b60006020820190508181036000830152610b81816108e0565b9050919050565b60006020820190508181036000830152610ba181610920565b9050919050565b6000602082019050610bbd60008301846109af565b92915050565b6000604051905081810181811067ffffffffffffffff82111715610be657600080fd5b8060405250919050565b600067ffffffffffffffff821115610c0757600080fd5b602082029050602081019050919050565b6000819050602082019050919050565b600081519050919050565b600081519050919050565b6000602082019050919050565b600082825260208201905092915050565b600082825260208201905092915050565b600081905092915050565b6000610c8382610c94565b9050919050565b6000819050919050565b600073ffffffffffffffffffffffffffffffffffffffff82169050919050565b6000819050919050565b600060ff82169050919050565b60005b83811015610ce9578082015181840152602081019050610cce565b83811115610cf8576000848401525b50505050565b6000819050919050565b6000601f19601f8301169050919050565b610d2281610c78565b8114610d2d57600080fd5b50565b610d3981610c8a565b8114610d4457600080fd5b50565b610d5081610cb4565b8114610d5b57600080fd5b50565b610d6781610cbe565b8114610d7257600080fd5b5056fea2646970667358221220d40c8dd2bfd8289529877ab25091839c0636ec54b49f66fa0ce0c3a835c760cb64736f6c63430006020033",
  "source": "// SPDX-License-Identifier: UNLICENSED\r\npragma solidity ^0.6.0;\r\npragma experimental ABIEncoderV2;\r\n\r\nimport \"./libs/SwapLib.sol\";\r\n\r\ncontract SwapVerifier {\r\n    using SwapLib for SwapLib.Swap;\r\n\r\n    string public constant name = \"Vahatra\";\r\n\r\n    mapping(address => uint256) public signerNonces;\r\n\r\n    bytes32 public constant SWAP_TYPEHASH = keccak256(\r\n        \"Swap(address sender,uint256[] senderTokenIds,uint256[] senderTokenAmounts,uint256[] signerTokenIds,uint256[] signerTokenAmounts)\"\r\n    );\r\n\r\n    bytes32 public constant EIP712_DOMAIN_TYPEHASH = keccak256(\r\n        \"EIP712Domain(string name,uint256 chainId,address verifyingContract)\"\r\n    );\r\n    bytes32 public DOMAIN_SEPARATOR = keccak256(\r\n        abi.encode(EIP712_DOMAIN_TYPEHASH, keccak256(bytes(name)), getChainId(), address(this))\r\n    );\r\n\r\n    function getChainId() internal pure returns (uint256) {\r\n        uint256 chainId;\r\n        assembly {\r\n            chainId := chainid()\r\n        }\r\n        return chainId;\r\n    }\r\n\r\n    function hashSwap(SwapLib.Swap memory _swap) private view returns (bytes32) {\r\n        return\r\n            keccak256(\r\n                abi.encodePacked(\r\n                    \"\\\\x19\\\\x01\",\r\n                    DOMAIN_SEPARATOR,\r\n                    keccak256(\r\n                        abi.encode(\r\n                            SWAP_TYPEHASH,\r\n                            _swap.sender,\r\n                            _swap.senderTokenIds,\r\n                            _swap.senderTokenAmounts,\r\n                            _swap.signerTokenIds,\r\n                            _swap.signerTokenAmounts\r\n                        )\r\n                    )\r\n                )\r\n            );\r\n    }\r\n\r\n    function SwapVerify(\r\n        SwapLib.Swap memory _swap,\r\n        uint256 _nonce,\r\n        uint256 _expiry,\r\n        uint8 _v,\r\n        bytes32 _r,\r\n        bytes32 _s\r\n    ) public returns (address signer_) {\r\n        signer_ = ecrecover(hashSwap(_swap), _v, _r, _s);\r\n        require(signer_ != address(0), \"INVALID_SIGNER\");\r\n        require(_nonce == signerNonces[signer_]++, \"INVALID_NONCE\");\r\n        require(now <= _expiry, \"SIGNATURE_EXPIRED\");\r\n    }\r\n}\r\n",
  "sourcePath": "C:\\Users\\Vahatra\\Source\\github-monorepo\\contracts\\token\\contracts\\SwapVerifier.sol",
  "compiler": {
    "name": "solc",
    "version": "0.6.2+commit.bacdbe57.Emscripten.clang"
  },
  "schemaVersion": "3.3.1",
  "updatedAt": "2020-11-01T16:51:22.140Z",
  "devdoc": {
    "methods": {}
  },
  "userdoc": {
    "methods": {}
  }
}