{
  "contractName": "Token",
  "abi": [
    {
      "anonymous": false,
      "inputs": [
        {
          "indexed": true,
          "internalType": "address",
          "name": "operator",
          "type": "address"
        },
        {
          "indexed": true,
          "internalType": "address",
          "name": "holder",
          "type": "address"
        }
      ],
      "name": "AuthorizedOperator",
      "type": "event"
    },
    {
      "anonymous": false,
      "inputs": [
        {
          "indexed": false,
          "internalType": "address",
          "name": "operator",
          "type": "address"
        },
        {
          "indexed": true,
          "internalType": "address",
          "name": "from",
          "type": "address"
        },
        {
          "indexed": true,
          "internalType": "uint256",
          "name": "id",
          "type": "uint256"
        },
        {
          "indexed": false,
          "internalType": "uint256",
          "name": "amount",
          "type": "uint256"
        },
        {
          "indexed": false,
          "internalType": "bytes",
          "name": "data",
          "type": "bytes"
        },
        {
          "indexed": false,
          "internalType": "bytes",
          "name": "operatorData",
          "type": "bytes"
        }
      ],
      "name": "Burned",
      "type": "event"
    },
    {
      "anonymous": false,
      "inputs": [
        {
          "indexed": false,
          "internalType": "address",
          "name": "operator",
          "type": "address"
        },
        {
          "indexed": true,
          "internalType": "address",
          "name": "to",
          "type": "address"
        },
        {
          "indexed": true,
          "internalType": "uint256",
          "name": "id",
          "type": "uint256"
        },
        {
          "indexed": false,
          "internalType": "uint256",
          "name": "amount",
          "type": "uint256"
        },
        {
          "indexed": false,
          "internalType": "bytes",
          "name": "data",
          "type": "bytes"
        },
        {
          "indexed": false,
          "internalType": "bytes",
          "name": "operatorData",
          "type": "bytes"
        }
      ],
      "name": "Minted",
      "type": "event"
    },
    {
      "anonymous": false,
      "inputs": [
        {
          "indexed": false,
          "internalType": "address",
          "name": "account",
          "type": "address"
        }
      ],
      "name": "Paused",
      "type": "event"
    },
    {
      "anonymous": false,
      "inputs": [
        {
          "indexed": true,
          "internalType": "address",
          "name": "operator",
          "type": "address"
        },
        {
          "indexed": true,
          "internalType": "address",
          "name": "holder",
          "type": "address"
        }
      ],
      "name": "RevokedOperator",
      "type": "event"
    },
    {
      "anonymous": false,
      "inputs": [
        {
          "indexed": true,
          "internalType": "bytes32",
          "name": "role",
          "type": "bytes32"
        },
        {
          "indexed": true,
          "internalType": "bytes32",
          "name": "previousAdminRole",
          "type": "bytes32"
        },
        {
          "indexed": true,
          "internalType": "bytes32",
          "name": "newAdminRole",
          "type": "bytes32"
        }
      ],
      "name": "RoleAdminChanged",
      "type": "event"
    },
    {
      "anonymous": false,
      "inputs": [
        {
          "indexed": true,
          "internalType": "bytes32",
          "name": "role",
          "type": "bytes32"
        },
        {
          "indexed": true,
          "internalType": "address",
          "name": "account",
          "type": "address"
        },
        {
          "indexed": true,
          "internalType": "address",
          "name": "sender",
          "type": "address"
        }
      ],
      "name": "RoleGranted",
      "type": "event"
    },
    {
      "anonymous": false,
      "inputs": [
        {
          "indexed": true,
          "internalType": "bytes32",
          "name": "role",
          "type": "bytes32"
        },
        {
          "indexed": true,
          "internalType": "address",
          "name": "account",
          "type": "address"
        },
        {
          "indexed": true,
          "internalType": "address",
          "name": "sender",
          "type": "address"
        }
      ],
      "name": "RoleRevoked",
      "type": "event"
    },
    {
      "anonymous": false,
      "inputs": [
        {
          "indexed": true,
          "internalType": "address",
          "name": "operator",
          "type": "address"
        },
        {
          "indexed": true,
          "internalType": "address",
          "name": "from",
          "type": "address"
        },
        {
          "indexed": true,
          "internalType": "address",
          "name": "to",
          "type": "address"
        },
        {
          "indexed": false,
          "internalType": "uint256",
          "name": "amount",
          "type": "uint256"
        },
        {
          "indexed": false,
          "internalType": "bytes",
          "name": "data",
          "type": "bytes"
        },
        {
          "indexed": false,
          "internalType": "bytes",
          "name": "operatorData",
          "type": "bytes"
        }
      ],
      "name": "Sent",
      "type": "event"
    },
    {
      "anonymous": false,
      "inputs": [
        {
          "indexed": false,
          "internalType": "address",
          "name": "operator",
          "type": "address"
        },
        {
          "indexed": true,
          "internalType": "address",
          "name": "from",
          "type": "address"
        },
        {
          "indexed": true,
          "internalType": "address",
          "name": "to",
          "type": "address"
        },
        {
          "indexed": true,
          "internalType": "uint256",
          "name": "id",
          "type": "uint256"
        },
        {
          "indexed": false,
          "internalType": "uint256",
          "name": "amount",
          "type": "uint256"
        },
        {
          "indexed": false,
          "internalType": "bytes",
          "name": "data",
          "type": "bytes"
        },
        {
          "indexed": false,
          "internalType": "bytes",
          "name": "operatorData",
          "type": "bytes"
        }
      ],
      "name": "Sent",
      "type": "event"
    },
    {
      "anonymous": false,
      "inputs": [
        {
          "indexed": false,
          "internalType": "address",
          "name": "account",
          "type": "address"
        }
      ],
      "name": "Unpaused",
      "type": "event"
    },
    {
      "inputs": [],
      "name": "BURNER_ROLE",
      "outputs": [
        {
          "internalType": "bytes32",
          "name": "",
          "type": "bytes32"
        }
      ],
      "stateMutability": "view",
      "type": "function"
    },
    {
      "inputs": [],
      "name": "DEFAULT_ADMIN_ROLE",
      "outputs": [
        {
          "internalType": "bytes32",
          "name": "",
          "type": "bytes32"
        }
      ],
      "stateMutability": "view",
      "type": "function"
    },
    {
      "inputs": [],
      "name": "DOMAIN_SEPARATOR",
      "outputs": [
        {
          "internalType": "bytes32",
          "name": "",
          "type": "bytes32"
        }
      ],
      "stateMutability": "view",
      "type": "function"
    },
    {
      "inputs": [],
      "name": "EIP712_DOMAIN_TYPEHASH",
      "outputs": [
        {
          "internalType": "bytes32",
          "name": "",
          "type": "bytes32"
        }
      ],
      "stateMutability": "view",
      "type": "function"
    },
    {
      "inputs": [],
      "name": "MINTER_ROLE",
      "outputs": [
        {
          "internalType": "bytes32",
          "name": "",
          "type": "bytes32"
        }
      ],
      "stateMutability": "view",
      "type": "function"
    },
    {
      "inputs": [],
      "name": "SWAP_TYPEHASH",
      "outputs": [
        {
          "internalType": "bytes32",
          "name": "",
          "type": "bytes32"
        }
      ],
      "stateMutability": "view",
      "type": "function"
    },
    {
      "inputs": [
        {
          "components": [
            {
              "internalType": "address",
              "name": "sender",
              "type": "address"
            },
            {
              "internalType": "uint256[]",
              "name": "senderTokenIds",
              "type": "uint256[]"
            },
            {
              "internalType": "uint256[]",
              "name": "senderTokenAmounts",
              "type": "uint256[]"
            },
            {
              "internalType": "uint256[]",
              "name": "signerTokenIds",
              "type": "uint256[]"
            },
            {
              "internalType": "uint256[]",
              "name": "signerTokenAmounts",
              "type": "uint256[]"
            }
          ],
          "internalType": "struct SwapLib.Swap",
          "name": "_swap",
          "type": "tuple"
        },
        {
          "internalType": "uint256",
          "name": "_nonce",
          "type": "uint256"
        },
        {
          "internalType": "uint256",
          "name": "_expiry",
          "type": "uint256"
        },
        {
          "internalType": "uint8",
          "name": "_v",
          "type": "uint8"
        },
        {
          "internalType": "bytes32",
          "name": "_r",
          "type": "bytes32"
        },
        {
          "internalType": "bytes32",
          "name": "_s",
          "type": "bytes32"
        }
      ],
      "name": "SwapVerify",
      "outputs": [
        {
          "internalType": "address",
          "name": "signer_",
          "type": "address"
        }
      ],
      "stateMutability": "nonpayable",
      "type": "function"
    },
    {
      "inputs": [
        {
          "internalType": "uint256",
          "name": "",
          "type": "uint256"
        }
      ],
      "name": "creators",
      "outputs": [
        {
          "internalType": "address",
          "name": "",
          "type": "address"
        }
      ],
      "stateMutability": "view",
      "type": "function"
    },
    {
      "inputs": [
        {
          "internalType": "uint256",
          "name": "id",
          "type": "uint256"
        }
      ],
      "name": "getNonFungibleBaseType",
      "outputs": [
        {
          "internalType": "uint256",
          "name": "",
          "type": "uint256"
        }
      ],
      "stateMutability": "pure",
      "type": "function"
    },
    {
      "inputs": [
        {
          "internalType": "uint256",
          "name": "id",
          "type": "uint256"
        }
      ],
      "name": "getNonFungibleIndex",
      "outputs": [
        {
          "internalType": "uint256",
          "name": "",
          "type": "uint256"
        }
      ],
      "stateMutability": "pure",
      "type": "function"
    },
    {
      "inputs": [
        {
          "internalType": "bytes32",
          "name": "role",
          "type": "bytes32"
        }
      ],
      "name": "getRoleAdmin",
      "outputs": [
        {
          "internalType": "bytes32",
          "name": "",
          "type": "bytes32"
        }
      ],
      "stateMutability": "view",
      "type": "function"
    },
    {
      "inputs": [
        {
          "internalType": "bytes32",
          "name": "role",
          "type": "bytes32"
        },
        {
          "internalType": "uint256",
          "name": "index",
          "type": "uint256"
        }
      ],
      "name": "getRoleMember",
      "outputs": [
        {
          "internalType": "address",
          "name": "",
          "type": "address"
        }
      ],
      "stateMutability": "view",
      "type": "function"
    },
    {
      "inputs": [
        {
          "internalType": "bytes32",
          "name": "role",
          "type": "bytes32"
        }
      ],
      "name": "getRoleMemberCount",
      "outputs": [
        {
          "internalType": "uint256",
          "name": "",
          "type": "uint256"
        }
      ],
      "stateMutability": "view",
      "type": "function"
    },
    {
      "inputs": [
        {
          "internalType": "bytes32",
          "name": "role",
          "type": "bytes32"
        },
        {
          "internalType": "address",
          "name": "account",
          "type": "address"
        }
      ],
      "name": "grantRole",
      "outputs": [],
      "stateMutability": "nonpayable",
      "type": "function"
    },
    {
      "inputs": [
        {
          "internalType": "bytes32",
          "name": "role",
          "type": "bytes32"
        },
        {
          "internalType": "address",
          "name": "account",
          "type": "address"
        }
      ],
      "name": "hasRole",
      "outputs": [
        {
          "internalType": "bool",
          "name": "",
          "type": "bool"
        }
      ],
      "stateMutability": "view",
      "type": "function"
    },
    {
      "inputs": [
        {
          "internalType": "uint256",
          "name": "id",
          "type": "uint256"
        }
      ],
      "name": "isFungible",
      "outputs": [
        {
          "internalType": "bool",
          "name": "",
          "type": "bool"
        }
      ],
      "stateMutability": "pure",
      "type": "function"
    },
    {
      "inputs": [
        {
          "internalType": "uint256",
          "name": "id",
          "type": "uint256"
        }
      ],
      "name": "isNonFungible",
      "outputs": [
        {
          "internalType": "bool",
          "name": "",
          "type": "bool"
        }
      ],
      "stateMutability": "pure",
      "type": "function"
    },
    {
      "inputs": [
        {
          "internalType": "uint256",
          "name": "id",
          "type": "uint256"
        }
      ],
      "name": "isNonFungibleBaseType",
      "outputs": [
        {
          "internalType": "bool",
          "name": "",
          "type": "bool"
        }
      ],
      "stateMutability": "pure",
      "type": "function"
    },
    {
      "inputs": [
        {
          "internalType": "uint256",
          "name": "id",
          "type": "uint256"
        }
      ],
      "name": "isNonFungibleItem",
      "outputs": [
        {
          "internalType": "bool",
          "name": "",
          "type": "bool"
        }
      ],
      "stateMutability": "pure",
      "type": "function"
    },
    {
      "inputs": [
        {
          "internalType": "uint256",
          "name": "",
          "type": "uint256"
        }
      ],
      "name": "maxIndex",
      "outputs": [
        {
          "internalType": "uint256",
          "name": "",
          "type": "uint256"
        }
      ],
      "stateMutability": "view",
      "type": "function"
    },
    {
      "inputs": [],
      "name": "name",
      "outputs": [
        {
          "internalType": "string",
          "name": "",
          "type": "string"
        }
      ],
      "stateMutability": "view",
      "type": "function"
    },
    {
      "inputs": [
        {
          "internalType": "uint256",
          "name": "id",
          "type": "uint256"
        }
      ],
      "name": "ownerOf",
      "outputs": [
        {
          "internalType": "address",
          "name": "",
          "type": "address"
        }
      ],
      "stateMutability": "view",
      "type": "function"
    },
    {
      "inputs": [],
      "name": "paused",
      "outputs": [
        {
          "internalType": "bool",
          "name": "",
          "type": "bool"
        }
      ],
      "stateMutability": "view",
      "type": "function"
    },
    {
      "inputs": [
        {
          "internalType": "bytes32",
          "name": "role",
          "type": "bytes32"
        },
        {
          "internalType": "address",
          "name": "account",
          "type": "address"
        }
      ],
      "name": "renounceRole",
      "outputs": [],
      "stateMutability": "nonpayable",
      "type": "function"
    },
    {
      "inputs": [
        {
          "internalType": "bytes32",
          "name": "role",
          "type": "bytes32"
        },
        {
          "internalType": "address",
          "name": "account",
          "type": "address"
        }
      ],
      "name": "revokeRole",
      "outputs": [],
      "stateMutability": "nonpayable",
      "type": "function"
    },
    {
      "inputs": [
        {
          "internalType": "address",
          "name": "",
          "type": "address"
        }
      ],
      "name": "signerNonces",
      "outputs": [
        {
          "internalType": "uint256",
          "name": "",
          "type": "uint256"
        }
      ],
      "stateMutability": "view",
      "type": "function"
    },
    {
      "inputs": [
        {
          "internalType": "address[]",
          "name": "_defaultOperators",
          "type": "address[]"
        },
        {
          "internalType": "uint256",
          "name": "_granNF",
          "type": "uint256"
        }
      ],
      "name": "initialize",
      "outputs": [],
      "stateMutability": "nonpayable",
      "type": "function"
    },
    {
      "inputs": [],
      "name": "granularity",
      "outputs": [
        {
          "internalType": "uint256",
          "name": "",
          "type": "uint256"
        }
      ],
      "stateMutability": "view",
      "type": "function"
    },
    {
      "inputs": [],
      "name": "defaultOperators",
      "outputs": [
        {
          "internalType": "address[]",
          "name": "",
          "type": "address[]"
        }
      ],
      "stateMutability": "view",
      "type": "function"
    },
    {
      "inputs": [
        {
          "internalType": "bool",
          "name": "_isNF",
          "type": "bool"
        }
      ],
      "name": "create",
      "outputs": [
        {
          "internalType": "uint256",
          "name": "type_",
          "type": "uint256"
        }
      ],
      "stateMutability": "nonpayable",
      "type": "function"
    },
    {
      "inputs": [
        {
          "internalType": "uint256",
          "name": "_id",
          "type": "uint256"
        },
        {
          "internalType": "address[]",
          "name": "_to",
          "type": "address[]"
        },
        {
          "internalType": "uint256[]",
          "name": "_amounts",
          "type": "uint256[]"
        },
        {
          "internalType": "bytes",
          "name": "_data",
          "type": "bytes"
        },
        {
          "internalType": "bytes",
          "name": "_operatorData",
          "type": "bytes"
        }
      ],
      "name": "mintFungible",
      "outputs": [],
      "stateMutability": "nonpayable",
      "type": "function"
    },
    {
      "inputs": [
        {
          "internalType": "uint256",
          "name": "_type",
          "type": "uint256"
        },
        {
          "internalType": "address[]",
          "name": "_to",
          "type": "address[]"
        },
        {
          "internalType": "bytes",
          "name": "_data",
          "type": "bytes"
        },
        {
          "internalType": "bytes",
          "name": "_operatorData",
          "type": "bytes"
        }
      ],
      "name": "mintNonFungible",
      "outputs": [],
      "stateMutability": "nonpayable",
      "type": "function"
    },
    {
      "inputs": [
        {
          "internalType": "address",
          "name": "_to",
          "type": "address"
        },
        {
          "internalType": "uint256[]",
          "name": "_ids",
          "type": "uint256[]"
        },
        {
          "internalType": "uint256[]",
          "name": "_amounts",
          "type": "uint256[]"
        },
        {
          "internalType": "bytes",
          "name": "_data",
          "type": "bytes"
        }
      ],
      "name": "send",
      "outputs": [],
      "stateMutability": "nonpayable",
      "type": "function"
    },
    {
      "inputs": [
        {
          "internalType": "address",
          "name": "_from",
          "type": "address"
        },
        {
          "internalType": "address",
          "name": "_to",
          "type": "address"
        },
        {
          "internalType": "uint256[]",
          "name": "_ids",
          "type": "uint256[]"
        },
        {
          "internalType": "uint256[]",
          "name": "_amounts",
          "type": "uint256[]"
        },
        {
          "internalType": "bytes",
          "name": "_data",
          "type": "bytes"
        },
        {
          "internalType": "bytes",
          "name": "_operatorData",
          "type": "bytes"
        }
      ],
      "name": "operatorSend",
      "outputs": [],
      "stateMutability": "nonpayable",
      "type": "function"
    },
    {
      "inputs": [
        {
          "components": [
            {
              "internalType": "address",
              "name": "sender",
              "type": "address"
            },
            {
              "internalType": "uint256[]",
              "name": "senderTokenIds",
              "type": "uint256[]"
            },
            {
              "internalType": "uint256[]",
              "name": "senderTokenAmounts",
              "type": "uint256[]"
            },
            {
              "internalType": "uint256[]",
              "name": "signerTokenIds",
              "type": "uint256[]"
            },
            {
              "internalType": "uint256[]",
              "name": "signerTokenAmounts",
              "type": "uint256[]"
            }
          ],
          "internalType": "struct SwapLib.Swap",
          "name": "_swap",
          "type": "tuple"
        },
        {
          "internalType": "uint256",
          "name": "_nonce",
          "type": "uint256"
        },
        {
          "internalType": "uint256",
          "name": "_expiry",
          "type": "uint256"
        },
        {
          "internalType": "uint8",
          "name": "_v",
          "type": "uint8"
        },
        {
          "internalType": "bytes32",
          "name": "_r",
          "type": "bytes32"
        },
        {
          "internalType": "bytes32",
          "name": "_s",
          "type": "bytes32"
        },
        {
          "internalType": "bytes",
          "name": "_data",
          "type": "bytes"
        }
      ],
      "name": "swap",
      "outputs": [],
      "stateMutability": "nonpayable",
      "type": "function"
    },
    {
      "inputs": [
        {
          "internalType": "uint256[]",
          "name": "_ids",
          "type": "uint256[]"
        },
        {
          "internalType": "uint256[]",
          "name": "_amounts",
          "type": "uint256[]"
        },
        {
          "internalType": "bytes",
          "name": "_data",
          "type": "bytes"
        }
      ],
      "name": "burn",
      "outputs": [],
      "stateMutability": "nonpayable",
      "type": "function"
    },
    {
      "inputs": [
        {
          "internalType": "address",
          "name": "_from",
          "type": "address"
        },
        {
          "internalType": "uint256[]",
          "name": "_ids",
          "type": "uint256[]"
        },
        {
          "internalType": "uint256[]",
          "name": "_amounts",
          "type": "uint256[]"
        },
        {
          "internalType": "bytes",
          "name": "_data",
          "type": "bytes"
        },
        {
          "internalType": "bytes",
          "name": "_operatorData",
          "type": "bytes"
        }
      ],
      "name": "operatorBurn",
      "outputs": [],
      "stateMutability": "nonpayable",
      "type": "function"
    },
    {
      "inputs": [
        {
          "internalType": "address",
          "name": "_operator",
          "type": "address"
        }
      ],
      "name": "authorizeOperator",
      "outputs": [],
      "stateMutability": "nonpayable",
      "type": "function"
    },
    {
      "inputs": [
        {
          "internalType": "address",
          "name": "_operator",
          "type": "address"
        }
      ],
      "name": "revokeOperator",
      "outputs": [],
      "stateMutability": "nonpayable",
      "type": "function"
    },
    {
      "inputs": [
        {
          "internalType": "address",
          "name": "_operator",
          "type": "address"
        },
        {
          "internalType": "address",
          "name": "_holder",
          "type": "address"
        }
      ],
      "name": "isOperatorFor",
      "outputs": [
        {
          "internalType": "bool",
          "name": "",
          "type": "bool"
        }
      ],
      "stateMutability": "view",
      "type": "function"
    },
    {
      "inputs": [
        {
          "internalType": "address",
          "name": "_owner",
          "type": "address"
        },
        {
          "internalType": "uint256",
          "name": "_id",
          "type": "uint256"
        }
      ],
      "name": "balanceOf",
      "outputs": [
        {
          "internalType": "uint256",
          "name": "",
          "type": "uint256"
        }
      ],
      "stateMutability": "view",
      "type": "function"
    },
    {
      "inputs": [
        {
          "internalType": "address[]",
          "name": "_owners",
          "type": "address[]"
        },
        {
          "internalType": "uint256[]",
          "name": "_ids",
          "type": "uint256[]"
        }
      ],
      "name": "balanceOfBatch",
      "outputs": [
        {
          "internalType": "uint256[]",
          "name": "balances_",
          "type": "uint256[]"
        }
      ],
      "stateMutability": "view",
      "type": "function"
    }
  ],
  "bytecode": "0x6080604052604051620000129062000185565b60405180910390206040518060400160405280600781526020017f56616861747261000000000000000000000000000000000000000000000000008152508051906020012062000067620000b760201b60201c565b306040516020016200007d94939291906200019c565b604051602081830303815290604052805190602001206001556000600360026101000a81548160ff0219169083151502179055506200023c565b6000804690508091505090565b620000cf81620001f4565b82525050565b620000e08162000208565b82525050565b6000620000f5604383620001e9565b91507f454950373132446f6d61696e28737472696e67206e616d652c75696e7432353660008301527f20636861696e49642c6164647265737320766572696679696e67436f6e74726160208301527f63742900000000000000000000000000000000000000000000000000000000006040830152604382019050919050565b6200017f8162000232565b82525050565b60006200019282620000e6565b9150819050919050565b6000608082019050620001b36000830187620000d5565b620001c26020830186620000d5565b620001d1604083018562000174565b620001e06060830184620000c4565b95945050505050565b600081905092915050565b6000620002018262000212565b9050919050565b6000819050919050565b600073ffffffffffffffffffffffffffffffffffffffff82169050919050565b6000819050919050565b616368806200024c6000396000f3fe608060405234801561001057600080fd5b506004361061025d5760003560e01c80636352211e11610146578063adebf6f2116100c3578063d539139311610087578063d5391393146107a4578063d547741f146107c2578063d95b6371146107de578063db5a4ce61461080e578063e44591f01461083e578063fad8b32a1461086e5761025d565b8063adebf6f2146106da578063c1e206d81461070a578063c7977be714610726578063ca15c87314610744578063cd53d08e146107745761025d565b806391d148541161010a57806391d1485414610610578063959b8c3f146106405780639cca1c641461065c578063a217fddf1461068c578063abd9e333146106aa5761025d565b80636352211e146105345780636f969c2d146105645780637269a327146105945780637eff2890146105c45780639010d07c146105e05761025d565b80633c850b1f116101df57806353606057116101a35780635360605714610474578063556f0dc7146104905780635c975abb146104ae5780635d9ab099146104cc5780635e81b958146104e857806360b5bb3f146105185761025d565b80633c850b1f146103be578063428465c1146103ee5780634bc30ea71461040a5780634d2d80c4146104285780634e1273f4146104445761025d565b8063282c51f311610226578063282c51f31461032e5780632d0baf541461034c5780632f2ff15d146103685780633644e5151461038457806336568abe146103a25761025d565b8062fdd58e1461026257806306e485381461029257806306fdde03146102b057806308d7d469146102ce578063248a9ca3146102fe575b600080fd5b61027c600480360361027791908101906145ca565b61088a565b6040516102899190616025565b60405180910390f35b61029a61096e565b6040516102a79190615b65565b60405180910390f35b6102b86109fc565b6040516102c59190615ca1565b60405180910390f35b6102e860048036036102e391908101906149b0565b610a35565b6040516102f59190616025565b60405180910390f35b610318600480360361031391908101906147a0565b610a4d565b6040516103259190615bc4565b60405180910390f35b610336610a6d565b6040516103439190615bc4565b60405180910390f35b610366600480360361036191908101906149d9565b610a84565b005b610382600480360361037d91908101906147c9565b610e01565b005b61038c610e75565b6040516103999190615bc4565b60405180910390f35b6103bc60048036036103b791908101906147c9565b610e7b565b005b6103d860048036036103d3919081019061429f565b610efe565b6040516103e59190616025565b60405180910390f35b610408600480360361040391908101906146d3565b610f16565b005b610412611051565b60405161041f9190615bc4565b60405180910390f35b610442600480360361043d91908101906144e2565b611068565b005b61045e60048036036104599190810190614606565b611224565b60405161046b9190615b87565b60405180910390f35b61048e60048036036104899190810190614ac1565b61142b565b005b6104986117e6565b6040516104a59190616025565b60405180910390f35b6104b66117f0565b6040516104c39190615ba9565b60405180910390f35b6104e660048036036104e1919081019061432d565b611807565b005b61050260048036036104fd91908101906149b0565b6119c5565b60405161050f9190615ba9565b60405180910390f35b610532600480360361052d919081019061467b565b611a34565b005b61054e600480360361054991908101906149b0565b611c2e565b60405161055b9190615946565b60405180910390f35b61057e600480360361057991908101906149b0565b611c6b565b60405161058b9190616025565b60405180910390f35b6105ae60048036036105a991908101906149b0565b611cad565b6040516105bb9190615ba9565b60405180910390f35b6105de60048036036105d99190810190614429565b611d1b565b005b6105fa60048036036105f59190810190614805565b611e58565b6040516106079190615946565b60405180910390f35b61062a600480360361062591908101906147c9565b611e8a565b6040516106379190615ba9565b60405180910390f35b61065a6004803603610655919081019061429f565b611ebc565b005b610676600480360361067191908101906149b0565b61215a565b6040516106839190616025565b60405180910390f35b610694612198565b6040516106a19190615bc4565b60405180910390f35b6106c460048036036106bf9190810190614841565b61219f565b6040516106d19190615946565b60405180910390f35b6106f460048036036106ef91908101906149b0565b612345565b6040516107019190615ba9565b60405180910390f35b610724600480360361071f91908101906148e2565b612373565b005b61072e61242b565b60405161073b9190615bc4565b60405180910390f35b61075e600480360361075991908101906147a0565b612442565b60405161076b9190616025565b60405180910390f35b61078e600480360361078991908101906149b0565b612469565b60405161079b9190615946565b60405180910390f35b6107ac61249c565b6040516107b99190615bc4565b60405180910390f35b6107dc60048036036107d791908101906147c9565b6124b3565b005b6107f860048036036107f391908101906142f1565b612527565b6040516108059190615ba9565b60405180910390f35b61082860048036036108239190810190614777565b61253b565b6040516108359190616025565b60405180910390f35b610858600480360361085391908101906149b0565b6126ec565b6040516108659190615ba9565b60405180910390f35b6108886004803603610883919081019061429f565b61271a565b005b6000610895826119c5565b15610914578273ffffffffffffffffffffffffffffffffffffffff166002600084815260200190815260200160002060009054906101000a900473ffffffffffffffffffffffffffffffffffffffff1673ffffffffffffffffffffffffffffffffffffffff161461090757600061090a565b60015b60ff169050610968565b600a600083815260200190815260200160002060008473ffffffffffffffffffffffffffffffffffffffff1673ffffffffffffffffffffffffffffffffffffffff1681526020019081526020016000205490505b92915050565b6060600b8054806020026020016040519081016040528092919081815260200182805480156109f257602002820191906000526020600020905b8160009054906101000a900473ffffffffffffffffffffffffffffffffffffffff1673ffffffffffffffffffffffffffffffffffffffff16815260200190600101908083116109a8575b5050505050905090565b6040518060400160405280600781526020017f566168617472610000000000000000000000000000000000000000000000000081525081565b60076020528060005260406000206000915090505481565b600060046000838152602001908152602001600020600201549050919050565b604051610a79906158a6565b604051809103902081565b600360029054906101000a900460ff1615610ad4576040517f08c379a0000000000000000000000000000000000000000000000000000000008152600401610acb90615e05565b60405180910390fd5b883373ffffffffffffffffffffffffffffffffffffffff166006600083815260200190815260200160002060009054906101000a900473ffffffffffffffffffffffffffffffffffffffff1673ffffffffffffffffffffffffffffffffffffffff1614610b76576040517f08c379a0000000000000000000000000000000000000000000000000000000008152600401610b6d90615fc5565b60405180910390fd5b610b93604051610b85906158fa565b604051809103902033611e8a565b610bd2576040517f08c379a0000000000000000000000000000000000000000000000000000000008152600401610bc990615ee5565b60405180910390fd5b610bdb8a612345565b610c1a576040517f08c379a0000000000000000000000000000000000000000000000000000000008152600401610c1190615f45565b60405180910390fd5b60008090505b89899050811015610df45760008a8a83818110610c3957fe5b9050602002016020610c4e919081019061429f565b9050600073ffffffffffffffffffffffffffffffffffffffff168173ffffffffffffffffffffffffffffffffffffffff161415610cc0576040517f08c379a0000000000000000000000000000000000000000000000000000000008152600401610cb790615f85565b60405180910390fd5b6000898984818110610cce57fe5b905060200201359050610d3a600a60008f815260200190815260200160002060008473ffffffffffffffffffffffffffffffffffffffff1673ffffffffffffffffffffffffffffffffffffffff16815260200190815260200160002054826129b890919063ffffffff16565b600a60008f815260200190815260200160002060008473ffffffffffffffffffffffffffffffffffffffff1673ffffffffffffffffffffffffffffffffffffffff168152602001908152602001600020819055508c8273ffffffffffffffffffffffffffffffffffffffff167f3c2ecef3eb8bfe571b65f95f1015446c317f8c8d975971d3a99acd4fcda98b0533848c8c8c8c604051610ddf96959493929190615a07565b60405180910390a35050806001019050610c20565b5050505050505050505050565b610e286004600084815260200190815260200160002060020154610e23612a0d565b611e8a565b610e67576040517f08c379a0000000000000000000000000000000000000000000000000000000008152600401610e5e90615d05565b60405180910390fd5b610e718282612a15565b5050565b60015481565b610e83612a0d565b73ffffffffffffffffffffffffffffffffffffffff168173ffffffffffffffffffffffffffffffffffffffff1614610ef0576040517f08c379a0000000000000000000000000000000000000000000000000000000008152600401610ee790616005565b60405180910390fd5b610efa8282612aa9565b5050565b60006020528060005260406000206000915090505481565b600360029054906101000a900460ff1615610f66576040517f08c379a0000000000000000000000000000000000000000000000000000000008152600401610f5d90615e05565b60405180910390fd5b6110493333888880806020026020016040519081016040528093929190818152602001838360200280828437600081840152601f19601f82011690508083019250505050505050878780806020026020016040519081016040528093929190818152602001838360200280828437600081840152601f19601f8201169050808301925050505050505086868080601f016020809104026020016040519081016040528093929190818152602001838380828437600081840152601f19601f8201169050808301925050505050505060405180602001604052806000815250612b3d565b505050505050565b60405161105d906158bb565b604051809103902081565b600360029054906101000a900460ff16156110b8576040517f08c379a00000000000000000000000000000000000000000000000000000000081526004016110af90615e05565b60405180910390fd5b6110c2338a612f78565b611101576040517f08c379a00000000000000000000000000000000000000000000000000000000081526004016110f890615e45565b60405180910390fd5b611219338a8a8a80806020026020016040519081016040528093929190818152602001838360200280828437600081840152601f19601f82011690508083019250505050505050898980806020026020016040519081016040528093929190818152602001838360200280828437600081840152601f19601f8201169050808301925050505050505088888080601f016020809104026020016040519081016040528093929190818152602001838380828437600081840152601f19601f8201169050808301925050505050505087878080601f016020809104026020016040519081016040528093929190818152602001838380828437600081840152601f19601f82011690508083019250505050505050612b3d565b505050505050505050565b606082829050858590501461126e576040517f08c379a000000000000000000000000000000000000000000000000000000000815260040161126590615d65565b60405180910390fd5b848490506040519080825280602002602001820160405280156112a05781602001602082028038833980820191505090505b50905060008090505b8585905081101561141f5760008484838181106112c257fe5b9050602002013590506112d4816119c5565b15611389578686838181106112e557fe5b90506020020160206112fa919081019061429f565b73ffffffffffffffffffffffffffffffffffffffff166002600083815260200190815260200160002060009054906101000a900473ffffffffffffffffffffffffffffffffffffffff1673ffffffffffffffffffffffffffffffffffffffff1614611366576000611369565b60015b60ff1683838151811061137857fe5b602002602001018181525050611413565b600a600082815260200190815260200160002060008888858181106113aa57fe5b90506020020160206113bf919081019061429f565b73ffffffffffffffffffffffffffffffffffffffff1673ffffffffffffffffffffffffffffffffffffffff1681526020019081526020016000205483838151811061140657fe5b6020026020010181815250505b508060010190506112a9565b50809050949350505050565b600360029054906101000a900460ff161561147b576040517f08c379a000000000000000000000000000000000000000000000000000000000815260040161147290615e05565b60405180910390fd5b863373ffffffffffffffffffffffffffffffffffffffff166006600083815260200190815260200160002060009054906101000a900473ffffffffffffffffffffffffffffffffffffffff1673ffffffffffffffffffffffffffffffffffffffff161461151d576040517f08c379a000000000000000000000000000000000000000000000000000000000815260040161151490615fc5565b60405180910390fd5b61153a60405161152c906158fa565b604051809103902033611e8a565b611579576040517f08c379a000000000000000000000000000000000000000000000000000000000815260040161157090615ee5565b60405180910390fd5b611582886126ec565b6115c1576040517f08c379a00000000000000000000000000000000000000000000000000000000081526004016115b890615ea5565b60405180910390fd5b60006001600760008b81526020019081526020016000205401905060008090505b8888905081101561179a5760008989838181106115fb57fe5b9050602002016020611610919081019061429f565b9050600073ffffffffffffffffffffffffffffffffffffffff168173ffffffffffffffffffffffffffffffffffffffff161415611682576040517f08c379a000000000000000000000000000000000000000000000000000000000815260040161167990615f85565b60405180910390fd5b60008284018c179050816002600083815260200190815260200160002060006101000a81548173ffffffffffffffffffffffffffffffffffffffff021916908373ffffffffffffffffffffffffffffffffffffffff1602179055506001600a60008e815260200190815260200160002060008473ffffffffffffffffffffffffffffffffffffffff1673ffffffffffffffffffffffffffffffffffffffff16815260200190815260200160002081905550808273ffffffffffffffffffffffffffffffffffffffff167f3c2ecef3eb8bfe571b65f95f1015446c317f8c8d975971d3a99acd4fcda98b053360018d8d8d8d604051611785969594939291906159b0565b60405180910390a350508060010190506115e2565b506117c4600760008b815260200190815260200160002054898990506129b890919063ffffffff16565b600760008b815260200190815260200160002081905550505050505050505050565b6000600854905090565b6000600360029054906101000a900460ff16905090565b600360029054906101000a900460ff1615611857576040517f08c379a000000000000000000000000000000000000000000000000000000000815260040161184e90615e05565b60405180910390fd5b611861338b612f78565b6118a0576040517f08c379a000000000000000000000000000000000000000000000000000000000815260040161189790615e45565b60405180910390fd5b6119b9338b8b8b8b80806020026020016040519081016040528093929190818152602001838360200280828437600081840152601f19601f820116905080830192505050505050508a8a80806020026020016040519081016040528093929190818152602001838360200280828437600081840152601f19601f8201169050808301925050505050505089898080601f016020809104026020016040519081016040528093929190818152602001838380828437600081840152601f19601f8201169050808301925050505050505088888080601f016020809104026020016040519081016040528093929190818152602001838380828437600081840152601f19601f82011690508083019250505050505050613129565b50505050505050505050565b60007f8000000000000000000000000000000000000000000000000000000000000000808316148015611a2d575060007fffffffffffffffffffffffffffffffffffffffffffffffffffffffffffffffff6fffffffffffffffffffffffffffffffff16831614155b9050919050565b600360019054906101000a900460ff1680611a535750611a526136fa565b5b80611a6b5750600360009054906101000a900460ff16155b611aaa576040517f08c379a0000000000000000000000000000000000000000000000000000000008152600401611aa190615e65565b60405180910390fd5b6000600360019054906101000a900460ff161590508015611afc576001600360016101000a81548160ff0219169083151502179055506001600360006101000a81548160ff0219169083151502179055505b816008819055508383600b9190611b14929190613ea1565b5060008090505b600b80549050811015611bc4576001600c6000600b8481548110611b3b57fe5b9060005260206000200160009054906101000a900473ffffffffffffffffffffffffffffffffffffffff1673ffffffffffffffffffffffffffffffffffffffff1673ffffffffffffffffffffffffffffffffffffffff16815260200190815260200160002060006101000a81548160ff0219169083151502179055508080600101915050611b1b565b50604051611bd1906158d0565b6040518091039020600f81905550604051611beb90615891565b6040518091039020601081905550611c066000801b33613711565b8015611c28576000600360016101000a81548160ff0219169083151502179055505b50505050565b60006002600083815260200190815260200160002060009054906101000a900473ffffffffffffffffffffffffffffffffffffffff169050919050565b600060807fffffffffffffffffffffffffffffffffffffffffffffffffffffffffffffffff6fffffffffffffffffffffffffffffffff16901b82169050919050565b60007f8000000000000000000000000000000000000000000000000000000000000000808316148015611d14575060007fffffffffffffffffffffffffffffffffffffffffffffffffffffffffffffffff6fffffffffffffffffffffffffffffffff168316145b9050919050565b600360029054906101000a900460ff1615611d6b576040517f08c379a0000000000000000000000000000000000000000000000000000000008152600401611d6290615e05565b60405180910390fd5b611e4f333389898980806020026020016040519081016040528093929190818152602001838360200280828437600081840152601f19601f82011690508083019250505050505050888880806020026020016040519081016040528093929190818152602001838360200280828437600081840152601f19601f8201169050808301925050505050505087878080601f016020809104026020016040519081016040528093929190818152602001838380828437600081840152601f19601f8201169050808301925050505050505060405180602001604052806000815250613129565b50505050505050565b6000611e82826004600086815260200190815260200160002060000161371f90919063ffffffff16565b905092915050565b6000611eb4826004600086815260200190815260200160002060000161373990919063ffffffff16565b905092915050565b600360029054906101000a900460ff1615611f0c576040517f08c379a0000000000000000000000000000000000000000000000000000000008152600401611f0390615e05565b60405180910390fd5b8073ffffffffffffffffffffffffffffffffffffffff163373ffffffffffffffffffffffffffffffffffffffff161415611f7b576040517f08c379a0000000000000000000000000000000000000000000000000000000008152600401611f7290615fa5565b60405180910390fd5b600c60008273ffffffffffffffffffffffffffffffffffffffff1673ffffffffffffffffffffffffffffffffffffffff16815260200190815260200160002060009054906101000a900460ff1615612067576000600e60003373ffffffffffffffffffffffffffffffffffffffff1673ffffffffffffffffffffffffffffffffffffffff16815260200190815260200160002060008373ffffffffffffffffffffffffffffffffffffffff1673ffffffffffffffffffffffffffffffffffffffff16815260200190815260200160002060006101000a81548160ff0219169083151502179055506120fd565b6001600d60003373ffffffffffffffffffffffffffffffffffffffff1673ffffffffffffffffffffffffffffffffffffffff16815260200190815260200160002060008373ffffffffffffffffffffffffffffffffffffffff1673ffffffffffffffffffffffffffffffffffffffff16815260200190815260200160002060006101000a81548160ff0219169083151502179055505b3373ffffffffffffffffffffffffffffffffffffffff168173ffffffffffffffffffffffffffffffffffffffff167ff4caeb2d6ca8932a215a353d0703c326ec2d81fc68170f320eb2ab49e9df61f960405160405180910390a350565b60007fffffffffffffffffffffffffffffffffffffffffffffffffffffffffffffffff6fffffffffffffffffffffffffffffffff1682169050919050565b6000801b81565b600060016121ac88613769565b858585604051600081526020016040526040516121cc9493929190615c5c565b6020604051602081039080840390855afa1580156121ee573d6000803e3d6000fd5b505050602060405103519050600073ffffffffffffffffffffffffffffffffffffffff168173ffffffffffffffffffffffffffffffffffffffff16141561226a576040517f08c379a000000000000000000000000000000000000000000000000000000000815260040161226190615f25565b60405180910390fd5b6000808273ffffffffffffffffffffffffffffffffffffffff1673ffffffffffffffffffffffffffffffffffffffff16815260200190815260200160002060008154809291906001019190505586146122f8576040517f08c379a00000000000000000000000000000000000000000000000000000000081526004016122ef90615f05565b60405180910390fd5b8442111561233b576040517f08c379a000000000000000000000000000000000000000000000000000000000815260040161233290615e25565b60405180910390fd5b9695505050505050565b6000807f80000000000000000000000000000000000000000000000000000000000000008316149050919050565b600360029054906101000a900460ff16156123c3576040517f08c379a00000000000000000000000000000000000000000000000000000000081526004016123ba90615e05565b60405180910390fd5b60006123d388888888888861219f565b90506123fb3333838b602001518c604001518760405180602001604052806000815250613129565b6124218182338b606001518c608001518760405180602001604052806000815250613129565b5050505050505050565b604051612437906158e5565b604051809103902081565b6000612462600460008481526020019081526020016000206000016137f4565b9050919050565b60066020528060005260406000206000915054906101000a900473ffffffffffffffffffffffffffffffffffffffff1681565b6040516124a8906158fa565b604051809103902081565b6124da60046000848152602001908152602001600020600201546124d5612a0d565b611e8a565b612519576040517f08c379a000000000000000000000000000000000000000000000000000000000815260040161251090615de5565b60405180910390fd5b6125238282612aa9565b5050565b60006125338383612f78565b905092915050565b6000600360029054906101000a900460ff161561258d576040517f08c379a000000000000000000000000000000000000000000000000000000000815260040161258490615e05565b60405180910390fd5b6125aa60405161259c906158fa565b604051809103902033611e8a565b6125e9576040517f08c379a00000000000000000000000000000000000000000000000000000000081526004016125e090615ee5565b60405180910390fd5b6080600560008154600101919050819055901b9050811561262a577f8000000000000000000000000000000000000000000000000000000000000000811790505b336006600083815260200190815260200160002060006101000a81548173ffffffffffffffffffffffffffffffffffffffff021916908373ffffffffffffffffffffffffffffffffffffffff16021790555080600073ffffffffffffffffffffffffffffffffffffffff16600073ffffffffffffffffffffffffffffffffffffffff167fd8f74616455d4f655e590ebc8258f54015e99d0357ae1e905b12d15576d037203360006040516126df929190615961565b60405180910390a4919050565b60007f8000000000000000000000000000000000000000000000000000000000000000808316149050919050565b600360029054906101000a900460ff161561276a576040517f08c379a000000000000000000000000000000000000000000000000000000000815260040161276190615e05565b60405180910390fd5b8073ffffffffffffffffffffffffffffffffffffffff163373ffffffffffffffffffffffffffffffffffffffff1614156127d9576040517f08c379a00000000000000000000000000000000000000000000000000000000081526004016127d090615fa5565b60405180910390fd5b600c60008273ffffffffffffffffffffffffffffffffffffffff1673ffffffffffffffffffffffffffffffffffffffff16815260200190815260200160002060009054906101000a900460ff16156128c5576001600e60003373ffffffffffffffffffffffffffffffffffffffff1673ffffffffffffffffffffffffffffffffffffffff16815260200190815260200160002060008373ffffffffffffffffffffffffffffffffffffffff1673ffffffffffffffffffffffffffffffffffffffff16815260200190815260200160002060006101000a81548160ff02191690831515021790555061295b565b6000600d60003373ffffffffffffffffffffffffffffffffffffffff1673ffffffffffffffffffffffffffffffffffffffff16815260200190815260200160002060008373ffffffffffffffffffffffffffffffffffffffff1673ffffffffffffffffffffffffffffffffffffffff16815260200190815260200160002060006101000a81548160ff0219169083151502179055505b3373ffffffffffffffffffffffffffffffffffffffff168173ffffffffffffffffffffffffffffffffffffffff167f50546e66e5f44d728365dc3908c63bc5cfeeab470722c1677e3073a6ac294aa160405160405180910390a350565b600080828401905083811015612a03576040517f08c379a00000000000000000000000000000000000000000000000000000000081526004016129fa90615d45565b60405180910390fd5b8091505092915050565b600033905090565b612a3d816004600085815260200190815260200160002060000161380990919063ffffffff16565b15612aa557612a4a612a0d565b73ffffffffffffffffffffffffffffffffffffffff168173ffffffffffffffffffffffffffffffffffffffff16837f2f8788117e7eff1d82e926ec794901d17c78024a50270940304540a733656f0d60405160405180910390a45b5050565b612ad1816004600085815260200190815260200160002060000161383990919063ffffffff16565b15612b3957612ade612a0d565b73ffffffffffffffffffffffffffffffffffffffff168173ffffffffffffffffffffffffffffffffffffffff16837ff6391f5c32d9c69d2a47ea670b442974b53935d1edc7fd64eb21e047a839171b60405160405180910390a45b5050565b600073ffffffffffffffffffffffffffffffffffffffff168573ffffffffffffffffffffffffffffffffffffffff161415612bad576040517f08c379a0000000000000000000000000000000000000000000000000000000008152600401612ba490615f65565b60405180910390fd5b612bca604051612bbc906158a6565b604051809103902087611e8a565b612c09576040517f08c379a0000000000000000000000000000000000000000000000000000000008152600401612c0090615dc5565b60405180910390fd5b612c198686600087878787613869565b60008090505b8451811015612f6f576000858281518110612c3657fe5b602002602001015190506000858381518110612c4e57fe5b60200260200101519050612c61826126ec565b15612e4c5760018114612ca9576040517f08c379a0000000000000000000000000000000000000000000000000000000008152600401612ca090615e85565b60405180910390fd5b8773ffffffffffffffffffffffffffffffffffffffff166002600084815260200190815260200160002060009054906101000a900473ffffffffffffffffffffffffffffffffffffffff1673ffffffffffffffffffffffffffffffffffffffff1614612d4a576040517f08c379a0000000000000000000000000000000000000000000000000000000008152600401612d4190615d85565b60405180910390fd5b600073ffffffffffffffffffffffffffffffffffffffff166002600084815260200190815260200160002060009054906101000a905050506000612d8d83611c6b565b9050612df282600a600084815260200190815260200160002060008c73ffffffffffffffffffffffffffffffffffffffff1673ffffffffffffffffffffffffffffffffffffffff168152602001908152602001600020546139d290919063ffffffff16565b600a600083815260200190815260200160002060008b73ffffffffffffffffffffffffffffffffffffffff1673ffffffffffffffffffffffffffffffffffffffff1681526020019081526020016000208190555050612f0d565b612e5581613a1c565b612eb881600a600085815260200190815260200160002060008b73ffffffffffffffffffffffffffffffffffffffff1673ffffffffffffffffffffffffffffffffffffffff168152602001908152602001600020546139d290919063ffffffff16565b600a600084815260200190815260200160002060008a73ffffffffffffffffffffffffffffffffffffffff1673ffffffffffffffffffffffffffffffffffffffff168152602001908152602001600020819055505b818873ffffffffffffffffffffffffffffffffffffffff167f445046c439885ef9a7a8d144cb29b5c18e69bdaec44380162337529362eba4448b848989604051612f5a9493929190615b12565b60405180910390a35050806001019050612c1f565b50505050505050565b60008273ffffffffffffffffffffffffffffffffffffffff168273ffffffffffffffffffffffffffffffffffffffff1614806130905750600c60008473ffffffffffffffffffffffffffffffffffffffff1673ffffffffffffffffffffffffffffffffffffffff16815260200190815260200160002060009054906101000a900460ff16801561308f5750600e60008373ffffffffffffffffffffffffffffffffffffffff1673ffffffffffffffffffffffffffffffffffffffff16815260200190815260200160002060008473ffffffffffffffffffffffffffffffffffffffff1673ffffffffffffffffffffffffffffffffffffffff16815260200190815260200160002060009054906101000a900460ff16155b5b806131215750600d60008373ffffffffffffffffffffffffffffffffffffffff1673ffffffffffffffffffffffffffffffffffffffff16815260200190815260200160002060008473ffffffffffffffffffffffffffffffffffffffff1673ffffffffffffffffffffffffffffffffffffffff16815260200190815260200160002060009054906101000a900460ff165b905092915050565b600073ffffffffffffffffffffffffffffffffffffffff168573ffffffffffffffffffffffffffffffffffffffff161415613199576040517f08c379a000000000000000000000000000000000000000000000000000000000815260040161319090615d25565b60405180910390fd5b82518451146131dd576040517f08c379a00000000000000000000000000000000000000000000000000000000081526004016131d490615da5565b60405180910390fd5b6131ec87878787878787613869565b60008090505b84518110156136e157600085828151811061320957fe5b60200260200101519050600085838151811061322157fe5b60200260200101519050613234826126ec565b156134f0576001811461327c576040517f08c379a000000000000000000000000000000000000000000000000000000000815260040161327390615e85565b60405180910390fd5b8873ffffffffffffffffffffffffffffffffffffffff166002600084815260200190815260200160002060009054906101000a900473ffffffffffffffffffffffffffffffffffffffff1673ffffffffffffffffffffffffffffffffffffffff161461331d576040517f08c379a000000000000000000000000000000000000000000000000000000000815260040161331490615d85565b60405180910390fd5b876002600084815260200190815260200160002060006101000a81548173ffffffffffffffffffffffffffffffffffffffff021916908373ffffffffffffffffffffffffffffffffffffffff160217905550600061337a83611c6b565b90506133df82600a600084815260200190815260200160002060008d73ffffffffffffffffffffffffffffffffffffffff1673ffffffffffffffffffffffffffffffffffffffff168152602001908152602001600020546139d290919063ffffffff16565b600a600083815260200190815260200160002060008c73ffffffffffffffffffffffffffffffffffffffff1673ffffffffffffffffffffffffffffffffffffffff1681526020019081526020016000208190555061349682600a600084815260200190815260200160002060008c73ffffffffffffffffffffffffffffffffffffffff1673ffffffffffffffffffffffffffffffffffffffff168152602001908152602001600020546129b890919063ffffffff16565b600a600083815260200190815260200160002060008b73ffffffffffffffffffffffffffffffffffffffff1673ffffffffffffffffffffffffffffffffffffffff1681526020019081526020016000208190555050613668565b6134f981613a1c565b61355c81600a600085815260200190815260200160002060008c73ffffffffffffffffffffffffffffffffffffffff1673ffffffffffffffffffffffffffffffffffffffff168152602001908152602001600020546139d290919063ffffffff16565b600a600084815260200190815260200160002060008b73ffffffffffffffffffffffffffffffffffffffff1673ffffffffffffffffffffffffffffffffffffffff1681526020019081526020016000208190555061361381600a600085815260200190815260200160002060008b73ffffffffffffffffffffffffffffffffffffffff1673ffffffffffffffffffffffffffffffffffffffff168152602001908152602001600020546129b890919063ffffffff16565b600a600084815260200190815260200160002060008a73ffffffffffffffffffffffffffffffffffffffff1673ffffffffffffffffffffffffffffffffffffffff168152602001908152602001600020819055505b818873ffffffffffffffffffffffffffffffffffffffff168a73ffffffffffffffffffffffffffffffffffffffff167fd8f74616455d4f655e590ebc8258f54015e99d0357ae1e905b12d15576d037208d858a8a6040516136cc9493929190615b12565b60405180910390a450508060010190506131f2565b506136f187878787878787613a6d565b50505050505050565b6000803090506000813b9050600081149250505090565b61371b8282612a15565b5050565b600061372e8360000183613c3a565b60001c905092915050565b6000613761836000018373ffffffffffffffffffffffffffffffffffffffff1660001b613ca7565b905092915050565b600060015460405161377a906158bb565b6040518091039020836000015184602001518560400151866060015187608001516040516020016137b096959493929190615bdf565b604051602081830303815290604052805190602001206040516020016137d792919061590f565b604051602081830303815290604052805190602001209050919050565b600061380282600001613cca565b9050919050565b6000613831836000018373ffffffffffffffffffffffffffffffffffffffff1660001b613cdb565b905092915050565b6000613861836000018373ffffffffffffffffffffffffffffffffffffffff1660001b613d4b565b905092915050565b6000600960009054906101000a900473ffffffffffffffffffffffffffffffffffffffff1673ffffffffffffffffffffffffffffffffffffffff1663aabbb8ca88600f546040518363ffffffff1660e01b81526004016138ca929190615ae9565b60206040518083038186803b1580156138e257600080fd5b505afa1580156138f6573d6000803e3d6000fd5b505050506040513d601f19601f8201168201806040525061391a91908101906142c8565b9050600073ffffffffffffffffffffffffffffffffffffffff168173ffffffffffffffffffffffffffffffffffffffff16146139c8578073ffffffffffffffffffffffffffffffffffffffff166376c6f1b9898989898989896040518863ffffffff1660e01b81526004016139959796959493929190615a5e565b600060405180830381600087803b1580156139af57600080fd5b505af11580156139c3573d6000803e3d6000fd5b505050505b5050505050505050565b6000613a1483836040518060400160405280601e81526020017f536166654d6174683a207375627472616374696f6e206f766572666c6f770000815250613e33565b905092915050565b60006008548281613a2957fe5b0614613a6a576040517f08c379a0000000000000000000000000000000000000000000000000000000008152600401613a6190615fe5565b60405180910390fd5b50565b6000600960009054906101000a900473ffffffffffffffffffffffffffffffffffffffff1673ffffffffffffffffffffffffffffffffffffffff1663aabbb8ca876010546040518363ffffffff1660e01b8152600401613ace929190615ae9565b60206040518083038186803b158015613ae657600080fd5b505afa158015613afa573d6000803e3d6000fd5b505050506040513d601f19601f82011682018060405250613b1e91908101906142c8565b9050600073ffffffffffffffffffffffffffffffffffffffff168173ffffffffffffffffffffffffffffffffffffffff1614613bd0578073ffffffffffffffffffffffffffffffffffffffff16635b6ae7ef898989898989896040518863ffffffff1660e01b8152600401613b999796959493929190615a5e565b600060405180830381600087803b158015613bb357600080fd5b505af1158015613bc7573d6000803e3d6000fd5b50505050613c30565b613bef8673ffffffffffffffffffffffffffffffffffffffff16613e8e565b15613c2f576040517f08c379a0000000000000000000000000000000000000000000000000000000008152600401613c2690615ec5565b60405180910390fd5b5b5050505050505050565b600081836000018054905011613c85576040517f08c379a0000000000000000000000000000000000000000000000000000000008152600401613c7c90615ce5565b60405180910390fd5b826000018281548110613c9457fe5b9060005260206000200154905092915050565b600080836001016000848152602001908152602001600020541415905092915050565b600081600001805490509050919050565b6000613ce78383613ca7565b613d40578260000182908060018154018082558091505060019003906000526020600020016000909190919091505582600001805490508360010160008481526020019081526020016000208190555060019050613d45565b600090505b92915050565b60008083600101600084815260200190815260200160002054905060008114613e275760006001820390506000600186600001805490500390506000866000018281548110613d9657fe5b9060005260206000200154905080876000018481548110613db357fe5b9060005260206000200181905550600183018760010160008381526020019081526020016000208190555086600001805480613deb57fe5b60019003818190600052602060002001600090559055866001016000878152602001908152602001600020600090556001945050505050613e2d565b60009150505b92915050565b6000838311158290613e7b576040517f08c379a0000000000000000000000000000000000000000000000000000000008152600401613e729190615cc3565b60405180910390fd5b5060008385039050809150509392505050565b600080823b905060008111915050919050565b828054828255906000526020600020908101928215613f30579160200282015b82811115613f2f57823573ffffffffffffffffffffffffffffffffffffffff168260006101000a81548173ffffffffffffffffffffffffffffffffffffffff021916908373ffffffffffffffffffffffffffffffffffffffff16021790555091602001919060010190613ec1565b5b509050613f3d9190613f41565b5090565b613f8191905b80821115613f7d57600081816101000a81549073ffffffffffffffffffffffffffffffffffffffff021916905550600101613f47565b5090565b90565b600081359050613f93816162bf565b92915050565b600081519050613fa8816162bf565b92915050565b60008083601f840112613fc057600080fd5b8235905067ffffffffffffffff811115613fd957600080fd5b602083019150836020820283011115613ff157600080fd5b9250929050565b60008083601f84011261400a57600080fd5b8235905067ffffffffffffffff81111561402357600080fd5b60208301915083602082028301111561403b57600080fd5b9250929050565b600082601f83011261405357600080fd5b81356140666140618261606d565b616040565b9150818183526020840193506020810190508385602084028201111561408b57600080fd5b60005b838110156140bb57816140a18882614275565b84526020840193506020830192505060018101905061408e565b5050505092915050565b6000813590506140d4816162d6565b92915050565b6000813590506140e9816162ed565b92915050565b60008083601f84011261410157600080fd5b8235905067ffffffffffffffff81111561411a57600080fd5b60208301915083600182028301111561413257600080fd5b9250929050565b600082601f83011261414a57600080fd5b813561415d61415882616095565b616040565b9150808252602083016020830185838301111561417957600080fd5b614184838284616262565b50505092915050565b600060a0828403121561419f57600080fd5b6141a960a0616040565b905060006141b984828501613f84565b600083015250602082013567ffffffffffffffff8111156141d957600080fd5b6141e584828501614042565b602083015250604082013567ffffffffffffffff81111561420557600080fd5b61421184828501614042565b604083015250606082013567ffffffffffffffff81111561423157600080fd5b61423d84828501614042565b606083015250608082013567ffffffffffffffff81111561425d57600080fd5b61426984828501614042565b60808301525092915050565b60008135905061428481616304565b92915050565b6000813590506142998161631b565b92915050565b6000602082840312156142b157600080fd5b60006142bf84828501613f84565b91505092915050565b6000602082840312156142da57600080fd5b60006142e884828501613f99565b91505092915050565b6000806040838503121561430457600080fd5b600061431285828601613f84565b925050602061432385828601613f84565b9150509250929050565b60008060008060008060008060008060c08b8d03121561434c57600080fd5b600061435a8d828e01613f84565b9a5050602061436b8d828e01613f84565b99505060408b013567ffffffffffffffff81111561438857600080fd5b6143948d828e01613ff8565b985098505060608b013567ffffffffffffffff8111156143b357600080fd5b6143bf8d828e01613ff8565b965096505060808b013567ffffffffffffffff8111156143de57600080fd5b6143ea8d828e016140ef565b945094505060a08b013567ffffffffffffffff81111561440957600080fd5b6144158d828e016140ef565b92509250509295989b9194979a5092959850565b60008060008060008060006080888a03121561444457600080fd5b60006144528a828b01613f84565b975050602088013567ffffffffffffffff81111561446f57600080fd5b61447b8a828b01613ff8565b9650965050604088013567ffffffffffffffff81111561449a57600080fd5b6144a68a828b01613ff8565b9450945050606088013567ffffffffffffffff8111156144c557600080fd5b6144d18a828b016140ef565b925092505092959891949750929550565b600080600080600080600080600060a08a8c03121561450057600080fd5b600061450e8c828d01613f84565b99505060208a013567ffffffffffffffff81111561452b57600080fd5b6145378c828d01613ff8565b985098505060408a013567ffffffffffffffff81111561455657600080fd5b6145628c828d01613ff8565b965096505060608a013567ffffffffffffffff81111561458157600080fd5b61458d8c828d016140ef565b945094505060808a013567ffffffffffffffff8111156145ac57600080fd5b6145b88c828d016140ef565b92509250509295985092959850929598565b600080604083850312156145dd57600080fd5b60006145eb85828601613f84565b92505060206145fc85828601614275565b9150509250929050565b6000806000806040858703121561461c57600080fd5b600085013567ffffffffffffffff81111561463657600080fd5b61464287828801613fae565b9450945050602085013567ffffffffffffffff81111561466157600080fd5b61466d87828801613ff8565b925092505092959194509250565b60008060006040848603121561469057600080fd5b600084013567ffffffffffffffff8111156146aa57600080fd5b6146b686828701613fae565b935093505060206146c986828701614275565b9150509250925092565b600080600080600080606087890312156146ec57600080fd5b600087013567ffffffffffffffff81111561470657600080fd5b61471289828a01613ff8565b9650965050602087013567ffffffffffffffff81111561473157600080fd5b61473d89828a01613ff8565b9450945050604087013567ffffffffffffffff81111561475c57600080fd5b61476889828a016140ef565b92509250509295509295509295565b60006020828403121561478957600080fd5b6000614797848285016140c5565b91505092915050565b6000602082840312156147b257600080fd5b60006147c0848285016140da565b91505092915050565b600080604083850312156147dc57600080fd5b60006147ea858286016140da565b92505060206147fb85828601613f84565b9150509250929050565b6000806040838503121561481857600080fd5b6000614826858286016140da565b925050602061483785828601614275565b9150509250929050565b60008060008060008060c0878903121561485a57600080fd5b600087013567ffffffffffffffff81111561487457600080fd5b61488089828a0161418d565b965050602061489189828a01614275565b95505060406148a289828a01614275565b94505060606148b389828a0161428a565b93505060806148c489828a016140da565b92505060a06148d589828a016140da565b9150509295509295509295565b600080600080600080600060e0888a0312156148fd57600080fd5b600088013567ffffffffffffffff81111561491757600080fd5b6149238a828b0161418d565b97505060206149348a828b01614275565b96505060406149458a828b01614275565b95505060606149568a828b0161428a565b94505060806149678a828b016140da565b93505060a06149788a828b016140da565b92505060c088013567ffffffffffffffff81111561499557600080fd5b6149a18a828b01614139565b91505092959891949750929550565b6000602082840312156149c257600080fd5b60006149d084828501614275565b91505092915050565b600080600080600080600080600060a08a8c0312156149f757600080fd5b6000614a058c828d01614275565b99505060208a013567ffffffffffffffff811115614a2257600080fd5b614a2e8c828d01613fae565b985098505060408a013567ffffffffffffffff811115614a4d57600080fd5b614a598c828d01613ff8565b965096505060608a013567ffffffffffffffff811115614a7857600080fd5b614a848c828d016140ef565b945094505060808a013567ffffffffffffffff811115614aa357600080fd5b614aaf8c828d016140ef565b92509250509295985092959850929598565b60008060008060008060006080888a031215614adc57600080fd5b6000614aea8a828b01614275565b975050602088013567ffffffffffffffff811115614b0757600080fd5b614b138a828b01613fae565b9650965050604088013567ffffffffffffffff811115614b3257600080fd5b614b3e8a828b016140ef565b9450945050606088013567ffffffffffffffff811115614b5d57600080fd5b614b698a828b016140ef565b925092505092959891949750929550565b6000614b868383614bb9565b60208301905092915050565b6000614b9e8383615864565b60208301905092915050565b614bb381616208565b82525050565b614bc2816161a9565b82525050565b614bd1816161a9565b82525050565b6000614be2826160f1565b614bec818561615a565b9350614bf7836160c1565b8060005b83811015614c28578151614c0f8882614b7a565b9750614c1a83616133565b925050600181019050614bfb565b5085935050505092915050565b6000614c4082616107565b614c4a818561616b565b9350614c55836160e1565b8060005b83811015614c86578151614c6d8882614b92565b9750614c788361614d565b925050600181019050614c59565b5085935050505092915050565b6000614c9e826160fc565b614ca8818561616b565b9350614cb3836160d1565b8060005b83811015614ce4578151614ccb8882614b92565b9750614cd683616140565b925050600181019050614cb7565b5085935050505092915050565b614cfa816161bb565b82525050565b614d09816161c7565b82525050565b614d20614d1b826161c7565b6162a4565b82525050565b6000614d32838561617c565b9350614d3f838584616262565b614d48836162ae565b840190509392505050565b6000614d5e82616112565b614d68818561617c565b9350614d78818560208601616271565b614d81816162ae565b840191505092915050565b614d958161621a565b82525050565b614da48161622c565b82525050565b6000614db582616128565b614dbf818561618d565b9350614dcf818560208601616271565b614dd8816162ae565b840191505092915050565b6000614dee8261611d565b614df8818561618d565b9350614e08818560208601616271565b614e11816162ae565b840191505092915050565b6000614e2960228361618d565b91507f456e756d657261626c655365743a20696e646578206f7574206f6620626f756e60008301527f64730000000000000000000000000000000000000000000000000000000000006020830152604082019050919050565b6000614e8f602f8361618d565b91507f416363657373436f6e74726f6c3a2073656e646572206d75737420626520616e60008301527f2061646d696e20746f206772616e7400000000000000000000000000000000006020830152604082019050919050565b6000614ef5601f8361618d565b91507f43414e4e4f545f5452414e534645525f544f5f414444524553535f5a45524f006000830152602082019050919050565b6000614f35601b8361618d565b91507f536166654d6174683a206164646974696f6e206f766572666c6f7700000000006000830152602082019050919050565b6000614f75601e8361618d565b91507f4f574e4552535f414e445f4944535f4c454e4754485f4d49534d4154434800006000830152602082019050919050565b6000614fb5600f8361619e565b91507f49546f6b656e526563697069656e7400000000000000000000000000000000006000830152600f82019050919050565b6000614ff5600b8361619e565b91507f4255524e45525f524f4c450000000000000000000000000000000000000000006000830152600b82019050919050565b6000615035601d8361618d565b91507f4e46545f4e4f545f4f574e45445f42595f46524f4d5f414444524553530000006000830152602082019050919050565b6000615075601e8361618d565b91507f4944535f414e445f56414c5545535f4c454e4754485f4d49534d4154434800006000830152602082019050919050565b60006150b560128361618d565b91507f43414c4c45525f43414e4e4f545f4255524e00000000000000000000000000006000830152602082019050919050565b60006150f560308361618d565b91507f416363657373436f6e74726f6c3a2073656e646572206d75737420626520616e60008301527f2061646d696e20746f207265766f6b65000000000000000000000000000000006020830152604082019050919050565b600061515b60108361618d565b91507f5061757361626c653a20706175736564000000000000000000000000000000006000830152602082019050919050565b600061519b60118361618d565b91507f5349474e41545552455f455850495245440000000000000000000000000000006000830152602082019050919050565b60006151db60168361618d565b91507f494e53554646494349454e545f414c4c4f57414e4345000000000000000000006000830152602082019050919050565b600061521b602e8361618d565b91507f496e697469616c697a61626c653a20636f6e747261637420697320616c72656160008301527f647920696e697469616c697a65640000000000000000000000000000000000006020830152604082019050919050565b6000615281601c8361618d565b91507f414d4f554e545f455155414c5f544f5f4f4e455f5245515549524544000000006000830152602082019050919050565b60006152c1602d8361618d565b91507f54524945445f544f5f4d494e545f4e4f4e5f46554e4749424c455f464f525f4660008301527f554e4749424c455f544f4b454e000000000000000000000000000000000000006020830152604082019050919050565b600061532760808361619e565b91507f5377617028616464726573732073656e6465722c75696e743235365b5d20736560008301527f6e646572546f6b656e4964732c75696e743235365b5d2073656e646572546f6b60208301527f656e416d6f756e74732c75696e743235365b5d207369676e6572546f6b656e4960408301527f64732c75696e743235365b5d207369676e6572546f6b656e416d6f756e7473296060830152608082019050919050565b60006153d9600c8361619e565b91507f49546f6b656e53656e64657200000000000000000000000000000000000000006000830152600c82019050919050565b600061541960438361619e565b91507f454950373132446f6d61696e28737472696e67206e616d652c75696e7432353660008301527f20636861696e49642c6164647265737320766572696679696e67436f6e74726160208301527f63742900000000000000000000000000000000000000000000000000000000006040830152604382019050919050565b60006154a560248361618d565b91507f524543495049454e545f4e4f545f494d504c454d454e54494e475f494e54455260008301527f46414345000000000000000000000000000000000000000000000000000000006020830152604082019050919050565b600061550b601c8361618d565b91507f43414c4c45525f43414e4e4f545f4d494e545f4f525f435245415445000000006000830152602082019050919050565b600061554b600b8361619e565b91507f4d494e5445525f524f4c450000000000000000000000000000000000000000006000830152600b82019050919050565b600061558b600d8361618d565b91507f494e56414c49445f4e4f4e4345000000000000000000000000000000000000006000830152602082019050919050565b60006155cb600e8361618d565b91507f494e56414c49445f5349474e45520000000000000000000000000000000000006000830152602082019050919050565b600061560b602d8361618d565b91507f54524945445f544f5f4d494e545f46554e4749424c455f464f525f4e4f4e5f4660008301527f554e4749424c455f544f4b454e000000000000000000000000000000000000006020830152604082019050919050565b600061567160008361617c565b9150600082019050919050565b600061568b601d8361618d565b91507f43414e4e4f545f4255524e5f46524f4d5f414444524553535f5a45524f0000006000830152602082019050919050565b60006156cb601c8361618d565b91507f43414e4e4f545f4d494e545f464f525f414444524553535f5a45524f000000006000830152602082019050919050565b600061570b601b8361618d565b91507f53454e4445525f414c52454144595f4849535f4f50455241544f5200000000006000830152602082019050919050565b600061574b600b8361618d565b91507f4e4f545f43524541544f520000000000000000000000000000000000000000006000830152602082019050919050565b600061578b601b8361618d565b91507f4e4f545f4d554c5449504c455f4f465f4752414e554c415249545900000000006000830152602082019050919050565b60006157cb60088361619e565b91507f19010000000000000000000000000000000000000000000000000000000000006000830152600882019050919050565b600061580b602f8361618d565b91507f416363657373436f6e74726f6c3a2063616e206f6e6c792072656e6f756e636560008301527f20726f6c657320666f722073656c6600000000000000000000000000000000006020830152604082019050919050565b61586d816161f1565b82525050565b61587c816161f1565b82525050565b61588b816161fb565b82525050565b600061589c82614fa8565b9150819050919050565b60006158b182614fe8565b9150819050919050565b60006158c68261531a565b9150819050919050565b60006158db826153cc565b9150819050919050565b60006158f08261540c565b9150819050919050565b60006159058261553e565b9150819050919050565b600061591a826157be565b91506159268285614d0f565b6020820191506159368284614d0f565b6020820191508190509392505050565b600060208201905061595b6000830184614bc8565b92915050565b60006080820190506159766000830185614baa565b6159836020830184614d8c565b818103604083015261599481615664565b905081810360608301526159a781615664565b90509392505050565b60006080820190506159c56000830189614baa565b6159d26020830188614d9b565b81810360408301526159e5818688614d26565b905081810360608301526159fa818486614d26565b9050979650505050505050565b6000608082019050615a1c6000830189614baa565b615a296020830188615873565b8181036040830152615a3c818688614d26565b90508181036060830152615a51818486614d26565b9050979650505050505050565b600060e082019050615a73600083018a614bc8565b615a806020830189614bc8565b615a8d6040830188614bc8565b8181036060830152615a9f8187614c35565b90508181036080830152615ab38186614c35565b905081810360a0830152615ac78185614d53565b905081810360c0830152615adb8184614d53565b905098975050505050505050565b6000604082019050615afe6000830185614bc8565b615b0b6020830184614d00565b9392505050565b6000608082019050615b276000830187614bc8565b615b346020830186615873565b8181036040830152615b468185614d53565b90508181036060830152615b5a8184614d53565b905095945050505050565b60006020820190508181036000830152615b7f8184614bd7565b905092915050565b60006020820190508181036000830152615ba18184614c35565b905092915050565b6000602082019050615bbe6000830184614cf1565b92915050565b6000602082019050615bd96000830184614d00565b92915050565b600060c082019050615bf46000830189614d00565b615c016020830188614bc8565b8181036040830152615c138187614c93565b90508181036060830152615c278186614c93565b90508181036080830152615c3b8185614c93565b905081810360a0830152615c4f8184614c93565b9050979650505050505050565b6000608082019050615c716000830187614d00565b615c7e6020830186615882565b615c8b6040830185614d00565b615c986060830184614d00565b95945050505050565b60006020820190508181036000830152615cbb8184614de3565b905092915050565b60006020820190508181036000830152615cdd8184614daa565b905092915050565b60006020820190508181036000830152615cfe81614e1c565b9050919050565b60006020820190508181036000830152615d1e81614e82565b9050919050565b60006020820190508181036000830152615d3e81614ee8565b9050919050565b60006020820190508181036000830152615d5e81614f28565b9050919050565b60006020820190508181036000830152615d7e81614f68565b9050919050565b60006020820190508181036000830152615d9e81615028565b9050919050565b60006020820190508181036000830152615dbe81615068565b9050919050565b60006020820190508181036000830152615dde816150a8565b9050919050565b60006020820190508181036000830152615dfe816150e8565b9050919050565b60006020820190508181036000830152615e1e8161514e565b9050919050565b60006020820190508181036000830152615e3e8161518e565b9050919050565b60006020820190508181036000830152615e5e816151ce565b9050919050565b60006020820190508181036000830152615e7e8161520e565b9050919050565b60006020820190508181036000830152615e9e81615274565b9050919050565b60006020820190508181036000830152615ebe816152b4565b9050919050565b60006020820190508181036000830152615ede81615498565b9050919050565b60006020820190508181036000830152615efe816154fe565b9050919050565b60006020820190508181036000830152615f1e8161557e565b9050919050565b60006020820190508181036000830152615f3e816155be565b9050919050565b60006020820190508181036000830152615f5e816155fe565b9050919050565b60006020820190508181036000830152615f7e8161567e565b9050919050565b60006020820190508181036000830152615f9e816156be565b9050919050565b60006020820190508181036000830152615fbe816156fe565b9050919050565b60006020820190508181036000830152615fde8161573e565b9050919050565b60006020820190508181036000830152615ffe8161577e565b9050919050565b6000602082019050818103600083015261601e816157fe565b9050919050565b600060208201905061603a6000830184615873565b92915050565b6000604051905081810181811067ffffffffffffffff8211171561606357600080fd5b8060405250919050565b600067ffffffffffffffff82111561608457600080fd5b602082029050602081019050919050565b600067ffffffffffffffff8211156160ac57600080fd5b601f19601f8301169050602081019050919050565b6000819050602082019050919050565b6000819050602082019050919050565b6000819050602082019050919050565b600081519050919050565b600081519050919050565b600081519050919050565b600081519050919050565b600081519050919050565b600081519050919050565b6000602082019050919050565b6000602082019050919050565b6000602082019050919050565b600082825260208201905092915050565b600082825260208201905092915050565b600082825260208201905092915050565b600082825260208201905092915050565b600081905092915050565b60006161b4826161d1565b9050919050565b60008115159050919050565b6000819050919050565b600073ffffffffffffffffffffffffffffffffffffffff82169050919050565b6000819050919050565b600060ff82169050919050565b60006162138261623e565b9050919050565b6000616225826161f1565b9050919050565b6000616237826161f1565b9050919050565b600061624982616250565b9050919050565b600061625b826161d1565b9050919050565b82818337600083830152505050565b60005b8381101561628f578082015181840152602081019050616274565b8381111561629e576000848401525b50505050565b6000819050919050565b6000601f19601f8301169050919050565b6162c8816161a9565b81146162d357600080fd5b50565b6162df816161bb565b81146162ea57600080fd5b50565b6162f6816161c7565b811461630157600080fd5b50565b61630d816161f1565b811461631857600080fd5b50565b616324816161fb565b811461632f57600080fd5b5056fea264697066735822122073be0abc17ed7604c41fa3d1087aa5d71d530a2cdcc15f46820077fb4735833b64736f6c63430006020033",
  "source": "// SPDX-License-Identifier: UNLICENSED\r\npragma solidity ^0.6.0;\r\npragma experimental ABIEncoderV2;\r\n\r\nimport \"@openzeppelin/contracts/access/AccessControl.sol\";\r\nimport \"@openzeppelin/contracts/math/SafeMath.sol\";\r\nimport \"@openzeppelin/contracts/utils/Address.sol\";\r\nimport \"@openzeppelin/contracts/utils/Pausable.sol\";\r\nimport \"@openzeppelin/contracts/proxy/Initializable.sol\";\r\nimport \"@openzeppelin/contracts/introspection/IERC1820Registry.sol\";\r\nimport \"./Interfaces/IToken.sol\";\r\nimport \"./Interfaces/ITokenRecipient.sol\";\r\nimport \"./Interfaces/ITokenSender.sol\";\r\nimport \"./MixinNF.sol\";\r\nimport \"./SwapVerifier.sol\";\r\n\r\ncontract Token is IToken, SwapVerifier, MixinNF, Initializable, Pausable, AccessControl {\r\n    using Address for address;\r\n    using SafeMath for uint256;\r\n\r\n    /// token nonce\r\n    uint256 internal nonce;\r\n\r\n    /// mapping from token to creator\r\n    mapping(uint256 => address) public creators;\r\n\r\n    /// mapping from token to max index\r\n    mapping(uint256 => uint256) public maxIndex;\r\n\r\n    /// granularity for fungible tokens.\r\n    uint256 internal granNF;\r\n\r\n    IERC1820Registry private erc1820;\r\n\r\n    /// balance\r\n    mapping(uint256 => mapping(address => uint256)) internal balances;\r\n\r\n    /// operators\r\n    address[] internal arrayDefaultOperators;\r\n    mapping(address => bool) internal isDefaultOperators;\r\n    mapping(address => mapping(address => bool)) internal operators;\r\n    mapping(address => mapping(address => bool)) internal revokedDefaultOperators;\r\n\r\n    bytes32 private TOKENS_SENDER_INTERFACE_HASH;\r\n    bytes32 private TOKENS_RECIPIENT_INTERFACE_HASH;\r\n\r\n    bytes32 public constant MINTER_ROLE = keccak256(\"MINTER_ROLE\");\r\n    bytes32 public constant BURNER_ROLE = keccak256(\"BURNER_ROLE\");\r\n\r\n    /// asserts token is owned by msg.sender\r\n    modifier creatorOnly(uint256 _id) {\r\n        require(creators[_id] == msg.sender, \"NOT_CREATOR\");\r\n        _;\r\n    }\r\n\r\n    /// INIT\r\n\r\n    function initialize(address[] calldata _defaultOperators, uint256 _granNF) external initializer {\r\n        granNF = _granNF;\r\n        arrayDefaultOperators = _defaultOperators;\r\n\r\n        for (uint256 i = 0; i < arrayDefaultOperators.length; i++) {\r\n            isDefaultOperators[arrayDefaultOperators[i]] = true;\r\n        }\r\n\r\n        TOKENS_SENDER_INTERFACE_HASH = keccak256(\"ITokenSender\");\r\n        TOKENS_RECIPIENT_INTERFACE_HASH = keccak256(\"ITokenRecipient\");\r\n\r\n        _setupRole(DEFAULT_ADMIN_ROLE, msg.sender);\r\n    }\r\n\r\n    /// OTHER\r\n\r\n    function _checkGranularity(uint256 _amount) internal view {\r\n        require(_amount % granNF == 0, \"NOT_MULTIPLE_OF_GRANULARITY\");\r\n    }\r\n\r\n    function granularity() external view returns (uint256) {\r\n        return granNF;\r\n    }\r\n\r\n    function defaultOperators() external view returns (address[] memory) {\r\n        return arrayDefaultOperators;\r\n    }\r\n\r\n    /// CREATE\r\n\r\n    /// @dev creates a new token\r\n    /// @param _isNF is non-fungible token\r\n    /// @return type_ of token (a unique identifier)\r\n    function create(bool _isNF) external whenNotPaused returns (uint256 type_) {\r\n        require(hasRole(MINTER_ROLE, msg.sender), \"CALLER_CANNOT_MINT_OR_CREATE\");\r\n        // Store the type in the upper 128 bits\r\n        type_ = (++nonce << 128);\r\n\r\n        // Set a flag if this is an NFI.\r\n        if (_isNF) {\r\n            type_ = type_ | TYPE_NF_BIT;\r\n        }\r\n\r\n        // This will allow restricted access to creators.\r\n        creators[type_] = msg.sender;\r\n\r\n        // emit a Sent event with Create semantic to help with discovery.\r\n        emit Sent(msg.sender, address(0), address(0), type_, 0, \"\", \"\");\r\n    }\r\n\r\n    /// MINT\r\n\r\n    /// @dev mints fungible tokens\r\n    /// @param _id token type\r\n    /// @param _to beneficiaries of minted tokens\r\n    /// @param _amounts amounts of minted tokens\r\n    /// @param _data    Additional data with no specified format\r\n    /// @param _operatorData Additional data with no specified format\r\n    function mintFungible(\r\n        uint256 _id,\r\n        address[] calldata _to,\r\n        uint256[] calldata _amounts,\r\n        bytes calldata _data,\r\n        bytes calldata _operatorData\r\n    ) external whenNotPaused creatorOnly(_id) {\r\n        require(hasRole(MINTER_ROLE, msg.sender), \"CALLER_CANNOT_MINT_OR_CREATE\");\r\n        require(isFungible(_id), \"TRIED_TO_MINT_FUNGIBLE_FOR_NON_FUNGIBLE_TOKEN\");\r\n        // HERE need to check contract caller\r\n\r\n        // mint tokens\r\n        for (uint256 i = 0; i < _to.length; ++i) {\r\n            // cache to reduce number of loads\r\n            address to = _to[i];\r\n            require(to != address(0), \"CANNOT_MINT_FOR_ADDRESS_ZERO\");\r\n            uint256 amount = _amounts[i];\r\n\r\n            // Grant the items to the caller\r\n            balances[_id][to] = amount.add(balances[_id][to]);\r\n\r\n            // Emit the Sent/Mint event.\r\n            // the 0x0 source address implies a mint\r\n            emit Minted(msg.sender, to, _id, amount, _data, _operatorData);\r\n        }\r\n    }\r\n\r\n    /// @dev mints a non-fungible token\r\n    /// @param _type token type\r\n    /// @param _to beneficiaries of minted tokens\r\n    /// @param _data    Additional data with no specified format\r\n    /// @param _operatorData Additional data with no specified format\r\n    function mintNonFungible(\r\n        uint256 _type,\r\n        address[] calldata _to,\r\n        bytes calldata _data,\r\n        bytes calldata _operatorData\r\n    ) external whenNotPaused creatorOnly(_type) {\r\n        require(hasRole(MINTER_ROLE, msg.sender), \"CALLER_CANNOT_MINT_OR_CREATE\");\r\n        // No need to check this is a nf type rather than an id since\r\n        // creatorOnly() will only let a type pass through.\r\n        require(isNonFungible(_type), \"TRIED_TO_MINT_NON_FUNGIBLE_FOR_FUNGIBLE_TOKEN\");\r\n\r\n        // Index are 1-based.\r\n        uint256 index = maxIndex[_type] + 1;\r\n\r\n        for (uint256 i = 0; i < _to.length; ++i) {\r\n            // cache to reduce number of loads\r\n            address to = _to[i];\r\n            require(to != address(0), \"CANNOT_MINT_FOR_ADDRESS_ZERO\");\r\n            uint256 id = _type | (index + i);\r\n\r\n            nfOwners[id] = to;\r\n\r\n            // NFT base type balance\r\n            balances[_type][to] = 1;\r\n\r\n            emit Minted(msg.sender, to, id, 1, _data, _operatorData);\r\n        }\r\n\r\n        // record the `maxIndex` of this nft type\r\n        // this allows us to mint more nft's of this type in a subsequent call.\r\n        maxIndex[_type] = _to.length.add(maxIndex[_type]);\r\n    }\r\n\r\n    /// SEND\r\n\r\n    /// @notice Send multiple types of Tokens in one transfer from msg.sender.\r\n    /// @param _to      Target addresses\r\n    /// @param _ids     IDs of each token type\r\n    /// @param _amounts  Transfer amounts per token type\r\n    /// @param _data    Additional data with no specified format\r\n    function send(\r\n        address _to,\r\n        uint256[] calldata _ids,\r\n        uint256[] calldata _amounts,\r\n        bytes calldata _data\r\n    ) external whenNotPaused {\r\n        _send(msg.sender, msg.sender, _to, _ids, _amounts, _data, \"\");\r\n    }\r\n\r\n    /// @notice Send multiple types of Tokens in one transfer from the _from address.\r\n    /// @param _from    Source addresses\r\n    /// @param _to      Target addresses\r\n    /// @param _ids     IDs of each token type\r\n    /// @param _amounts  Transfer amounts per token type\r\n    /// @param _data    Additional data with no specified format\r\n    /// @param _operatorData Additional data with no specified format\r\n    function operatorSend(\r\n        address _from,\r\n        address _to,\r\n        uint256[] calldata _ids,\r\n        uint256[] calldata _amounts,\r\n        bytes calldata _data,\r\n        bytes calldata _operatorData\r\n    ) external whenNotPaused {\r\n        require(_isOperatorFor(msg.sender, _from), \"INSUFFICIENT_ALLOWANCE\");\r\n        _send(msg.sender, _from, _to, _ids, _amounts, _data, _operatorData);\r\n    }\r\n\r\n    /// @notice Actually make the transfers.\r\n    /// @param _operator msg.sender\r\n    /// @param _from    Source addresses\r\n    /// @param _to      Target addresses\r\n    /// @param _ids     IDs of each token type\r\n    /// @param _amounts  Transfer amounts per token type\r\n    /// @param _data    Additional data with no specified format\r\n    /// @param _operatorData Additional data with no specified format\r\n    function _send(\r\n        address _operator,\r\n        address _from,\r\n        address _to,\r\n        uint256[] memory _ids,\r\n        uint256[] memory _amounts,\r\n        bytes memory _data,\r\n        bytes memory _operatorData\r\n    ) internal {\r\n        // sanity checks\r\n        require(_to != address(0x0), \"CANNOT_TRANSFER_TO_ADDRESS_ZERO\");\r\n        require(_ids.length == _amounts.length, \"IDS_AND_VALUES_LENGTH_MISMATCH\");\r\n\r\n        callSender(_operator, _from, _to, _ids, _amounts, _data, _operatorData);\r\n\r\n        // perform transfers\r\n        for (uint256 i = 0; i < _ids.length; ++i) {\r\n            // Cache amount to local variable to reduce read costs.\r\n            uint256 id = _ids[i];\r\n            uint256 amount = _amounts[i];\r\n\r\n            if (isNonFungible(id)) {\r\n                require(amount == 1, \"AMOUNT_EQUAL_TO_ONE_REQUIRED\");\r\n                require(nfOwners[id] == _from, \"NFT_NOT_OWNED_BY_FROM_ADDRESS\");\r\n                nfOwners[id] = _to;\r\n                // Keep the balance of NF type in base type id\r\n                uint256 baseType = getNonFungibleBaseType(id);\r\n                balances[baseType][_from] = balances[baseType][_from].sub(amount);\r\n                balances[baseType][_to] = balances[baseType][_to].add(amount);\r\n            } else {\r\n                _checkGranularity(amount);\r\n                balances[id][_from] = balances[id][_from].sub(amount);\r\n                balances[id][_to] = balances[id][_to].add(amount);\r\n            }\r\n            emit Sent(_operator, _from, _to, id, amount, _data, _operatorData);\r\n        }\r\n\r\n        callReceiver(_operator, _from, _to, _ids, _amounts, _data, _operatorData);\r\n    }\r\n\r\n    /// SWAP\r\n\r\n    /// @notice Swap tokens\r\n    /// @param _swap Swap data\r\n    /// @param _nonce Contract state required to match the signature\r\n    /// @param _expiry Time at which to expire the signature\r\n    /// @param _v Recovery byte of the signature\r\n    /// @param _r Half of the ECDSA signature pair\r\n    /// @param _s Half of the ECDSA signature pair\r\n    /// @param _data    Additional data with no specified format\r\n    function swap(\r\n        SwapLib.Swap memory _swap,\r\n        uint256 _nonce,\r\n        uint256 _expiry,\r\n        uint8 _v,\r\n        bytes32 _r,\r\n        bytes32 _s,\r\n        bytes memory _data\r\n    ) public whenNotPaused {\r\n        address signer = SwapVerify(_swap, _nonce, _expiry, _v, _r, _s);\r\n        _send(msg.sender, msg.sender, signer, _swap.senderTokenIds, _swap.senderTokenAmounts, _data, \"\");\r\n        _send(signer, signer, msg.sender, _swap.signerTokenIds, _swap.signerTokenAmounts, _data, \"\");\r\n    }\r\n\r\n    /// BURN\r\n\r\n    /// @notice Burn _value amount of an _id from msg.sender.\r\n    /// @param _ids      IDs of the token type\r\n    /// @param _amounts  Burn amounts\r\n    /// @param _data     Additional data with no specified format\r\n    function burn(\r\n        uint256[] calldata _ids,\r\n        uint256[] calldata _amounts,\r\n        bytes calldata _data\r\n    ) external whenNotPaused {\r\n        _burn(msg.sender, msg.sender, _ids, _amounts, _data, \"\");\r\n    }\r\n\r\n    /// @notice Burn _value amount of an _id from _from.\r\n    /// @param _from    Source address\r\n    /// @param _ids      ID of the token type\r\n    /// @param _amounts   Burn amount\r\n    /// @param _data    Additional data with no specified format\r\n    /// @param _operatorData Additional data with no specified format\r\n    function operatorBurn(\r\n        address _from,\r\n        uint256[] calldata _ids,\r\n        uint256[] calldata _amounts,\r\n        bytes calldata _data,\r\n        bytes calldata _operatorData\r\n    ) external whenNotPaused {\r\n        require(_isOperatorFor(msg.sender, _from), \"INSUFFICIENT_ALLOWANCE\");\r\n        _burn(msg.sender, _from, _ids, _amounts, _data, _operatorData);\r\n    }\r\n\r\n    /// @notice Actually make the burnning.\r\n    /// @param _operator msg.sender\r\n    /// @param _from    Source address\r\n    /// @param _ids     IDs of the token type\r\n    /// @param _amounts Burn amounts\r\n    /// @param _data    Additional data with no specified format\r\n    /// @param _operatorData Additional data with no specified format\r\n    function _burn(\r\n        address _operator,\r\n        address _from,\r\n        uint256[] memory _ids,\r\n        uint256[] memory _amounts,\r\n        bytes memory _data,\r\n        bytes memory _operatorData\r\n    ) internal {\r\n        require(_from != address(0), \"CANNOT_BURN_FROM_ADDRESS_ZERO\");\r\n        require(hasRole(BURNER_ROLE, _operator), \"CALLER_CANNOT_BURN\");\r\n\r\n        callSender(_operator, _from, address(0), _ids, _amounts, _data, _operatorData);\r\n\r\n        // perform transfers\r\n        for (uint256 i = 0; i < _ids.length; ++i) {\r\n            // Cache amount to local variable to reduce read costs.\r\n            uint256 id = _ids[i];\r\n            uint256 amount = _amounts[i];\r\n\r\n            if (isNonFungible(id)) {\r\n                require(amount == 1, \"AMOUNT_EQUAL_TO_ONE_REQUIRED\");\r\n                require(nfOwners[id] == _from, \"NFT_NOT_OWNED_BY_FROM_ADDRESS\");\r\n                nfOwners[id] == address(0);\r\n                uint256 baseType = getNonFungibleBaseType(id);\r\n                balances[baseType][_from] = balances[baseType][_from].sub(amount);\r\n            } else {\r\n                _checkGranularity(amount);\r\n                balances[id][_from] = balances[id][_from].sub(amount);\r\n            }\r\n            emit Burned(_operator, _from, id, amount, _data, _operatorData);\r\n        }\r\n    }\r\n\r\n    /// ERC1820\r\n\r\n    function callSender(\r\n        address _operator,\r\n        address _from,\r\n        address _to,\r\n        uint256[] memory _ids,\r\n        uint256[] memory _amounts,\r\n        bytes memory _data,\r\n        bytes memory _operatorData\r\n    ) private {\r\n        address impl = erc1820.getInterfaceImplementer(_from, TOKENS_SENDER_INTERFACE_HASH);\r\n        if (impl != address(0)) {\r\n            ITokenSender(impl).tokensToSend(_operator, _from, _to, _ids, _amounts, _data, _operatorData);\r\n        }\r\n    }\r\n\r\n    function callReceiver(\r\n        address _operator,\r\n        address _from,\r\n        address _to,\r\n        uint256[] memory _ids,\r\n        uint256[] memory _amounts,\r\n        bytes memory _data,\r\n        bytes memory _operatorData\r\n    ) private {\r\n        address impl = erc1820.getInterfaceImplementer(_to, TOKENS_RECIPIENT_INTERFACE_HASH);\r\n        if (impl != address(0)) {\r\n            ITokenRecipient(impl).tokensReceived(_operator, _from, _to, _ids, _amounts, _data, _operatorData);\r\n        } else {\r\n            require(!_to.isContract(), \"RECIPIENT_NOT_IMPLEMENTING_INTERFACE\");\r\n        }\r\n    }\r\n\r\n    /// OPERATOR\r\n\r\n    /// @notice Set a third party operator address as an operator of msg.sender to send\r\n    /// and burn tokens on its behalf.\r\n    /// @param _operator  Address to add to the set of authorized operators\r\n    function authorizeOperator(address _operator) external whenNotPaused {\r\n        require(msg.sender != _operator, \"SENDER_ALREADY_HIS_OPERATOR\");\r\n\r\n        if (isDefaultOperators[_operator]) {\r\n            revokedDefaultOperators[msg.sender][_operator] = false;\r\n        } else {\r\n            operators[msg.sender][_operator] = true;\r\n        }\r\n        emit AuthorizedOperator(_operator, msg.sender);\r\n    }\r\n\r\n    /// @notice Remove the right of the operator address to be an operator for msg.sender\r\n    /// and to send and burn tokens on its behalf.\r\n    /// @param _operator  Address to add to the set of authorized operators\r\n    function revokeOperator(address _operator) external whenNotPaused {\r\n        require(msg.sender != _operator, \"SENDER_ALREADY_HIS_OPERATOR\");\r\n        if (isDefaultOperators[_operator]) {\r\n            revokedDefaultOperators[msg.sender][_operator] = true;\r\n        } else {\r\n            operators[msg.sender][_operator] = false;\r\n        }\r\n        emit RevokedOperator(_operator, msg.sender);\r\n    }\r\n\r\n    /// @notice Queries whether the operator address is an operator of the holder address.\r\n    /// @param _operator  Address of authorized operator\r\n    /// @param _holder    The owner of the Tokens\r\n    /// @return          True if the operator is approved, false if not\r\n    function isOperatorFor(address _operator, address _holder) external view returns (bool) {\r\n        return _isOperatorFor(_operator, _holder);\r\n    }\r\n\r\n    function _isOperatorFor(address _operator, address _holder) internal view returns (bool) {\r\n        return\r\n            _holder == _operator ||\r\n            (isDefaultOperators[_operator] && !revokedDefaultOperators[_holder][_operator]) ||\r\n            operators[_holder][_operator];\r\n    }\r\n\r\n    /// BALANCE\r\n\r\n    /// @notice Get the balance of an account's Tokens.\r\n    /// @param _owner  The address of the token holder\r\n    /// @param _id     ID of the Token\r\n    /// @return        The _owner's balance of the Token type requested\r\n    function balanceOf(address _owner, uint256 _id) external view returns (uint256) {\r\n        if (isNonFungibleItem(_id)) {\r\n            return nfOwners[_id] == _owner ? 1 : 0;\r\n        }\r\n        return balances[_id][_owner];\r\n    }\r\n\r\n    /// @notice Get the balance of multiple account/token pairs\r\n    /// @param _owners The addresses of the token holders\r\n    /// @param _ids    ID of the Tokens\r\n    /// @return balances_   The _owner's balance of the Token types requested\r\n    function balanceOfBatch(address[] calldata _owners, uint256[] calldata _ids)\r\n        external\r\n        view\r\n        returns (uint256[] memory balances_)\r\n    {\r\n        // sanity check\r\n        require(_owners.length == _ids.length, \"OWNERS_AND_IDS_LENGTH_MISMATCH\");\r\n\r\n        // get balances\r\n        balances_ = new uint256[](_owners.length);\r\n        for (uint256 i = 0; i < _owners.length; ++i) {\r\n            uint256 id = _ids[i];\r\n            if (isNonFungibleItem(id)) {\r\n                balances_[i] = nfOwners[id] == _owners[i] ? 1 : 0;\r\n            } else {\r\n                balances_[i] = balances[id][_owners[i]];\r\n            }\r\n        }\r\n        return balances_;\r\n    }\r\n}\r\n",
  "sourcePath": "C:/Users/Vahatra/Source/github-monorepo/contracts/token/contracts/VToken.sol",
  "compiler": {
    "name": "solc",
    "version": "0.6.2+commit.bacdbe57.Emscripten.clang"
  },
  "schemaVersion": "3.3.1",
  "updatedAt": "2020-10-29T19:46:13.537Z",
  "devdoc": {
    "methods": {
      "authorizeOperator(address)": {
        "params": {
          "_operator": "Address to add to the set of authorized operators"
        }
      },
      "balanceOf(address,uint256)": {
        "params": {
          "_id": "ID of the Token",
          "_owner": "The address of the token holder"
        },
        "returns": {
          "_0": "The _owner's balance of the Token type requested"
        }
      },
      "balanceOfBatch(address[],uint256[])": {
        "params": {
          "_ids": "ID of the Tokens",
          "_owners": "The addresses of the token holders"
        },
        "returns": {
          "balances_": "  The _owner's balance of the Token types requested"
        }
      },
      "burn(uint256[],uint256[],bytes)": {
        "params": {
          "_amounts": "Burn amounts",
          "_data": "Additional data with no specified format",
          "_ids": "IDs of the token type"
        }
      },
      "create(bool)": {
        "details": "creates a new token",
        "params": {
          "_isNF": "is non-fungible token"
        },
        "returns": {
          "type_": "of token (a unique identifier)"
        }
      },
      "getNonFungibleBaseType(uint256)": {
        "details": "Returns base type of non-fungible token"
      },
      "getNonFungibleIndex(uint256)": {
        "details": "Returns index of non-fungible token"
      },
      "getRoleAdmin(bytes32)": {
        "details": "Returns the admin role that controls `role`. See {grantRole} and {revokeRole}.     * To change a role's admin, use {_setRoleAdmin}."
      },
      "getRoleMember(bytes32,uint256)": {
        "details": "Returns one of the accounts that have `role`. `index` must be a value between 0 and {getRoleMemberCount}, non-inclusive.     * Role bearers are not sorted in any particular way, and their ordering may change at any point.     * WARNING: When using {getRoleMember} and {getRoleMemberCount}, make sure you perform all queries on the same block. See the following https://forum.openzeppelin.com/t/iterating-over-elements-on-enumerableset-in-openzeppelin-contracts/2296[forum post] for more information."
      },
      "getRoleMemberCount(bytes32)": {
        "details": "Returns the number of accounts that have `role`. Can be used together with {getRoleMember} to enumerate all bearers of a role."
      },
      "grantRole(bytes32,address)": {
        "details": "Grants `role` to `account`.     * If `account` had not been already granted `role`, emits a {RoleGranted} event.     * Requirements:     * - the caller must have ``role``'s admin role."
      },
      "hasRole(bytes32,address)": {
        "details": "Returns `true` if `account` has been granted `role`."
      },
      "isFungible(uint256)": {
        "details": "Returns true if token is fungible"
      },
      "isNonFungible(uint256)": {
        "details": "Returns true if token is non-fungible"
      },
      "isNonFungibleBaseType(uint256)": {
        "details": "Returns true if input is base-type of a non-fungible token"
      },
      "isNonFungibleItem(uint256)": {
        "details": "Returns true if input is a non-fungible token"
      },
      "isOperatorFor(address,address)": {
        "params": {
          "_holder": "The owner of the Tokens",
          "_operator": "Address of authorized operator"
        },
        "returns": {
          "_0": "True if the operator is approved, false if not"
        }
      },
      "mintFungible(uint256,address[],uint256[],bytes,bytes)": {
        "details": "mints fungible tokens",
        "params": {
          "_amounts": "amounts of minted tokens",
          "_data": "Additional data with no specified format",
          "_id": "token type",
          "_operatorData": "Additional data with no specified format",
          "_to": "beneficiaries of minted tokens"
        }
      },
      "mintNonFungible(uint256,address[],bytes,bytes)": {
        "details": "mints a non-fungible token",
        "params": {
          "_data": "Additional data with no specified format",
          "_operatorData": "Additional data with no specified format",
          "_to": "beneficiaries of minted tokens",
          "_type": "token type"
        }
      },
      "operatorBurn(address,uint256[],uint256[],bytes,bytes)": {
        "params": {
          "_amounts": "Burn amount",
          "_data": "Additional data with no specified format",
          "_from": "Source address",
          "_ids": "ID of the token type",
          "_operatorData": "Additional data with no specified format"
        }
      },
      "operatorSend(address,address,uint256[],uint256[],bytes,bytes)": {
        "params": {
          "_amounts": "Transfer amounts per token type",
          "_data": "Additional data with no specified format",
          "_from": "Source addresses",
          "_ids": "IDs of each token type",
          "_operatorData": "Additional data with no specified format",
          "_to": "Target addresses"
        }
      },
      "ownerOf(uint256)": {
        "details": "returns owner of a non-fungible token"
      },
      "paused()": {
        "details": "Returns true if the contract is paused, and false otherwise."
      },
      "renounceRole(bytes32,address)": {
        "details": "Revokes `role` from the calling account.     * Roles are often managed via {grantRole} and {revokeRole}: this function's purpose is to provide a mechanism for accounts to lose their privileges if they are compromised (such as when a trusted device is misplaced).     * If the calling account had been granted `role`, emits a {RoleRevoked} event.     * Requirements:     * - the caller must be `account`."
      },
      "revokeOperator(address)": {
        "params": {
          "_operator": "Address to add to the set of authorized operators"
        }
      },
      "revokeRole(bytes32,address)": {
        "details": "Revokes `role` from `account`.     * If `account` had been granted `role`, emits a {RoleRevoked} event.     * Requirements:     * - the caller must have ``role``'s admin role."
      },
      "send(address,uint256[],uint256[],bytes)": {
        "params": {
          "_amounts": "Transfer amounts per token type",
          "_data": "Additional data with no specified format",
          "_ids": "IDs of each token type",
          "_to": "Target addresses"
        }
      },
      "swap((address,uint256[],uint256[],uint256[],uint256[]),uint256,uint256,uint8,bytes32,bytes32,bytes)": {
        "params": {
          "_data": "Additional data with no specified format",
          "_expiry": "Time at which to expire the signature",
          "_nonce": "Contract state required to match the signature",
          "_r": "Half of the ECDSA signature pair",
          "_s": "Half of the ECDSA signature pair",
          "_swap": "Swap data",
          "_v": "Recovery byte of the signature"
        }
      }
    }
  },
  "userdoc": {
    "methods": {
      "authorizeOperator(address)": {
        "notice": "OPERATORSet a third party operator address as an operator of msg.sender to send and burn tokens on its behalf."
      },
      "balanceOf(address,uint256)": {
        "notice": "BALANCEGet the balance of an account's Tokens."
      },
      "balanceOfBatch(address[],uint256[])": {
        "notice": "Get the balance of multiple account/token pairs"
      },
      "burn(uint256[],uint256[],bytes)": {
        "notice": "BURNBurn _value amount of an _id from msg.sender."
      },
      "create(bool)": {
        "notice": "CREATE"
      },
      "initialize(address[],uint256)": {
        "notice": "INIT"
      },
      "isOperatorFor(address,address)": {
        "notice": "Queries whether the operator address is an operator of the holder address."
      },
      "mintFungible(uint256,address[],uint256[],bytes,bytes)": {
        "notice": "MINT"
      },
      "operatorBurn(address,uint256[],uint256[],bytes,bytes)": {
        "notice": "Burn _value amount of an _id from _from."
      },
      "operatorSend(address,address,uint256[],uint256[],bytes,bytes)": {
        "notice": "Send multiple types of Tokens in one transfer from the _from address."
      },
      "revokeOperator(address)": {
        "notice": "Remove the right of the operator address to be an operator for msg.sender and to send and burn tokens on its behalf."
      },
      "send(address,uint256[],uint256[],bytes)": {
        "notice": "SENDSend multiple types of Tokens in one transfer from msg.sender."
      },
      "swap((address,uint256[],uint256[],uint256[],uint256[]),uint256,uint256,uint8,bytes32,bytes32,bytes)": {
        "notice": "SWAPSwap tokens"
      }
    }
  }
}