{
  "contractName": "Token",
  "abi": [
    {
      "anonymous": false,
      "inputs": [
        {
          "indexed": true,
          "internalType": "address",
          "name": "operator",
          "type": "address"
        },
        {
          "indexed": true,
          "internalType": "address",
          "name": "holder",
          "type": "address"
        }
      ],
      "name": "AuthorizedOperator",
      "type": "event"
    },
    {
      "anonymous": false,
      "inputs": [
        {
          "indexed": false,
          "internalType": "address",
          "name": "operator",
          "type": "address"
        },
        {
          "indexed": true,
          "internalType": "address",
          "name": "from",
          "type": "address"
        },
        {
          "indexed": true,
          "internalType": "uint256",
          "name": "id",
          "type": "uint256"
        },
        {
          "indexed": false,
          "internalType": "uint256",
          "name": "amount",
          "type": "uint256"
        },
        {
          "indexed": false,
          "internalType": "bytes",
          "name": "data",
          "type": "bytes"
        },
        {
          "indexed": false,
          "internalType": "bytes",
          "name": "operatorData",
          "type": "bytes"
        }
      ],
      "name": "Burned",
      "type": "event"
    },
    {
      "anonymous": false,
      "inputs": [
        {
          "indexed": true,
          "internalType": "address",
          "name": "creator",
          "type": "address"
        },
        {
          "indexed": true,
          "internalType": "uint256",
          "name": "id",
          "type": "uint256"
        },
        {
          "indexed": false,
          "internalType": "bytes",
          "name": "data",
          "type": "bytes"
        }
      ],
      "name": "Created",
      "type": "event"
    },
    {
      "anonymous": false,
      "inputs": [
        {
          "indexed": false,
          "internalType": "address",
          "name": "operator",
          "type": "address"
        },
        {
          "indexed": true,
          "internalType": "address",
          "name": "to",
          "type": "address"
        },
        {
          "indexed": true,
          "internalType": "uint256",
          "name": "id",
          "type": "uint256"
        },
        {
          "indexed": false,
          "internalType": "uint256",
          "name": "amount",
          "type": "uint256"
        },
        {
          "indexed": false,
          "internalType": "bytes",
          "name": "data",
          "type": "bytes"
        },
        {
          "indexed": false,
          "internalType": "bytes",
          "name": "operatorData",
          "type": "bytes"
        }
      ],
      "name": "Minted",
      "type": "event"
    },
    {
      "anonymous": false,
      "inputs": [
        {
          "indexed": false,
          "internalType": "address",
          "name": "account",
          "type": "address"
        }
      ],
      "name": "Paused",
      "type": "event"
    },
    {
      "anonymous": false,
      "inputs": [
        {
          "indexed": true,
          "internalType": "address",
          "name": "operator",
          "type": "address"
        },
        {
          "indexed": true,
          "internalType": "address",
          "name": "holder",
          "type": "address"
        }
      ],
      "name": "RevokedOperator",
      "type": "event"
    },
    {
      "anonymous": false,
      "inputs": [
        {
          "indexed": true,
          "internalType": "bytes32",
          "name": "role",
          "type": "bytes32"
        },
        {
          "indexed": true,
          "internalType": "bytes32",
          "name": "previousAdminRole",
          "type": "bytes32"
        },
        {
          "indexed": true,
          "internalType": "bytes32",
          "name": "newAdminRole",
          "type": "bytes32"
        }
      ],
      "name": "RoleAdminChanged",
      "type": "event"
    },
    {
      "anonymous": false,
      "inputs": [
        {
          "indexed": true,
          "internalType": "bytes32",
          "name": "role",
          "type": "bytes32"
        },
        {
          "indexed": true,
          "internalType": "address",
          "name": "account",
          "type": "address"
        },
        {
          "indexed": true,
          "internalType": "address",
          "name": "sender",
          "type": "address"
        }
      ],
      "name": "RoleGranted",
      "type": "event"
    },
    {
      "anonymous": false,
      "inputs": [
        {
          "indexed": true,
          "internalType": "bytes32",
          "name": "role",
          "type": "bytes32"
        },
        {
          "indexed": true,
          "internalType": "address",
          "name": "account",
          "type": "address"
        },
        {
          "indexed": true,
          "internalType": "address",
          "name": "sender",
          "type": "address"
        }
      ],
      "name": "RoleRevoked",
      "type": "event"
    },
    {
      "anonymous": false,
      "inputs": [
        {
          "indexed": false,
          "internalType": "address",
          "name": "operator",
          "type": "address"
        },
        {
          "indexed": true,
          "internalType": "address",
          "name": "from",
          "type": "address"
        },
        {
          "indexed": true,
          "internalType": "address",
          "name": "to",
          "type": "address"
        },
        {
          "indexed": true,
          "internalType": "uint256",
          "name": "id",
          "type": "uint256"
        },
        {
          "indexed": false,
          "internalType": "uint256",
          "name": "amount",
          "type": "uint256"
        },
        {
          "indexed": false,
          "internalType": "bytes",
          "name": "data",
          "type": "bytes"
        },
        {
          "indexed": false,
          "internalType": "bytes",
          "name": "operatorData",
          "type": "bytes"
        }
      ],
      "name": "Sent",
      "type": "event"
    },
    {
      "anonymous": false,
      "inputs": [
        {
          "indexed": false,
          "internalType": "string",
          "name": "value",
          "type": "string"
        },
        {
          "indexed": true,
          "internalType": "uint256",
          "name": "id",
          "type": "uint256"
        }
      ],
      "name": "URI",
      "type": "event"
    },
    {
      "anonymous": false,
      "inputs": [
        {
          "indexed": false,
          "internalType": "address",
          "name": "account",
          "type": "address"
        }
      ],
      "name": "Unpaused",
      "type": "event"
    },
    {
      "inputs": [],
      "name": "BURNER_ROLE",
      "outputs": [
        {
          "internalType": "bytes32",
          "name": "",
          "type": "bytes32"
        }
      ],
      "stateMutability": "view",
      "type": "function"
    },
    {
      "inputs": [],
      "name": "DEFAULT_ADMIN_ROLE",
      "outputs": [
        {
          "internalType": "bytes32",
          "name": "",
          "type": "bytes32"
        }
      ],
      "stateMutability": "view",
      "type": "function"
    },
    {
      "inputs": [],
      "name": "DOMAIN_SEPARATOR",
      "outputs": [
        {
          "internalType": "bytes32",
          "name": "",
          "type": "bytes32"
        }
      ],
      "stateMutability": "view",
      "type": "function"
    },
    {
      "inputs": [],
      "name": "EIP712_DOMAIN_TYPEHASH",
      "outputs": [
        {
          "internalType": "bytes32",
          "name": "",
          "type": "bytes32"
        }
      ],
      "stateMutability": "view",
      "type": "function"
    },
    {
      "inputs": [],
      "name": "MINTER_ROLE",
      "outputs": [
        {
          "internalType": "bytes32",
          "name": "",
          "type": "bytes32"
        }
      ],
      "stateMutability": "view",
      "type": "function"
    },
    {
      "inputs": [],
      "name": "SWAP_TYPEHASH",
      "outputs": [
        {
          "internalType": "bytes32",
          "name": "",
          "type": "bytes32"
        }
      ],
      "stateMutability": "view",
      "type": "function"
    },
    {
      "inputs": [
        {
          "components": [
            {
              "internalType": "address",
              "name": "sender",
              "type": "address"
            },
            {
              "internalType": "uint256[]",
              "name": "senderTokenIds",
              "type": "uint256[]"
            },
            {
              "internalType": "uint256[]",
              "name": "senderTokenAmounts",
              "type": "uint256[]"
            },
            {
              "internalType": "uint256[]",
              "name": "signerTokenIds",
              "type": "uint256[]"
            },
            {
              "internalType": "uint256[]",
              "name": "signerTokenAmounts",
              "type": "uint256[]"
            }
          ],
          "internalType": "struct SwapLib.Swap",
          "name": "_swap",
          "type": "tuple"
        },
        {
          "internalType": "uint256",
          "name": "_nonce",
          "type": "uint256"
        },
        {
          "internalType": "uint256",
          "name": "_expiry",
          "type": "uint256"
        },
        {
          "internalType": "uint8",
          "name": "_v",
          "type": "uint8"
        },
        {
          "internalType": "bytes32",
          "name": "_r",
          "type": "bytes32"
        },
        {
          "internalType": "bytes32",
          "name": "_s",
          "type": "bytes32"
        }
      ],
      "name": "SwapVerify",
      "outputs": [
        {
          "internalType": "address",
          "name": "signer_",
          "type": "address"
        }
      ],
      "stateMutability": "nonpayable",
      "type": "function"
    },
    {
      "inputs": [
        {
          "internalType": "uint256",
          "name": "",
          "type": "uint256"
        }
      ],
      "name": "creators",
      "outputs": [
        {
          "internalType": "address",
          "name": "",
          "type": "address"
        }
      ],
      "stateMutability": "view",
      "type": "function"
    },
    {
      "inputs": [
        {
          "internalType": "uint256",
          "name": "id",
          "type": "uint256"
        }
      ],
      "name": "getNonFungibleBaseType",
      "outputs": [
        {
          "internalType": "uint256",
          "name": "",
          "type": "uint256"
        }
      ],
      "stateMutability": "pure",
      "type": "function"
    },
    {
      "inputs": [
        {
          "internalType": "uint256",
          "name": "id",
          "type": "uint256"
        }
      ],
      "name": "getNonFungibleIndex",
      "outputs": [
        {
          "internalType": "uint256",
          "name": "",
          "type": "uint256"
        }
      ],
      "stateMutability": "pure",
      "type": "function"
    },
    {
      "inputs": [
        {
          "internalType": "bytes32",
          "name": "role",
          "type": "bytes32"
        }
      ],
      "name": "getRoleAdmin",
      "outputs": [
        {
          "internalType": "bytes32",
          "name": "",
          "type": "bytes32"
        }
      ],
      "stateMutability": "view",
      "type": "function"
    },
    {
      "inputs": [
        {
          "internalType": "bytes32",
          "name": "role",
          "type": "bytes32"
        },
        {
          "internalType": "uint256",
          "name": "index",
          "type": "uint256"
        }
      ],
      "name": "getRoleMember",
      "outputs": [
        {
          "internalType": "address",
          "name": "",
          "type": "address"
        }
      ],
      "stateMutability": "view",
      "type": "function"
    },
    {
      "inputs": [
        {
          "internalType": "bytes32",
          "name": "role",
          "type": "bytes32"
        }
      ],
      "name": "getRoleMemberCount",
      "outputs": [
        {
          "internalType": "uint256",
          "name": "",
          "type": "uint256"
        }
      ],
      "stateMutability": "view",
      "type": "function"
    },
    {
      "inputs": [
        {
          "internalType": "bytes32",
          "name": "role",
          "type": "bytes32"
        },
        {
          "internalType": "address",
          "name": "account",
          "type": "address"
        }
      ],
      "name": "grantRole",
      "outputs": [],
      "stateMutability": "nonpayable",
      "type": "function"
    },
    {
      "inputs": [
        {
          "internalType": "bytes32",
          "name": "role",
          "type": "bytes32"
        },
        {
          "internalType": "address",
          "name": "account",
          "type": "address"
        }
      ],
      "name": "hasRole",
      "outputs": [
        {
          "internalType": "bool",
          "name": "",
          "type": "bool"
        }
      ],
      "stateMutability": "view",
      "type": "function"
    },
    {
      "inputs": [
        {
          "internalType": "uint256",
          "name": "id",
          "type": "uint256"
        }
      ],
      "name": "isFungible",
      "outputs": [
        {
          "internalType": "bool",
          "name": "",
          "type": "bool"
        }
      ],
      "stateMutability": "pure",
      "type": "function"
    },
    {
      "inputs": [
        {
          "internalType": "uint256",
          "name": "id",
          "type": "uint256"
        }
      ],
      "name": "isNonFungible",
      "outputs": [
        {
          "internalType": "bool",
          "name": "",
          "type": "bool"
        }
      ],
      "stateMutability": "pure",
      "type": "function"
    },
    {
      "inputs": [
        {
          "internalType": "uint256",
          "name": "id",
          "type": "uint256"
        }
      ],
      "name": "isNonFungibleBaseType",
      "outputs": [
        {
          "internalType": "bool",
          "name": "",
          "type": "bool"
        }
      ],
      "stateMutability": "pure",
      "type": "function"
    },
    {
      "inputs": [
        {
          "internalType": "uint256",
          "name": "id",
          "type": "uint256"
        }
      ],
      "name": "isNonFungibleItem",
      "outputs": [
        {
          "internalType": "bool",
          "name": "",
          "type": "bool"
        }
      ],
      "stateMutability": "pure",
      "type": "function"
    },
    {
      "inputs": [
        {
          "internalType": "uint256",
          "name": "",
          "type": "uint256"
        }
      ],
      "name": "maxIndex",
      "outputs": [
        {
          "internalType": "uint256",
          "name": "",
          "type": "uint256"
        }
      ],
      "stateMutability": "view",
      "type": "function"
    },
    {
      "inputs": [],
      "name": "name",
      "outputs": [
        {
          "internalType": "string",
          "name": "",
          "type": "string"
        }
      ],
      "stateMutability": "view",
      "type": "function"
    },
    {
      "inputs": [
        {
          "internalType": "uint256",
          "name": "id",
          "type": "uint256"
        }
      ],
      "name": "ownerOf",
      "outputs": [
        {
          "internalType": "address",
          "name": "",
          "type": "address"
        }
      ],
      "stateMutability": "view",
      "type": "function"
    },
    {
      "inputs": [],
      "name": "paused",
      "outputs": [
        {
          "internalType": "bool",
          "name": "",
          "type": "bool"
        }
      ],
      "stateMutability": "view",
      "type": "function"
    },
    {
      "inputs": [
        {
          "internalType": "bytes32",
          "name": "role",
          "type": "bytes32"
        },
        {
          "internalType": "address",
          "name": "account",
          "type": "address"
        }
      ],
      "name": "renounceRole",
      "outputs": [],
      "stateMutability": "nonpayable",
      "type": "function"
    },
    {
      "inputs": [
        {
          "internalType": "bytes32",
          "name": "role",
          "type": "bytes32"
        },
        {
          "internalType": "address",
          "name": "account",
          "type": "address"
        }
      ],
      "name": "revokeRole",
      "outputs": [],
      "stateMutability": "nonpayable",
      "type": "function"
    },
    {
      "inputs": [
        {
          "internalType": "address",
          "name": "",
          "type": "address"
        }
      ],
      "name": "signerNonces",
      "outputs": [
        {
          "internalType": "uint256",
          "name": "",
          "type": "uint256"
        }
      ],
      "stateMutability": "view",
      "type": "function"
    },
    {
      "inputs": [
        {
          "internalType": "uint256",
          "name": "_granularity",
          "type": "uint256"
        }
      ],
      "name": "initialize",
      "outputs": [],
      "stateMutability": "nonpayable",
      "type": "function"
    },
    {
      "inputs": [
        {
          "internalType": "string",
          "name": "uri",
          "type": "string"
        },
        {
          "internalType": "bool",
          "name": "_isNF",
          "type": "bool"
        },
        {
          "internalType": "bytes",
          "name": "_data",
          "type": "bytes"
        }
      ],
      "name": "create",
      "outputs": [
        {
          "internalType": "uint256",
          "name": "type_",
          "type": "uint256"
        }
      ],
      "stateMutability": "nonpayable",
      "type": "function"
    },
    {
      "inputs": [
        {
          "internalType": "uint256",
          "name": "_id",
          "type": "uint256"
        },
        {
          "internalType": "address[]",
          "name": "_to",
          "type": "address[]"
        },
        {
          "internalType": "uint256[]",
          "name": "_amounts",
          "type": "uint256[]"
        },
        {
          "internalType": "bytes",
          "name": "_data",
          "type": "bytes"
        },
        {
          "internalType": "bytes",
          "name": "_operatorData",
          "type": "bytes"
        }
      ],
      "name": "mintFungible",
      "outputs": [],
      "stateMutability": "nonpayable",
      "type": "function"
    },
    {
      "inputs": [
        {
          "internalType": "uint256",
          "name": "_type",
          "type": "uint256"
        },
        {
          "internalType": "address[]",
          "name": "_to",
          "type": "address[]"
        },
        {
          "internalType": "bytes",
          "name": "_data",
          "type": "bytes"
        },
        {
          "internalType": "bytes",
          "name": "_operatorData",
          "type": "bytes"
        }
      ],
      "name": "mintNonFungible",
      "outputs": [],
      "stateMutability": "nonpayable",
      "type": "function"
    },
    {
      "inputs": [
        {
          "internalType": "address",
          "name": "_to",
          "type": "address"
        },
        {
          "internalType": "uint256[]",
          "name": "_ids",
          "type": "uint256[]"
        },
        {
          "internalType": "uint256[]",
          "name": "_amounts",
          "type": "uint256[]"
        },
        {
          "internalType": "bytes",
          "name": "_data",
          "type": "bytes"
        }
      ],
      "name": "send",
      "outputs": [],
      "stateMutability": "nonpayable",
      "type": "function"
    },
    {
      "inputs": [
        {
          "internalType": "address",
          "name": "_from",
          "type": "address"
        },
        {
          "internalType": "address",
          "name": "_to",
          "type": "address"
        },
        {
          "internalType": "uint256[]",
          "name": "_ids",
          "type": "uint256[]"
        },
        {
          "internalType": "uint256[]",
          "name": "_amounts",
          "type": "uint256[]"
        },
        {
          "internalType": "bytes",
          "name": "_data",
          "type": "bytes"
        },
        {
          "internalType": "bytes",
          "name": "_operatorData",
          "type": "bytes"
        }
      ],
      "name": "operatorSend",
      "outputs": [],
      "stateMutability": "nonpayable",
      "type": "function"
    },
    {
      "inputs": [
        {
          "internalType": "uint256[]",
          "name": "_ids",
          "type": "uint256[]"
        },
        {
          "internalType": "uint256[]",
          "name": "_amounts",
          "type": "uint256[]"
        },
        {
          "internalType": "bytes",
          "name": "_data",
          "type": "bytes"
        }
      ],
      "name": "burn",
      "outputs": [],
      "stateMutability": "nonpayable",
      "type": "function"
    },
    {
      "inputs": [
        {
          "internalType": "address",
          "name": "_from",
          "type": "address"
        },
        {
          "internalType": "uint256[]",
          "name": "_ids",
          "type": "uint256[]"
        },
        {
          "internalType": "uint256[]",
          "name": "_amounts",
          "type": "uint256[]"
        },
        {
          "internalType": "bytes",
          "name": "_data",
          "type": "bytes"
        },
        {
          "internalType": "bytes",
          "name": "_operatorData",
          "type": "bytes"
        }
      ],
      "name": "operatorBurn",
      "outputs": [],
      "stateMutability": "nonpayable",
      "type": "function"
    },
    {
      "inputs": [
        {
          "internalType": "address",
          "name": "_operator",
          "type": "address"
        }
      ],
      "name": "authorizeOperator",
      "outputs": [],
      "stateMutability": "nonpayable",
      "type": "function"
    },
    {
      "inputs": [
        {
          "internalType": "address",
          "name": "_operator",
          "type": "address"
        }
      ],
      "name": "revokeOperator",
      "outputs": [],
      "stateMutability": "nonpayable",
      "type": "function"
    },
    {
      "inputs": [
        {
          "internalType": "address",
          "name": "_owner",
          "type": "address"
        },
        {
          "internalType": "uint256",
          "name": "_id",
          "type": "uint256"
        }
      ],
      "name": "balanceOf",
      "outputs": [
        {
          "internalType": "uint256",
          "name": "",
          "type": "uint256"
        }
      ],
      "stateMutability": "view",
      "type": "function"
    },
    {
      "inputs": [
        {
          "internalType": "address[]",
          "name": "_owners",
          "type": "address[]"
        },
        {
          "internalType": "uint256[]",
          "name": "_ids",
          "type": "uint256[]"
        }
      ],
      "name": "balanceOfBatch",
      "outputs": [
        {
          "internalType": "uint256[]",
          "name": "balances_",
          "type": "uint256[]"
        }
      ],
      "stateMutability": "view",
      "type": "function"
    },
    {
      "inputs": [
        {
          "internalType": "address",
          "name": "_operator",
          "type": "address"
        },
        {
          "internalType": "address",
          "name": "_holder",
          "type": "address"
        }
      ],
      "name": "isOperatorFor",
      "outputs": [
        {
          "internalType": "bool",
          "name": "",
          "type": "bool"
        }
      ],
      "stateMutability": "view",
      "type": "function"
    },
    {
      "inputs": [],
      "name": "granularityNF",
      "outputs": [
        {
          "internalType": "uint256",
          "name": "",
          "type": "uint256"
        }
      ],
      "stateMutability": "view",
      "type": "function"
    },
    {
      "inputs": [
        {
          "components": [
            {
              "internalType": "address",
              "name": "sender",
              "type": "address"
            },
            {
              "internalType": "uint256[]",
              "name": "senderTokenIds",
              "type": "uint256[]"
            },
            {
              "internalType": "uint256[]",
              "name": "senderTokenAmounts",
              "type": "uint256[]"
            },
            {
              "internalType": "uint256[]",
              "name": "signerTokenIds",
              "type": "uint256[]"
            },
            {
              "internalType": "uint256[]",
              "name": "signerTokenAmounts",
              "type": "uint256[]"
            }
          ],
          "internalType": "struct SwapLib.Swap",
          "name": "_swap",
          "type": "tuple"
        },
        {
          "internalType": "uint256",
          "name": "_nonce",
          "type": "uint256"
        },
        {
          "internalType": "uint256",
          "name": "_expiry",
          "type": "uint256"
        },
        {
          "internalType": "uint8",
          "name": "_v",
          "type": "uint8"
        },
        {
          "internalType": "bytes32",
          "name": "_r",
          "type": "bytes32"
        },
        {
          "internalType": "bytes32",
          "name": "_s",
          "type": "bytes32"
        },
        {
          "internalType": "bytes",
          "name": "_data",
          "type": "bytes"
        }
      ],
      "name": "swap",
      "outputs": [],
      "stateMutability": "nonpayable",
      "type": "function"
    }
  ],
  "bytecode": "0x6080604052604051620000129062000185565b60405180910390206040518060400160405280600781526020017f56616861747261000000000000000000000000000000000000000000000000008152508051906020012062000067620000b760201b60201c565b306040516020016200007d94939291906200019c565b604051602081830303815290604052805190602001206001556000600360026101000a81548160ff0219169083151502179055506200023c565b6000804690508091505090565b620000cf81620001f4565b82525050565b620000e08162000208565b82525050565b6000620000f5604383620001e9565b91507f454950373132446f6d61696e28737472696e67206e616d652c75696e7432353660008301527f20636861696e49642c6164647265737320766572696679696e67436f6e74726160208301527f63742900000000000000000000000000000000000000000000000000000000006040830152604382019050919050565b6200017f8162000232565b82525050565b60006200019282620000e6565b9150819050919050565b6000608082019050620001b36000830187620000d5565b620001c26020830186620000d5565b620001d1604083018562000174565b620001e06060830184620000c4565b95945050505050565b600081905092915050565b6000620002018262000212565b9050919050565b6000819050919050565b600073ffffffffffffffffffffffffffffffffffffffff82169050919050565b6000819050919050565b615baf806200024c6000396000f3fe608060405234801561001057600080fd5b50600436106102525760003560e01c80637269a32711610146578063adebf6f2116100c3578063d539139311610087578063d53913931461078f578063d547741f146107ad578063d95b6371146107c9578063e44591f0146107f9578063fad8b32a14610829578063fe4b84df1461084557610252565b8063adebf6f2146106c5578063c1e206d8146106f5578063c7977be714610711578063ca15c8731461072f578063cd53d08e1461075f57610252565b806391d148541161010a57806391d14854146105fb578063959b8c3f1461062b5780639cca1c6414610647578063a217fddf14610677578063abd9e3331461069557610252565b80637269a327146105315780637bece335146105615780637e0fb541146105915780637eff2890146105af5780639010d07c146105cb57610252565b8063428465c1116101d45780635c975abb116101985780635c975abb146104675780635d9ab099146104855780635e81b958146104a15780636352211e146104d15780636f969c2d1461050157610252565b8063428465c1146103c55780634bc30ea7146103e15780634d2d80c4146103ff5780634e1273f41461041b578063536060571461044b57610252565b80632d0baf541161021b5780632d0baf54146103235780632f2ff15d1461033f5780633644e5151461035b57806336568abe146103795780633c850b1f1461039557610252565b8062fdd58e1461025757806306fdde031461028757806308d7d469146102a5578063248a9ca3146102d5578063282c51f314610305575b600080fd5b610271600480360361026c91908101906140f0565b610861565b60405161027e91906158b7565b60405180910390f35b61028f610945565b60405161029c91906155b3565b60405180910390f35b6102bf60048036036102ba91908101906144de565b61097e565b6040516102cc91906158b7565b60405180910390f35b6102ef60048036036102ea9190810190614245565b610996565b6040516102fc919061548e565b60405180910390f35b61030d6109b6565b60405161031a919061548e565b60405180910390f35b61033d60048036036103389190810190614507565b6109cd565b005b6103596004803603610354919081019061426e565b610d4a565b005b610363610dbe565b604051610370919061548e565b60405180910390f35b610393600480360361038e919081019061426e565b610dc4565b005b6103af60048036036103aa9190810190613dc5565b610e47565b6040516103bc91906158b7565b60405180910390f35b6103df60048036036103da91908101906141a1565b610e5f565b005b6103e9610f9a565b6040516103f6919061548e565b60405180910390f35b61041960048036036104149190810190614008565b610fb1565b005b6104356004803603610430919081019061412c565b61116d565b6040516104429190615451565b60405180910390f35b610465600480360361046091908101906145ef565b611374565b005b61046f61172f565b60405161047c9190615473565b60405180910390f35b61049f600480360361049a9190810190613e53565b611746565b005b6104bb60048036036104b691908101906144de565b611904565b6040516104c89190615473565b60405180910390f35b6104eb60048036036104e691908101906144de565b611973565b6040516104f89190615281565b60405180910390f35b61051b600480360361051691908101906144de565b6119b0565b60405161052891906158b7565b60405180910390f35b61054b600480360361054691908101906144de565b6119f2565b6040516105589190615473565b60405180910390f35b61057b600480360361057691908101906142e6565b611a60565b60405161058891906158b7565b60405180910390f35b610599611c42565b6040516105a691906158b7565b60405180910390f35b6105c960048036036105c49190810190613f4f565b611c4c565b005b6105e560048036036105e091908101906142aa565b611d89565b6040516105f29190615281565b60405180910390f35b6106156004803603610610919081019061426e565b611dbb565b6040516106229190615473565b60405180910390f35b61064560048036036106409190810190613dc5565b611ded565b005b610661600480360361065c91908101906144de565b611f9e565b60405161066e91906158b7565b60405180910390f35b61067f611fdc565b60405161068c919061548e565b60405180910390f35b6106af60048036036106aa919081019061436f565b611fe3565b6040516106bc9190615281565b60405180910390f35b6106df60048036036106da91908101906144de565b612189565b6040516106ec9190615473565b60405180910390f35b61070f600480360361070a9190810190614410565b6121b7565b005b61071961226f565b604051610726919061548e565b60405180910390f35b61074960048036036107449190810190614245565b612286565b60405161075691906158b7565b60405180910390f35b610779600480360361077491908101906144de565b6122ad565b6040516107869190615281565b60405180910390f35b6107976122e0565b6040516107a4919061548e565b60405180910390f35b6107c760048036036107c2919081019061426e565b6122f7565b005b6107e360048036036107de9190810190613e17565b61236b565b6040516107f09190615473565b60405180910390f35b610813600480360361080e91908101906144de565b61237f565b6040516108209190615473565b60405180910390f35b610843600480360361083e9190810190613dc5565b6123ad565b005b61085f600480360361085a91908101906144de565b61255e565b005b600061086c82611904565b156108eb578273ffffffffffffffffffffffffffffffffffffffff166002600084815260200190815260200160002060009054906101000a900473ffffffffffffffffffffffffffffffffffffffff1673ffffffffffffffffffffffffffffffffffffffff16146108de5760006108e1565b60015b60ff16905061093f565b600a600083815260200190815260200160002060008473ffffffffffffffffffffffffffffffffffffffff1673ffffffffffffffffffffffffffffffffffffffff1681526020019081526020016000205490505b92915050565b6040518060400160405280600781526020017f566168617472610000000000000000000000000000000000000000000000000081525081565b60086020528060005260406000206000915090505481565b600060046000838152602001908152602001600020600201549050919050565b6040516109c2906151e1565b604051809103902081565b600360029054906101000a900460ff1615610a1d576040517f08c379a0000000000000000000000000000000000000000000000000000000008152600401610a1490615717565b60405180910390fd5b883373ffffffffffffffffffffffffffffffffffffffff166007600083815260200190815260200160002060009054906101000a900473ffffffffffffffffffffffffffffffffffffffff1673ffffffffffffffffffffffffffffffffffffffff1614610abf576040517f08c379a0000000000000000000000000000000000000000000000000000000008152600401610ab690615857565b60405180910390fd5b610adc604051610ace90615235565b604051809103902033611dbb565b610b1b576040517f08c379a0000000000000000000000000000000000000000000000000000000008152600401610b1290615877565b60405180910390fd5b610b248a612189565b610b63576040517f08c379a0000000000000000000000000000000000000000000000000000000008152600401610b5a90615617565b60405180910390fd5b60008090505b89899050811015610d3d5760008a8a83818110610b8257fe5b9050602002016020610b979190810190613dc5565b9050600073ffffffffffffffffffffffffffffffffffffffff168173ffffffffffffffffffffffffffffffffffffffff161415610c09576040517f08c379a0000000000000000000000000000000000000000000000000000000008152600401610c0090615657565b60405180910390fd5b6000898984818110610c1757fe5b905060200201359050610c83600a60008f815260200190815260200160002060008473ffffffffffffffffffffffffffffffffffffffff1673ffffffffffffffffffffffffffffffffffffffff168152602001908152602001600020548261269490919063ffffffff16565b600a60008f815260200190815260200160002060008473ffffffffffffffffffffffffffffffffffffffff1673ffffffffffffffffffffffffffffffffffffffff168152602001908152602001600020819055508c8273ffffffffffffffffffffffffffffffffffffffff167f3c2ecef3eb8bfe571b65f95f1015446c317f8c8d975971d3a99acd4fcda98b0533848c8c8c8c604051610d28969594939291906152f3565b60405180910390a35050806001019050610b69565b5050505050505050505050565b610d716004600084815260200190815260200160002060020154610d6c6126e9565b611dbb565b610db0576040517f08c379a0000000000000000000000000000000000000000000000000000000008152600401610da790615637565b60405180910390fd5b610dba82826126f1565b5050565b60015481565b610dcc6126e9565b73ffffffffffffffffffffffffffffffffffffffff168173ffffffffffffffffffffffffffffffffffffffff1614610e39576040517f08c379a0000000000000000000000000000000000000000000000000000000008152600401610e3090615897565b60405180910390fd5b610e438282612785565b5050565b60006020528060005260406000206000915090505481565b600360029054906101000a900460ff1615610eaf576040517f08c379a0000000000000000000000000000000000000000000000000000000008152600401610ea690615717565b60405180910390fd5b610f923333888880806020026020016040519081016040528093929190818152602001838360200280828437600081840152601f19601f82011690508083019250505050505050878780806020026020016040519081016040528093929190818152602001838360200280828437600081840152601f19601f8201169050808301925050505050505086868080601f016020809104026020016040519081016040528093929190818152602001838380828437600081840152601f19601f8201169050808301925050505050505060405180602001604052806000815250612819565b505050505050565b604051610fa6906151f6565b604051809103902081565b600360029054906101000a900460ff1615611001576040517f08c379a0000000000000000000000000000000000000000000000000000000008152600401610ff890615717565b60405180910390fd5b61100b338a612c54565b61104a576040517f08c379a000000000000000000000000000000000000000000000000000000000815260040161104190615757565b60405180910390fd5b611162338a8a8a80806020026020016040519081016040528093929190818152602001838360200280828437600081840152601f19601f82011690508083019250505050505050898980806020026020016040519081016040528093929190818152602001838360200280828437600081840152601f19601f8201169050808301925050505050505088888080601f016020809104026020016040519081016040528093929190818152602001838380828437600081840152601f19601f8201169050808301925050505050505087878080601f016020809104026020016040519081016040528093929190818152602001838380828437600081840152601f19601f82011690508083019250505050505050612819565b505050505050505050565b60608282905085859050146111b7576040517f08c379a00000000000000000000000000000000000000000000000000000000081526004016111ae906157f7565b60405180910390fd5b848490506040519080825280602002602001820160405280156111e95781602001602082028038833980820191505090505b50905060008090505b8585905081101561136857600084848381811061120b57fe5b90506020020135905061121d81611904565b156112d25786868381811061122e57fe5b90506020020160206112439190810190613dc5565b73ffffffffffffffffffffffffffffffffffffffff166002600083815260200190815260200160002060009054906101000a900473ffffffffffffffffffffffffffffffffffffffff1673ffffffffffffffffffffffffffffffffffffffff16146112af5760006112b2565b60015b60ff168383815181106112c157fe5b60200260200101818152505061135c565b600a600082815260200190815260200160002060008888858181106112f357fe5b90506020020160206113089190810190613dc5565b73ffffffffffffffffffffffffffffffffffffffff1673ffffffffffffffffffffffffffffffffffffffff1681526020019081526020016000205483838151811061134f57fe5b6020026020010181815250505b508060010190506111f2565b50809050949350505050565b600360029054906101000a900460ff16156113c4576040517f08c379a00000000000000000000000000000000000000000000000000000000081526004016113bb90615717565b60405180910390fd5b863373ffffffffffffffffffffffffffffffffffffffff166007600083815260200190815260200160002060009054906101000a900473ffffffffffffffffffffffffffffffffffffffff1673ffffffffffffffffffffffffffffffffffffffff1614611466576040517f08c379a000000000000000000000000000000000000000000000000000000000815260040161145d90615857565b60405180910390fd5b61148360405161147590615235565b604051809103902033611dbb565b6114c2576040517f08c379a00000000000000000000000000000000000000000000000000000000081526004016114b990615877565b60405180910390fd5b6114cb8861237f565b61150a576040517f08c379a0000000000000000000000000000000000000000000000000000000008152600401611501906157b7565b60405180910390fd5b60006001600860008b81526020019081526020016000205401905060008090505b888890508110156116e357600089898381811061154457fe5b90506020020160206115599190810190613dc5565b9050600073ffffffffffffffffffffffffffffffffffffffff168173ffffffffffffffffffffffffffffffffffffffff1614156115cb576040517f08c379a00000000000000000000000000000000000000000000000000000000081526004016115c290615657565b60405180910390fd5b60008284018c179050816002600083815260200190815260200160002060006101000a81548173ffffffffffffffffffffffffffffffffffffffff021916908373ffffffffffffffffffffffffffffffffffffffff1602179055506001600a60008e815260200190815260200160002060008473ffffffffffffffffffffffffffffffffffffffff1673ffffffffffffffffffffffffffffffffffffffff16815260200190815260200160002081905550808273ffffffffffffffffffffffffffffffffffffffff167f3c2ecef3eb8bfe571b65f95f1015446c317f8c8d975971d3a99acd4fcda98b053360018d8d8d8d6040516116ce9695949392919061529c565b60405180910390a3505080600101905061152b565b5061170d600860008b8152602001908152602001600020548989905061269490919063ffffffff16565b600860008b815260200190815260200160002081905550505050505050505050565b6000600360029054906101000a900460ff16905090565b600360029054906101000a900460ff1615611796576040517f08c379a000000000000000000000000000000000000000000000000000000000815260040161178d90615717565b60405180910390fd5b6117a0338b612c54565b6117df576040517f08c379a00000000000000000000000000000000000000000000000000000000081526004016117d690615757565b60405180910390fd5b6118f8338b8b8b8b80806020026020016040519081016040528093929190818152602001838360200280828437600081840152601f19601f820116905080830192505050505050508a8a80806020026020016040519081016040528093929190818152602001838360200280828437600081840152601f19601f8201169050808301925050505050505089898080601f016020809104026020016040519081016040528093929190818152602001838380828437600081840152601f19601f8201169050808301925050505050505088888080601f016020809104026020016040519081016040528093929190818152602001838380828437600081840152601f19601f82011690508083019250505050505050612ce8565b50505050505050505050565b60007f800000000000000000000000000000000000000000000000000000000000000080831614801561196c575060007fffffffffffffffffffffffffffffffffffffffffffffffffffffffffffffffff6fffffffffffffffffffffffffffffffff16831614155b9050919050565b60006002600083815260200190815260200160002060009054906101000a900473ffffffffffffffffffffffffffffffffffffffff169050919050565b600060807fffffffffffffffffffffffffffffffffffffffffffffffffffffffffffffffff6fffffffffffffffffffffffffffffffff16901b82169050919050565b60007f8000000000000000000000000000000000000000000000000000000000000000808316148015611a59575060007fffffffffffffffffffffffffffffffffffffffffffffffffffffffffffffffff6fffffffffffffffffffffffffffffffff168316145b9050919050565b6000600360029054906101000a900460ff1615611ab2576040517f08c379a0000000000000000000000000000000000000000000000000000000008152600401611aa990615717565b60405180910390fd5b611acf604051611ac190615235565b604051809103902033611dbb565b611b0e576040517f08c379a0000000000000000000000000000000000000000000000000000000008152600401611b0590615877565b60405180910390fd5b6080600660008154600101919050819055901b90508315611b4f577f8000000000000000000000000000000000000000000000000000000000000000811790505b336007600083815260200190815260200160002060006101000a81548173ffffffffffffffffffffffffffffffffffffffff021916908373ffffffffffffffffffffffffffffffffffffffff160217905550803373ffffffffffffffffffffffffffffffffffffffff167f9f829bafe757aaea5093df9812b94e9dc484d7d57d623e9d0e04aa2b7f201e6c8585604051611bea92919061556b565b60405180910390a36000868690501115611c3957807f6bb7ff708619ba0610cba295a58592e0451dee2622938c8755667688daf3529b8787604051611c3092919061558f565b60405180910390a25b95945050505050565b6000600954905090565b600360029054906101000a900460ff1615611c9c576040517f08c379a0000000000000000000000000000000000000000000000000000000008152600401611c9390615717565b60405180910390fd5b611d80333389898980806020026020016040519081016040528093929190818152602001838360200280828437600081840152601f19601f82011690508083019250505050505050888880806020026020016040519081016040528093929190818152602001838360200280828437600081840152601f19601f8201169050808301925050505050505087878080601f016020809104026020016040519081016040528093929190818152602001838380828437600081840152601f19601f8201169050808301925050505050505060405180602001604052806000815250612ce8565b50505050505050565b6000611db382600460008681526020019081526020016000206000016132b990919063ffffffff16565b905092915050565b6000611de582600460008681526020019081526020016000206000016132d390919063ffffffff16565b905092915050565b600360029054906101000a900460ff1615611e3d576040517f08c379a0000000000000000000000000000000000000000000000000000000008152600401611e3490615717565b60405180910390fd5b8073ffffffffffffffffffffffffffffffffffffffff163373ffffffffffffffffffffffffffffffffffffffff161415611eac576040517f08c379a0000000000000000000000000000000000000000000000000000000008152600401611ea3906156d7565b60405180910390fd5b6001600b60003373ffffffffffffffffffffffffffffffffffffffff1673ffffffffffffffffffffffffffffffffffffffff16815260200190815260200160002060008373ffffffffffffffffffffffffffffffffffffffff1673ffffffffffffffffffffffffffffffffffffffff16815260200190815260200160002060006101000a81548160ff0219169083151502179055503373ffffffffffffffffffffffffffffffffffffffff168173ffffffffffffffffffffffffffffffffffffffff167ff4caeb2d6ca8932a215a353d0703c326ec2d81fc68170f320eb2ab49e9df61f960405160405180910390a350565b60007fffffffffffffffffffffffffffffffffffffffffffffffffffffffffffffffff6fffffffffffffffffffffffffffffffff1682169050919050565b6000801b81565b60006001611ff088613303565b858585604051600081526020016040526040516120109493929190615526565b6020604051602081039080840390855afa158015612032573d6000803e3d6000fd5b505050602060405103519050600073ffffffffffffffffffffffffffffffffffffffff168173ffffffffffffffffffffffffffffffffffffffff1614156120ae576040517f08c379a00000000000000000000000000000000000000000000000000000000081526004016120a5906157d7565b60405180910390fd5b6000808273ffffffffffffffffffffffffffffffffffffffff1673ffffffffffffffffffffffffffffffffffffffff168152602001908152602001600020600081548092919060010191905055861461213c576040517f08c379a000000000000000000000000000000000000000000000000000000000815260040161213390615797565b60405180910390fd5b8442111561217f576040517f08c379a000000000000000000000000000000000000000000000000000000000815260040161217690615737565b60405180910390fd5b9695505050505050565b6000807f80000000000000000000000000000000000000000000000000000000000000008316149050919050565b600360029054906101000a900460ff1615612207576040517f08c379a00000000000000000000000000000000000000000000000000000000081526004016121fe90615717565b60405180910390fd5b6000612217888888888888611fe3565b905061223f3333838b602001518c604001518760405180602001604052806000815250612ce8565b6122658182338b606001518c608001518760405180602001604052806000815250612ce8565b5050505050505050565b60405161227b90615220565b604051809103902081565b60006122a66004600084815260200190815260200160002060000161338e565b9050919050565b60076020528060005260406000206000915054906101000a900473ffffffffffffffffffffffffffffffffffffffff1681565b6040516122ec90615235565b604051809103902081565b61231e60046000848152602001908152602001600020600201546123196126e9565b611dbb565b61235d576040517f08c379a0000000000000000000000000000000000000000000000000000000008152600401612354906156f7565b60405180910390fd5b6123678282612785565b5050565b60006123778383612c54565b905092915050565b60007f8000000000000000000000000000000000000000000000000000000000000000808316149050919050565b600360029054906101000a900460ff16156123fd576040517f08c379a00000000000000000000000000000000000000000000000000000000081526004016123f490615717565b60405180910390fd5b8073ffffffffffffffffffffffffffffffffffffffff163373ffffffffffffffffffffffffffffffffffffffff16141561246c576040517f08c379a0000000000000000000000000000000000000000000000000000000008152600401612463906156d7565b60405180910390fd5b6000600b60003373ffffffffffffffffffffffffffffffffffffffff1673ffffffffffffffffffffffffffffffffffffffff16815260200190815260200160002060008373ffffffffffffffffffffffffffffffffffffffff1673ffffffffffffffffffffffffffffffffffffffff16815260200190815260200160002060006101000a81548160ff0219169083151502179055503373ffffffffffffffffffffffffffffffffffffffff168173ffffffffffffffffffffffffffffffffffffffff167f50546e66e5f44d728365dc3908c63bc5cfeeab470722c1677e3073a6ac294aa160405160405180910390a350565b600360019054906101000a900460ff168061257d575061257c6133a3565b5b806125955750600360009054906101000a900460ff16155b6125d4576040517f08c379a00000000000000000000000000000000000000000000000000000000081526004016125cb90615777565b60405180910390fd5b6000600360019054906101000a900460ff161590508015612626576001600360016101000a81548160ff0219169083151502179055506001600360006101000a81548160ff0219169083151502179055505b816009819055506040516126399061520b565b6040518091039020600c81905550604051612653906151cc565b6040518091039020600d8190555061266e6000801b336133ba565b8015612690576000600360016101000a81548160ff0219169083151502179055505b5050565b6000808284019050838110156126df576040517f08c379a00000000000000000000000000000000000000000000000000000000081526004016126d690615697565b60405180910390fd5b8091505092915050565b600033905090565b61271981600460008581526020019081526020016000206000016133c890919063ffffffff16565b15612781576127266126e9565b73ffffffffffffffffffffffffffffffffffffffff168173ffffffffffffffffffffffffffffffffffffffff16837f2f8788117e7eff1d82e926ec794901d17c78024a50270940304540a733656f0d60405160405180910390a45b5050565b6127ad81600460008581526020019081526020016000206000016133f890919063ffffffff16565b15612815576127ba6126e9565b73ffffffffffffffffffffffffffffffffffffffff168173ffffffffffffffffffffffffffffffffffffffff16837ff6391f5c32d9c69d2a47ea670b442974b53935d1edc7fd64eb21e047a839171b60405160405180910390a45b5050565b600073ffffffffffffffffffffffffffffffffffffffff168573ffffffffffffffffffffffffffffffffffffffff161415612889576040517f08c379a000000000000000000000000000000000000000000000000000000000815260040161288090615657565b60405180910390fd5b6128a6604051612898906151e1565b604051809103902087611dbb565b6128e5576040517f08c379a00000000000000000000000000000000000000000000000000000000081526004016128dc90615877565b60405180910390fd5b6128f58686600087878787613428565b60008090505b8451811015612c4b57600085828151811061291257fe5b60200260200101519050600085838151811061292a57fe5b6020026020010151905061293d8261237f565b15612b285760018114612985576040517f08c379a000000000000000000000000000000000000000000000000000000000815260040161297c90615837565b60405180910390fd5b8773ffffffffffffffffffffffffffffffffffffffff166002600084815260200190815260200160002060009054906101000a900473ffffffffffffffffffffffffffffffffffffffff1673ffffffffffffffffffffffffffffffffffffffff1614612a26576040517f08c379a0000000000000000000000000000000000000000000000000000000008152600401612a1d90615817565b60405180910390fd5b600073ffffffffffffffffffffffffffffffffffffffff166002600084815260200190815260200160002060009054906101000a905050506000612a69836119b0565b9050612ace82600a600084815260200190815260200160002060008c73ffffffffffffffffffffffffffffffffffffffff1673ffffffffffffffffffffffffffffffffffffffff1681526020019081526020016000205461359190919063ffffffff16565b600a600083815260200190815260200160002060008b73ffffffffffffffffffffffffffffffffffffffff1673ffffffffffffffffffffffffffffffffffffffff1681526020019081526020016000208190555050612be9565b612b31816135db565b612b9481600a600085815260200190815260200160002060008b73ffffffffffffffffffffffffffffffffffffffff1673ffffffffffffffffffffffffffffffffffffffff1681526020019081526020016000205461359190919063ffffffff16565b600a600084815260200190815260200160002060008a73ffffffffffffffffffffffffffffffffffffffff1673ffffffffffffffffffffffffffffffffffffffff168152602001908152602001600020819055505b818873ffffffffffffffffffffffffffffffffffffffff167f445046c439885ef9a7a8d144cb29b5c18e69bdaec44380162337529362eba4448b848989604051612c3694939291906153fe565b60405180910390a350508060010190506128fb565b50505050505050565b6000600b60008373ffffffffffffffffffffffffffffffffffffffff1673ffffffffffffffffffffffffffffffffffffffff16815260200190815260200160002060008473ffffffffffffffffffffffffffffffffffffffff1673ffffffffffffffffffffffffffffffffffffffff16815260200190815260200160002060009054906101000a900460ff16905092915050565b600073ffffffffffffffffffffffffffffffffffffffff168573ffffffffffffffffffffffffffffffffffffffff161415612d58576040517f08c379a0000000000000000000000000000000000000000000000000000000008152600401612d4f90615657565b60405180910390fd5b8251845114612d9c576040517f08c379a0000000000000000000000000000000000000000000000000000000008152600401612d93906157f7565b60405180910390fd5b612dab87878787878787613428565b60008090505b84518110156132a0576000858281518110612dc857fe5b602002602001015190506000858381518110612de057fe5b60200260200101519050612df38261237f565b156130af5760018114612e3b576040517f08c379a0000000000000000000000000000000000000000000000000000000008152600401612e3290615837565b60405180910390fd5b8873ffffffffffffffffffffffffffffffffffffffff166002600084815260200190815260200160002060009054906101000a900473ffffffffffffffffffffffffffffffffffffffff1673ffffffffffffffffffffffffffffffffffffffff1614612edc576040517f08c379a0000000000000000000000000000000000000000000000000000000008152600401612ed390615817565b60405180910390fd5b876002600084815260200190815260200160002060006101000a81548173ffffffffffffffffffffffffffffffffffffffff021916908373ffffffffffffffffffffffffffffffffffffffff1602179055506000612f39836119b0565b9050612f9e82600a600084815260200190815260200160002060008d73ffffffffffffffffffffffffffffffffffffffff1673ffffffffffffffffffffffffffffffffffffffff1681526020019081526020016000205461359190919063ffffffff16565b600a600083815260200190815260200160002060008c73ffffffffffffffffffffffffffffffffffffffff1673ffffffffffffffffffffffffffffffffffffffff1681526020019081526020016000208190555061305582600a600084815260200190815260200160002060008c73ffffffffffffffffffffffffffffffffffffffff1673ffffffffffffffffffffffffffffffffffffffff1681526020019081526020016000205461269490919063ffffffff16565b600a600083815260200190815260200160002060008b73ffffffffffffffffffffffffffffffffffffffff1673ffffffffffffffffffffffffffffffffffffffff1681526020019081526020016000208190555050613227565b6130b8816135db565b61311b81600a600085815260200190815260200160002060008c73ffffffffffffffffffffffffffffffffffffffff1673ffffffffffffffffffffffffffffffffffffffff1681526020019081526020016000205461359190919063ffffffff16565b600a600084815260200190815260200160002060008b73ffffffffffffffffffffffffffffffffffffffff1673ffffffffffffffffffffffffffffffffffffffff168152602001908152602001600020819055506131d281600a600085815260200190815260200160002060008b73ffffffffffffffffffffffffffffffffffffffff1673ffffffffffffffffffffffffffffffffffffffff1681526020019081526020016000205461269490919063ffffffff16565b600a600084815260200190815260200160002060008a73ffffffffffffffffffffffffffffffffffffffff1673ffffffffffffffffffffffffffffffffffffffff168152602001908152602001600020819055505b818873ffffffffffffffffffffffffffffffffffffffff168a73ffffffffffffffffffffffffffffffffffffffff167fd8f74616455d4f655e590ebc8258f54015e99d0357ae1e905b12d15576d037208d858a8a60405161328b94939291906153fe565b60405180910390a45050806001019050612db1565b506132b08787878787878761362c565b50505050505050565b60006132c883600001836137f9565b60001c905092915050565b60006132fb836000018373ffffffffffffffffffffffffffffffffffffffff1660001b613866565b905092915050565b6000600154604051613314906151f6565b60405180910390208360000151846020015185604001518660600151876080015160405160200161334a969594939291906154a9565b6040516020818303038152906040528051906020012060405160200161337192919061524a565b604051602081830303815290604052805190602001209050919050565b600061339c82600001613889565b9050919050565b6000803090506000813b9050600081149250505090565b6133c482826126f1565b5050565b60006133f0836000018373ffffffffffffffffffffffffffffffffffffffff1660001b61389a565b905092915050565b6000613420836000018373ffffffffffffffffffffffffffffffffffffffff1660001b61390a565b905092915050565b6000600560009054906101000a900473ffffffffffffffffffffffffffffffffffffffff1673ffffffffffffffffffffffffffffffffffffffff1663aabbb8ca88600c546040518363ffffffff1660e01b81526004016134899291906153d5565b60206040518083038186803b1580156134a157600080fd5b505afa1580156134b5573d6000803e3d6000fd5b505050506040513d601f19601f820116820180604052506134d99190810190613dee565b9050600073ffffffffffffffffffffffffffffffffffffffff168173ffffffffffffffffffffffffffffffffffffffff1614613587578073ffffffffffffffffffffffffffffffffffffffff166376c6f1b9898989898989896040518863ffffffff1660e01b8152600401613554979695949392919061534a565b600060405180830381600087803b15801561356e57600080fd5b505af1158015613582573d6000803e3d6000fd5b505050505b5050505050505050565b60006135d383836040518060400160405280601e81526020017f536166654d6174683a207375627472616374696f6e206f766572666c6f7700008152506139f2565b905092915050565b600060095482816135e857fe5b0614613629576040517f08c379a000000000000000000000000000000000000000000000000000000000815260040161362090615677565b60405180910390fd5b50565b6000600560009054906101000a900473ffffffffffffffffffffffffffffffffffffffff1673ffffffffffffffffffffffffffffffffffffffff1663aabbb8ca87600d546040518363ffffffff1660e01b815260040161368d9291906153d5565b60206040518083038186803b1580156136a557600080fd5b505afa1580156136b9573d6000803e3d6000fd5b505050506040513d601f19601f820116820180604052506136dd9190810190613dee565b9050600073ffffffffffffffffffffffffffffffffffffffff168173ffffffffffffffffffffffffffffffffffffffff161461378f578073ffffffffffffffffffffffffffffffffffffffff16635b6ae7ef898989898989896040518863ffffffff1660e01b8152600401613758979695949392919061534a565b600060405180830381600087803b15801561377257600080fd5b505af1158015613786573d6000803e3d6000fd5b505050506137ef565b6137ae8673ffffffffffffffffffffffffffffffffffffffff16613a4d565b156137ee576040517f08c379a00000000000000000000000000000000000000000000000000000000081526004016137e5906156b7565b60405180910390fd5b5b5050505050505050565b600081836000018054905011613844576040517f08c379a000000000000000000000000000000000000000000000000000000000815260040161383b906155f7565b60405180910390fd5b82600001828154811061385357fe5b9060005260206000200154905092915050565b600080836001016000848152602001908152602001600020541415905092915050565b600081600001805490509050919050565b60006138a68383613866565b6138ff578260000182908060018154018082558091505060019003906000526020600020016000909190919091505582600001805490508360010160008481526020019081526020016000208190555060019050613904565b600090505b92915050565b600080836001016000848152602001908152602001600020549050600081146139e6576000600182039050600060018660000180549050039050600086600001828154811061395557fe5b906000526020600020015490508087600001848154811061397257fe5b90600052602060002001819055506001830187600101600083815260200190815260200160002081905550866000018054806139aa57fe5b600190038181906000526020600020016000905590558660010160008781526020019081526020016000206000905560019450505050506139ec565b60009150505b92915050565b6000838311158290613a3a576040517f08c379a0000000000000000000000000000000000000000000000000000000008152600401613a3191906155d5565b60405180910390fd5b5060008385039050809150509392505050565b600080823b905060008111915050919050565b600081359050613a6f81615b06565b92915050565b600081519050613a8481615b06565b92915050565b60008083601f840112613a9c57600080fd5b8235905067ffffffffffffffff811115613ab557600080fd5b602083019150836020820283011115613acd57600080fd5b9250929050565b60008083601f840112613ae657600080fd5b8235905067ffffffffffffffff811115613aff57600080fd5b602083019150836020820283011115613b1757600080fd5b9250929050565b600082601f830112613b2f57600080fd5b8135613b42613b3d826158ff565b6158d2565b91508181835260208401935060208101905083856020840282011115613b6757600080fd5b60005b83811015613b975781613b7d8882613d9b565b845260208401935060208301925050600181019050613b6a565b5050505092915050565b600081359050613bb081615b1d565b92915050565b600081359050613bc581615b34565b92915050565b60008083601f840112613bdd57600080fd5b8235905067ffffffffffffffff811115613bf657600080fd5b602083019150836001820283011115613c0e57600080fd5b9250929050565b600082601f830112613c2657600080fd5b8135613c39613c3482615927565b6158d2565b91508082526020830160208301858383011115613c5557600080fd5b613c60838284615aa9565b50505092915050565b60008083601f840112613c7b57600080fd5b8235905067ffffffffffffffff811115613c9457600080fd5b602083019150836001820283011115613cac57600080fd5b9250929050565b600060a08284031215613cc557600080fd5b613ccf60a06158d2565b90506000613cdf84828501613a60565b600083015250602082013567ffffffffffffffff811115613cff57600080fd5b613d0b84828501613b1e565b602083015250604082013567ffffffffffffffff811115613d2b57600080fd5b613d3784828501613b1e565b604083015250606082013567ffffffffffffffff811115613d5757600080fd5b613d6384828501613b1e565b606083015250608082013567ffffffffffffffff811115613d8357600080fd5b613d8f84828501613b1e565b60808301525092915050565b600081359050613daa81615b4b565b92915050565b600081359050613dbf81615b62565b92915050565b600060208284031215613dd757600080fd5b6000613de584828501613a60565b91505092915050565b600060208284031215613e0057600080fd5b6000613e0e84828501613a75565b91505092915050565b60008060408385031215613e2a57600080fd5b6000613e3885828601613a60565b9250506020613e4985828601613a60565b9150509250929050565b60008060008060008060008060008060c08b8d031215613e7257600080fd5b6000613e808d828e01613a60565b9a50506020613e918d828e01613a60565b99505060408b013567ffffffffffffffff811115613eae57600080fd5b613eba8d828e01613ad4565b985098505060608b013567ffffffffffffffff811115613ed957600080fd5b613ee58d828e01613ad4565b965096505060808b013567ffffffffffffffff811115613f0457600080fd5b613f108d828e01613bcb565b945094505060a08b013567ffffffffffffffff811115613f2f57600080fd5b613f3b8d828e01613bcb565b92509250509295989b9194979a5092959850565b60008060008060008060006080888a031215613f6a57600080fd5b6000613f788a828b01613a60565b975050602088013567ffffffffffffffff811115613f9557600080fd5b613fa18a828b01613ad4565b9650965050604088013567ffffffffffffffff811115613fc057600080fd5b613fcc8a828b01613ad4565b9450945050606088013567ffffffffffffffff811115613feb57600080fd5b613ff78a828b01613bcb565b925092505092959891949750929550565b600080600080600080600080600060a08a8c03121561402657600080fd5b60006140348c828d01613a60565b99505060208a013567ffffffffffffffff81111561405157600080fd5b61405d8c828d01613ad4565b985098505060408a013567ffffffffffffffff81111561407c57600080fd5b6140888c828d01613ad4565b965096505060608a013567ffffffffffffffff8111156140a757600080fd5b6140b38c828d01613bcb565b945094505060808a013567ffffffffffffffff8111156140d257600080fd5b6140de8c828d01613bcb565b92509250509295985092959850929598565b6000806040838503121561410357600080fd5b600061411185828601613a60565b925050602061412285828601613d9b565b9150509250929050565b6000806000806040858703121561414257600080fd5b600085013567ffffffffffffffff81111561415c57600080fd5b61416887828801613a8a565b9450945050602085013567ffffffffffffffff81111561418757600080fd5b61419387828801613ad4565b925092505092959194509250565b600080600080600080606087890312156141ba57600080fd5b600087013567ffffffffffffffff8111156141d457600080fd5b6141e089828a01613ad4565b9650965050602087013567ffffffffffffffff8111156141ff57600080fd5b61420b89828a01613ad4565b9450945050604087013567ffffffffffffffff81111561422a57600080fd5b61423689828a01613bcb565b92509250509295509295509295565b60006020828403121561425757600080fd5b600061426584828501613bb6565b91505092915050565b6000806040838503121561428157600080fd5b600061428f85828601613bb6565b92505060206142a085828601613a60565b9150509250929050565b600080604083850312156142bd57600080fd5b60006142cb85828601613bb6565b92505060206142dc85828601613d9b565b9150509250929050565b6000806000806000606086880312156142fe57600080fd5b600086013567ffffffffffffffff81111561431857600080fd5b61432488828901613c69565b9550955050602061433788828901613ba1565b935050604086013567ffffffffffffffff81111561435457600080fd5b61436088828901613bcb565b92509250509295509295909350565b60008060008060008060c0878903121561438857600080fd5b600087013567ffffffffffffffff8111156143a257600080fd5b6143ae89828a01613cb3565b96505060206143bf89828a01613d9b565b95505060406143d089828a01613d9b565b94505060606143e189828a01613db0565b93505060806143f289828a01613bb6565b92505060a061440389828a01613bb6565b9150509295509295509295565b600080600080600080600060e0888a03121561442b57600080fd5b600088013567ffffffffffffffff81111561444557600080fd5b6144518a828b01613cb3565b97505060206144628a828b01613d9b565b96505060406144738a828b01613d9b565b95505060606144848a828b01613db0565b94505060806144958a828b01613bb6565b93505060a06144a68a828b01613bb6565b92505060c088013567ffffffffffffffff8111156144c357600080fd5b6144cf8a828b01613c15565b91505092959891949750929550565b6000602082840312156144f057600080fd5b60006144fe84828501613d9b565b91505092915050565b600080600080600080600080600060a08a8c03121561452557600080fd5b60006145338c828d01613d9b565b99505060208a013567ffffffffffffffff81111561455057600080fd5b61455c8c828d01613a8a565b985098505060408a013567ffffffffffffffff81111561457b57600080fd5b6145878c828d01613ad4565b965096505060608a013567ffffffffffffffff8111156145a657600080fd5b6145b28c828d01613bcb565b945094505060808a013567ffffffffffffffff8111156145d157600080fd5b6145dd8c828d01613bcb565b92509250509295985092959850929598565b60008060008060008060006080888a03121561460a57600080fd5b60006146188a828b01613d9b565b975050602088013567ffffffffffffffff81111561463557600080fd5b6146418a828b01613a8a565b9650965050604088013567ffffffffffffffff81111561466057600080fd5b61466c8a828b01613bcb565b9450945050606088013567ffffffffffffffff81111561468b57600080fd5b6146978a828b01613bcb565b925092505092959891949750929550565b60006146b4838361519f565b60208301905092915050565b6146c981615a61565b82525050565b6146d881615a02565b82525050565b60006146e98261597e565b6146f381856159c4565b93506146fe83615963565b8060005b8381101561472f57815161471688826146a8565b9750614721836159b7565b925050600181019050614702565b5085935050505092915050565b600061474782615973565b61475181856159c4565b935061475c83615953565b8060005b8381101561478d57815161477488826146a8565b975061477f836159aa565b925050600181019050614760565b5085935050505092915050565b6147a381615a14565b82525050565b6147b281615a20565b82525050565b6147c96147c482615a20565b615aeb565b82525050565b60006147db83856159d5565b93506147e8838584615aa9565b6147f183615af5565b840190509392505050565b600061480782615989565b61481181856159d5565b9350614821818560208601615ab8565b61482a81615af5565b840191505092915050565b61483e81615a73565b82525050565b600061485083856159e6565b935061485d838584615aa9565b61486683615af5565b840190509392505050565b600061487c8261599f565b61488681856159e6565b9350614896818560208601615ab8565b61489f81615af5565b840191505092915050565b60006148b582615994565b6148bf81856159e6565b93506148cf818560208601615ab8565b6148d881615af5565b840191505092915050565b60006148f06022836159e6565b91507f456e756d657261626c655365743a20696e646578206f7574206f6620626f756e60008301527f64730000000000000000000000000000000000000000000000000000000000006020830152604082019050919050565b60006149566012836159e6565b91507f4e4f4e5f46554e4749424c455f544f4b454e00000000000000000000000000006000830152602082019050919050565b6000614996602f836159e6565b91507f416363657373436f6e74726f6c3a2073656e646572206d75737420626520616e60008301527f2061646d696e20746f206772616e7400000000000000000000000000000000006020830152604082019050919050565b60006149fc600f836159e6565b91507f494e56414c49445f4144445245535300000000000000000000000000000000006000830152602082019050919050565b6000614a3c6013836159e6565b91507f494e56414c49445f4752414e554c4152495459000000000000000000000000006000830152602082019050919050565b6000614a7c601b836159e6565b91507f536166654d6174683a206164646974696f6e206f766572666c6f7700000000006000830152602082019050919050565b6000614abc600f836159f7565b91507f49546f6b656e526563697069656e7400000000000000000000000000000000006000830152600f82019050919050565b6000614afc600b836159f7565b91507f4255524e45525f524f4c450000000000000000000000000000000000000000006000830152600b82019050919050565b6000614b3c6019836159e6565b91507f494e544552464143455f4e4f545f494d504c454d454e544544000000000000006000830152602082019050919050565b6000614b7c6010836159e6565b91507f494e56414c49445f4f50455241544f52000000000000000000000000000000006000830152602082019050919050565b6000614bbc6030836159e6565b91507f416363657373436f6e74726f6c3a2073656e646572206d75737420626520616e60008301527f2061646d696e20746f207265766f6b65000000000000000000000000000000006020830152604082019050919050565b6000614c226010836159e6565b91507f5061757361626c653a20706175736564000000000000000000000000000000006000830152602082019050919050565b6000614c626011836159e6565b91507f5349474e41545552455f455850495245440000000000000000000000000000006000830152602082019050919050565b6000614ca26016836159e6565b91507f494e53554646494349454e545f414c4c4f57414e4345000000000000000000006000830152602082019050919050565b6000614ce2602e836159e6565b91507f496e697469616c697a61626c653a20636f6e747261637420697320616c72656160008301527f647920696e697469616c697a65640000000000000000000000000000000000006020830152604082019050919050565b6000614d486080836159f7565b91507f5377617028616464726573732073656e6465722c75696e743235365b5d20736560008301527f6e646572546f6b656e4964732c75696e743235365b5d2073656e646572546f6b60208301527f656e416d6f756e74732c75696e743235365b5d207369676e6572546f6b656e4960408301527f64732c75696e743235365b5d207369676e6572546f6b656e416d6f756e7473296060830152608082019050919050565b6000614dfa600c836159f7565b91507f49546f6b656e53656e64657200000000000000000000000000000000000000006000830152600c82019050919050565b6000614e3a6043836159f7565b91507f454950373132446f6d61696e28737472696e67206e616d652c75696e7432353660008301527f20636861696e49642c6164647265737320766572696679696e67436f6e74726160208301527f63742900000000000000000000000000000000000000000000000000000000006040830152604382019050919050565b6000614ec6600b836159f7565b91507f4d494e5445525f524f4c450000000000000000000000000000000000000000006000830152600b82019050919050565b6000614f06600d836159e6565b91507f494e56414c49445f4e4f4e4345000000000000000000000000000000000000006000830152602082019050919050565b6000614f46600e836159e6565b91507f46554e4749424c455f544f4b454e0000000000000000000000000000000000006000830152602082019050919050565b6000614f86600e836159e6565b91507f494e56414c49445f5349474e45520000000000000000000000000000000000006000830152602082019050919050565b6000614fc6600f836159e6565b91507f4c454e4754485f4d49534d4154434800000000000000000000000000000000006000830152602082019050919050565b60006150066009836159e6565b91507f4e4f545f4f574e455200000000000000000000000000000000000000000000006000830152602082019050919050565b6000615046600e836159e6565b91507f494e56414c49445f414d4f554e540000000000000000000000000000000000006000830152602082019050919050565b6000615086600b836159e6565b91507f4e4f545f43524541544f520000000000000000000000000000000000000000006000830152602082019050919050565b60006150c6600c836159e6565b91507f494e56414c49445f524f4c4500000000000000000000000000000000000000006000830152602082019050919050565b60006151066008836159f7565b91507f19010000000000000000000000000000000000000000000000000000000000006000830152600882019050919050565b6000615146602f836159e6565b91507f416363657373436f6e74726f6c3a2063616e206f6e6c792072656e6f756e636560008301527f20726f6c657320666f722073656c6600000000000000000000000000000000006020830152604082019050919050565b6151a881615a4a565b82525050565b6151b781615a4a565b82525050565b6151c681615a54565b82525050565b60006151d782614aaf565b9150819050919050565b60006151ec82614aef565b9150819050919050565b600061520182614d3b565b9150819050919050565b600061521682614ded565b9150819050919050565b600061522b82614e2d565b9150819050919050565b600061524082614eb9565b9150819050919050565b6000615255826150f9565b915061526182856147b8565b60208201915061527182846147b8565b6020820191508190509392505050565b600060208201905061529660008301846146cf565b92915050565b60006080820190506152b160008301896146c0565b6152be6020830188614835565b81810360408301526152d18186886147cf565b905081810360608301526152e68184866147cf565b9050979650505050505050565b600060808201905061530860008301896146c0565b61531560208301886151ae565b81810360408301526153288186886147cf565b9050818103606083015261533d8184866147cf565b9050979650505050505050565b600060e08201905061535f600083018a6146cf565b61536c60208301896146cf565b61537960408301886146cf565b818103606083015261538b81876146de565b9050818103608083015261539f81866146de565b905081810360a08301526153b381856147fc565b905081810360c08301526153c781846147fc565b905098975050505050505050565b60006040820190506153ea60008301856146cf565b6153f760208301846147a9565b9392505050565b600060808201905061541360008301876146cf565b61542060208301866151ae565b818103604083015261543281856147fc565b9050818103606083015261544681846147fc565b905095945050505050565b6000602082019050818103600083015261546b81846146de565b905092915050565b6000602082019050615488600083018461479a565b92915050565b60006020820190506154a360008301846147a9565b92915050565b600060c0820190506154be60008301896147a9565b6154cb60208301886146cf565b81810360408301526154dd818761473c565b905081810360608301526154f1818661473c565b90508181036080830152615505818561473c565b905081810360a0830152615519818461473c565b9050979650505050505050565b600060808201905061553b60008301876147a9565b61554860208301866151bd565b61555560408301856147a9565b61556260608301846147a9565b95945050505050565b600060208201905081810360008301526155868184866147cf565b90509392505050565b600060208201905081810360008301526155aa818486614844565b90509392505050565b600060208201905081810360008301526155cd81846148aa565b905092915050565b600060208201905081810360008301526155ef8184614871565b905092915050565b60006020820190508181036000830152615610816148e3565b9050919050565b6000602082019050818103600083015261563081614949565b9050919050565b6000602082019050818103600083015261565081614989565b9050919050565b60006020820190508181036000830152615670816149ef565b9050919050565b6000602082019050818103600083015261569081614a2f565b9050919050565b600060208201905081810360008301526156b081614a6f565b9050919050565b600060208201905081810360008301526156d081614b2f565b9050919050565b600060208201905081810360008301526156f081614b6f565b9050919050565b6000602082019050818103600083015261571081614baf565b9050919050565b6000602082019050818103600083015261573081614c15565b9050919050565b6000602082019050818103600083015261575081614c55565b9050919050565b6000602082019050818103600083015261577081614c95565b9050919050565b6000602082019050818103600083015261579081614cd5565b9050919050565b600060208201905081810360008301526157b081614ef9565b9050919050565b600060208201905081810360008301526157d081614f39565b9050919050565b600060208201905081810360008301526157f081614f79565b9050919050565b6000602082019050818103600083015261581081614fb9565b9050919050565b6000602082019050818103600083015261583081614ff9565b9050919050565b6000602082019050818103600083015261585081615039565b9050919050565b6000602082019050818103600083015261587081615079565b9050919050565b60006020820190508181036000830152615890816150b9565b9050919050565b600060208201905081810360008301526158b081615139565b9050919050565b60006020820190506158cc60008301846151ae565b92915050565b6000604051905081810181811067ffffffffffffffff821117156158f557600080fd5b8060405250919050565b600067ffffffffffffffff82111561591657600080fd5b602082029050602081019050919050565b600067ffffffffffffffff82111561593e57600080fd5b601f19601f8301169050602081019050919050565b6000819050602082019050919050565b6000819050602082019050919050565b600081519050919050565b600081519050919050565b600081519050919050565b600081519050919050565b600081519050919050565b6000602082019050919050565b6000602082019050919050565b600082825260208201905092915050565b600082825260208201905092915050565b600082825260208201905092915050565b600081905092915050565b6000615a0d82615a2a565b9050919050565b60008115159050919050565b6000819050919050565b600073ffffffffffffffffffffffffffffffffffffffff82169050919050565b6000819050919050565b600060ff82169050919050565b6000615a6c82615a85565b9050919050565b6000615a7e82615a4a565b9050919050565b6000615a9082615a97565b9050919050565b6000615aa282615a2a565b9050919050565b82818337600083830152505050565b60005b83811015615ad6578082015181840152602081019050615abb565b83811115615ae5576000848401525b50505050565b6000819050919050565b6000601f19601f8301169050919050565b615b0f81615a02565b8114615b1a57600080fd5b50565b615b2681615a14565b8114615b3157600080fd5b50565b615b3d81615a20565b8114615b4857600080fd5b50565b615b5481615a4a565b8114615b5f57600080fd5b50565b615b6b81615a54565b8114615b7657600080fd5b5056fea26469706673582212207646afd28ef9bcb28f1793b68bcac0c58eb9ad32b728e9da5c927c9b3ef7bea664736f6c63430006020033",
  "source": "// SPDX-License-Identifier: UNLICENSED\r\npragma solidity ^0.6.0;\r\npragma experimental ABIEncoderV2;\r\n\r\nimport \"@openzeppelin/contracts/access/AccessControl.sol\";\r\nimport \"@openzeppelin/contracts/math/SafeMath.sol\";\r\nimport \"@openzeppelin/contracts/utils/Address.sol\";\r\nimport \"@openzeppelin/contracts/utils/Pausable.sol\";\r\nimport \"@openzeppelin/contracts/proxy/Initializable.sol\";\r\nimport \"@openzeppelin/contracts/introspection/IERC1820Registry.sol\";\r\nimport \"./Interfaces/ITokenRecipient.sol\";\r\nimport \"./Interfaces/ITokenSender.sol\";\r\nimport \"./MixinNF.sol\";\r\nimport \"./SwapVerifier.sol\";\r\n\r\ncontract Token is SwapVerifier, MixinNF, Initializable, Pausable, AccessControl {\r\n    using Address for address;\r\n    using SafeMath for uint256;\r\n\r\n    IERC1820Registry private erc1820;\r\n\r\n    /// Token nonce\r\n    uint256 internal nonce;\r\n\r\n    /// mapping from token to creator.\r\n    mapping(uint256 => address) public creators;\r\n\r\n    /// mapping from token to max index for non fungible tokens.\r\n    mapping(uint256 => uint256) public maxIndex;\r\n\r\n    /// granularity for fungible tokens.\r\n    uint256 internal granularity;\r\n\r\n    /// mapping for balance of tokens and owner.\r\n    mapping(uint256 => mapping(address => uint256)) internal balances;\r\n\r\n    /// mapping of operators\r\n    mapping(address => mapping(address => bool)) internal operators;\r\n\r\n    bytes32 private TOKEN_SENDER_INTERFACE_HASH;\r\n    bytes32 private TOKEN_RECIPIENT_INTERFACE_HASH;\r\n\r\n    bytes32 public constant MINTER_ROLE = keccak256(\"MINTER_ROLE\");\r\n    bytes32 public constant BURNER_ROLE = keccak256(\"BURNER_ROLE\");\r\n\r\n    /// asserts token is owned by msg.sender\r\n    modifier creatorOnly(uint256 _id) {\r\n        require(creators[_id] == msg.sender, \"NOT_CREATOR\");\r\n        _;\r\n    }\r\n\r\n    /// EVENT\r\n\r\n    /// @dev create MUST emit when a token is created.\r\n    /// Creator will always be msg.sender.\r\n    event Created(address indexed creator, uint256 indexed id, bytes data);\r\n\r\n    /// @dev emits IF uri is not empty on token creation.\r\n    event URI(string value, uint256 indexed id);\r\n\r\n    /// @dev send/sendOperator MUST emit when tokens are transferred.\r\n    /// Operator will always be msg.sender.\r\n    event Sent(\r\n        address operator,\r\n        address indexed from,\r\n        address indexed to,\r\n        uint256 indexed id,\r\n        uint256 amount,\r\n        bytes data,\r\n        bytes operatorData\r\n    );\r\n\r\n    /// @dev mintFungible/mintNonFungible MUST emit when tokens are minted.\r\n    /// Operator will always be msg.sender.\r\n    event Minted(\r\n        address operator,\r\n        address indexed to,\r\n        uint256 indexed id,\r\n        uint256 amount,\r\n        bytes data,\r\n        bytes operatorData\r\n    );\r\n\r\n    /// @dev burn/burnOperator MUST emit when tokens are burned.\r\n    /// Operator will always be msg.sender.\r\n    event Burned(\r\n        address operator,\r\n        address indexed from,\r\n        uint256 indexed id,\r\n        uint256 amount,\r\n        bytes data,\r\n        bytes operatorData\r\n    );\r\n\r\n    /// @dev authorizeOperator MUST emit when an operator is authorized.\r\n    /// Holder will always be msg.sender.\r\n    event AuthorizedOperator(address indexed operator, address indexed holder);\r\n\r\n    /// @dev revokeOperator MUST emit when an operator is revoked.\r\n    /// Holder will always be msg.sender.\r\n    event RevokedOperator(address indexed operator, address indexed holder);\r\n\r\n    /// INIT\r\n\r\n    function initialize(uint256 _granularity) external initializer {\r\n        granularity = _granularity;\r\n\r\n        TOKEN_SENDER_INTERFACE_HASH = keccak256(\"ITokenSender\");\r\n        TOKEN_RECIPIENT_INTERFACE_HASH = keccak256(\"ITokenRecipient\");\r\n\r\n        _setupRole(DEFAULT_ADMIN_ROLE, msg.sender);\r\n    }\r\n\r\n    /// EXTERNAL\r\n\r\n    /// @dev Creates a new token\r\n    /// @param uri      URI of the token\r\n    /// @param _isNF    is non-fungible token\r\n    /// @param _data    Additional data with no specified format\r\n    /// @return type_ Token type (a unique identifier)\r\n    function create(\r\n        string calldata uri,\r\n        bool _isNF,\r\n        bytes calldata _data\r\n    ) external whenNotPaused returns (uint256 type_) {\r\n        require(hasRole(MINTER_ROLE, msg.sender), \"INVALID_ROLE\");\r\n        // Store the type in the upper 128 bits\r\n        type_ = (++nonce << 128);\r\n\r\n        if (_isNF) {\r\n            type_ = type_ | TYPE_NF_BIT;\r\n        }\r\n        creators[type_] = msg.sender;\r\n\r\n        emit Created(msg.sender, type_, _data);\r\n\r\n        if (bytes(uri).length > 0) {\r\n            emit URI(uri, type_);\r\n        }\r\n    }\r\n\r\n    /// @dev Mints fungible tokens\r\n    /// @param _id      Token type\r\n    /// @param _to      Beneficiaries of minted tokens\r\n    /// @param _amounts Amounts of minted tokens\r\n    /// @param _data    Additional data with no specified format\r\n    /// @param _operatorData Additional data with no specified format\r\n    function mintFungible(\r\n        uint256 _id,\r\n        address[] calldata _to,\r\n        uint256[] calldata _amounts,\r\n        bytes calldata _data,\r\n        bytes calldata _operatorData\r\n    ) external whenNotPaused creatorOnly(_id) {\r\n        require(hasRole(MINTER_ROLE, msg.sender), \"INVALID_ROLE\");\r\n        require(isFungible(_id), \"NON_FUNGIBLE_TOKEN\");\r\n\r\n        for (uint256 i = 0; i < _to.length; ++i) {\r\n            address to = _to[i];\r\n            require(to != address(0), \"INVALID_ADDRESS\");\r\n            uint256 amount = _amounts[i];\r\n            balances[_id][to] = amount.add(balances[_id][to]);\r\n\r\n            emit Minted(msg.sender, to, _id, amount, _data, _operatorData);\r\n        }\r\n    }\r\n\r\n    /// @dev Mints a non-fungible token\r\n    /// @param _type    Token type\r\n    /// @param _to      Beneficiaries of minted tokens\r\n    /// @param _data    Additional data with no specified format\r\n    /// @param _operatorData Additional data with no specified format\r\n    function mintNonFungible(\r\n        uint256 _type,\r\n        address[] calldata _to,\r\n        bytes calldata _data,\r\n        bytes calldata _operatorData\r\n    ) external whenNotPaused creatorOnly(_type) {\r\n        require(hasRole(MINTER_ROLE, msg.sender), \"INVALID_ROLE\");\r\n        require(isNonFungible(_type), \"FUNGIBLE_TOKEN\");\r\n\r\n        // Index are 1-based.\r\n        uint256 index = maxIndex[_type] + 1;\r\n\r\n        for (uint256 i = 0; i < _to.length; ++i) {\r\n            address to = _to[i];\r\n            require(to != address(0), \"INVALID_ADDRESS\");\r\n            uint256 id = _type | (index + i);\r\n            nfOwners[id] = to;\r\n            // NFT base type balance\r\n            balances[_type][to] = 1;\r\n\r\n            emit Minted(msg.sender, to, id, 1, _data, _operatorData);\r\n        }\r\n\r\n        // record the `maxIndex` of this nft type (base type).\r\n        maxIndex[_type] = _to.length.add(maxIndex[_type]);\r\n    }\r\n\r\n    function send(\r\n        address _to,\r\n        uint256[] calldata _ids,\r\n        uint256[] calldata _amounts,\r\n        bytes calldata _data\r\n    ) external whenNotPaused {\r\n        _send(msg.sender, msg.sender, _to, _ids, _amounts, _data, \"\");\r\n    }\r\n\r\n    function operatorSend(\r\n        address _from,\r\n        address _to,\r\n        uint256[] calldata _ids,\r\n        uint256[] calldata _amounts,\r\n        bytes calldata _data,\r\n        bytes calldata _operatorData\r\n    ) external whenNotPaused {\r\n        require(_isOperatorFor(msg.sender, _from), \"INSUFFICIENT_ALLOWANCE\");\r\n        _send(msg.sender, _from, _to, _ids, _amounts, _data, _operatorData);\r\n    }\r\n\r\n    function burn(\r\n        uint256[] calldata _ids,\r\n        uint256[] calldata _amounts,\r\n        bytes calldata _data\r\n    ) external whenNotPaused {\r\n        _burn(msg.sender, msg.sender, _ids, _amounts, _data, \"\");\r\n    }\r\n\r\n    function operatorBurn(\r\n        address _from,\r\n        uint256[] calldata _ids,\r\n        uint256[] calldata _amounts,\r\n        bytes calldata _data,\r\n        bytes calldata _operatorData\r\n    ) external whenNotPaused {\r\n        require(_isOperatorFor(msg.sender, _from), \"INSUFFICIENT_ALLOWANCE\");\r\n        _burn(msg.sender, _from, _ids, _amounts, _data, _operatorData);\r\n    }\r\n\r\n    /// @notice Set a third party operator address as an operator of msg.sender to send\r\n    /// and burn tokens on its behalf.\r\n    /// @param _operator  Address to add to the set of authorized operators\r\n    function authorizeOperator(address _operator) external whenNotPaused {\r\n        require(msg.sender != _operator, \"INVALID_OPERATOR\");\r\n\r\n        operators[msg.sender][_operator] = true;\r\n        emit AuthorizedOperator(_operator, msg.sender);\r\n    }\r\n\r\n    /// @notice Remove the right of the operator address to be an operator for msg.sender\r\n    /// and to send and burn tokens on its behalf.\r\n    /// @param _operator  Address to add to the set of authorized operators\r\n    function revokeOperator(address _operator) external whenNotPaused {\r\n        require(msg.sender != _operator, \"INVALID_OPERATOR\");\r\n\r\n        operators[msg.sender][_operator] = false;\r\n        emit RevokedOperator(_operator, msg.sender);\r\n    }\r\n\r\n    /// EXTERNAL VIEW\r\n\r\n    /// @notice Get the balance of an account's Tokens.\r\n    /// @param _owner  The address of the token holder\r\n    /// @param _id     ID of the Token\r\n    /// @return The _owner's balance of the Token type requested\r\n    function balanceOf(address _owner, uint256 _id) external view returns (uint256) {\r\n        if (isNonFungibleItem(_id)) {\r\n            return nfOwners[_id] == _owner ? 1 : 0;\r\n        }\r\n        return balances[_id][_owner];\r\n    }\r\n\r\n    /// @notice Get the balance of multiple account/token pairs.\r\n    /// @param _owners The addresses of the token holders\r\n    /// @param _ids    ID of the Tokens\r\n    /// @return balances_   The _owner's balance of the Token types requested\r\n    function balanceOfBatch(address[] calldata _owners, uint256[] calldata _ids)\r\n        external\r\n        view\r\n        returns (uint256[] memory balances_)\r\n    {\r\n        require(_owners.length == _ids.length, \"LENGTH_MISMATCH\");\r\n\r\n        balances_ = new uint256[](_owners.length);\r\n        for (uint256 i = 0; i < _owners.length; ++i) {\r\n            uint256 id = _ids[i];\r\n            if (isNonFungibleItem(id)) {\r\n                balances_[i] = nfOwners[id] == _owners[i] ? 1 : 0;\r\n            } else {\r\n                balances_[i] = balances[id][_owners[i]];\r\n            }\r\n        }\r\n        return balances_;\r\n    }\r\n\r\n    /// @notice Queries whether the operator address is an operator of the holder address.\r\n    /// @param _operator  Address of authorized operator\r\n    /// @param _holder    The owner of the Tokens\r\n    /// @return True if the operator is approved, false if not\r\n    function isOperatorFor(address _operator, address _holder) external view returns (bool) {\r\n        return _isOperatorFor(_operator, _holder);\r\n    }\r\n\r\n    /// @notice Get the granularity of fungible tokens.\r\n    function granularityNF() external view returns (uint256) {\r\n        return granularity;\r\n    }\r\n\r\n    /// PUBLIC\r\n\r\n    /// @notice Swaps tokens.\r\n    /// @param _swap    Swap data\r\n    /// @param _nonce   Contract state required to match the signature\r\n    /// @param _expiry  Time at which to expire the signature\r\n    /// @param _v       Recovery byte of the signature\r\n    /// @param _r       Half of the ECDSA signature pair\r\n    /// @param _s       Half of the ECDSA signature pair\r\n    /// @param _data    Additional data with no specified format\r\n    function swap(\r\n        SwapLib.Swap memory _swap,\r\n        uint256 _nonce,\r\n        uint256 _expiry,\r\n        uint8 _v,\r\n        bytes32 _r,\r\n        bytes32 _s,\r\n        bytes memory _data\r\n    ) public whenNotPaused {\r\n        address signer = SwapVerify(_swap, _nonce, _expiry, _v, _r, _s);\r\n        _send(\r\n            msg.sender,\r\n            msg.sender,\r\n            signer,\r\n            _swap.senderTokenIds,\r\n            _swap.senderTokenAmounts,\r\n            _data,\r\n            \"\"\r\n        );\r\n        _send(\r\n            signer,\r\n            signer,\r\n            msg.sender,\r\n            _swap.signerTokenIds,\r\n            _swap.signerTokenAmounts,\r\n            _data,\r\n            \"\"\r\n        );\r\n    }\r\n\r\n    /// INTERNAL\r\n\r\n    /// @notice Sends multiple types of tokens.\r\n    /// @param _operator    msg.sender\r\n    /// @param _from        Sender addresses\r\n    /// @param _to          Recipient addresses\r\n    /// @param _ids         Ids of each token type\r\n    /// @param _amounts     Transfer amounts per token type\r\n    /// @param _data        Additional data with no specified format\r\n    /// @param _operatorData Additional data with no specified format\r\n    function _send(\r\n        address _operator,\r\n        address _from,\r\n        address _to,\r\n        uint256[] memory _ids,\r\n        uint256[] memory _amounts,\r\n        bytes memory _data,\r\n        bytes memory _operatorData\r\n    ) internal {\r\n        require(_to != address(0x0), \"INVALID_ADDRESS\");\r\n        require(_ids.length == _amounts.length, \"LENGTH_MISMATCH\");\r\n\r\n        callSender(_operator, _from, _to, _ids, _amounts, _data, _operatorData);\r\n\r\n        for (uint256 i = 0; i < _ids.length; ++i) {\r\n            uint256 id = _ids[i];\r\n            uint256 amount = _amounts[i];\r\n\r\n            if (isNonFungible(id)) {\r\n                require(amount == 1, \"INVALID_AMOUNT\");\r\n                require(nfOwners[id] == _from, \"NOT_OWNER\");\r\n                nfOwners[id] = _to;\r\n                // Keep the balance of NF type in base type id\r\n                uint256 baseType = getNonFungibleBaseType(id);\r\n                balances[baseType][_from] = balances[baseType][_from].sub(amount);\r\n                balances[baseType][_to] = balances[baseType][_to].add(amount);\r\n            } else {\r\n                _checkGranularity(amount);\r\n                balances[id][_from] = balances[id][_from].sub(amount);\r\n                balances[id][_to] = balances[id][_to].add(amount);\r\n            }\r\n            emit Sent(_operator, _from, _to, id, amount, _data, _operatorData);\r\n        }\r\n\r\n        callReceiver(_operator, _from, _to, _ids, _amounts, _data, _operatorData);\r\n    }\r\n\r\n    /// @notice Burns token.\r\n    /// @param _operator    msg.sender\r\n    /// @param _from        Source address\r\n    /// @param _ids         IDs of the token type\r\n    /// @param _amounts     Burn amounts\r\n    /// @param _data        Additional data with no specified format\r\n    /// @param _operatorData Additional data with no specified format\r\n    function _burn(\r\n        address _operator,\r\n        address _from,\r\n        uint256[] memory _ids,\r\n        uint256[] memory _amounts,\r\n        bytes memory _data,\r\n        bytes memory _operatorData\r\n    ) internal {\r\n        require(_from != address(0), \"INVALID_ADDRESS\");\r\n        require(hasRole(BURNER_ROLE, _operator), \"INVALID_ROLE\");\r\n\r\n        callSender(_operator, _from, address(0), _ids, _amounts, _data, _operatorData);\r\n\r\n        for (uint256 i = 0; i < _ids.length; ++i) {\r\n            uint256 id = _ids[i];\r\n            uint256 amount = _amounts[i];\r\n            if (isNonFungible(id)) {\r\n                require(amount == 1, \"INVALID_AMOUNT\");\r\n                require(nfOwners[id] == _from, \"NOT_OWNER\");\r\n                nfOwners[id] == address(0);\r\n                uint256 baseType = getNonFungibleBaseType(id);\r\n                balances[baseType][_from] = balances[baseType][_from].sub(amount);\r\n            } else {\r\n                _checkGranularity(amount);\r\n                balances[id][_from] = balances[id][_from].sub(amount);\r\n            }\r\n            emit Burned(_operator, _from, id, amount, _data, _operatorData);\r\n        }\r\n    }\r\n\r\n    /// @notice Calls/Verifies the sender.\r\n    /// @param _operator    msg.sender\r\n    /// @param _from        Sender address\r\n    /// @param _to          Recepient address\r\n    /// @param _ids         IDs of the token type\r\n    /// @param _amounts     Burn amounts\r\n    /// @param _data        Additional data with no specified format\r\n    /// @param _operatorData Additional data with no specified format\r\n    function callSender(\r\n        address _operator,\r\n        address _from,\r\n        address _to,\r\n        uint256[] memory _ids,\r\n        uint256[] memory _amounts,\r\n        bytes memory _data,\r\n        bytes memory _operatorData\r\n    ) private {\r\n        address impl = erc1820.getInterfaceImplementer(_from, TOKEN_SENDER_INTERFACE_HASH);\r\n        if (impl != address(0)) {\r\n            ITokenSender(impl).tokensToSend(\r\n                _operator,\r\n                _from,\r\n                _to,\r\n                _ids,\r\n                _amounts,\r\n                _data,\r\n                _operatorData\r\n            );\r\n        }\r\n    }\r\n\r\n    /// @notice Calls/Verifies the recipient.\r\n    /// @param _operator    msg.sender\r\n    /// @param _from        Sender address\r\n    /// @param _to          Recepient address\r\n    /// @param _ids         IDs of the token type\r\n    /// @param _amounts     Burn amounts\r\n    /// @param _data        Additional data with no specified format\r\n    /// @param _operatorData Additional data with no specified format\r\n    function callReceiver(\r\n        address _operator,\r\n        address _from,\r\n        address _to,\r\n        uint256[] memory _ids,\r\n        uint256[] memory _amounts,\r\n        bytes memory _data,\r\n        bytes memory _operatorData\r\n    ) private {\r\n        address impl = erc1820.getInterfaceImplementer(_to, TOKEN_RECIPIENT_INTERFACE_HASH);\r\n        if (impl != address(0)) {\r\n            ITokenRecipient(impl).tokensReceived(\r\n                _operator,\r\n                _from,\r\n                _to,\r\n                _ids,\r\n                _amounts,\r\n                _data,\r\n                _operatorData\r\n            );\r\n        } else {\r\n            require(!_to.isContract(), \"INTERFACE_NOT_IMPLEMENTED\");\r\n        }\r\n    }\r\n\r\n    /// INTERNAL VIEWS\r\n\r\n    function _isOperatorFor(address _operator, address _holder) internal view returns (bool) {\r\n        return operators[_holder][_operator];\r\n    }\r\n\r\n    function _checkGranularity(uint256 _amount) internal view {\r\n        require(_amount % granularity == 0, \"INVALID_GRANULARITY\");\r\n    }\r\n}\r\n",
  "sourcePath": "C:/Users/Vahatra/Source/github-monorepo/contracts/token/contracts/Token.sol",
  "compiler": {
    "name": "solc",
    "version": "0.6.2+commit.bacdbe57.Emscripten.clang"
  },
  "schemaVersion": "3.3.1",
  "updatedAt": "2020-10-31T18:35:31.318Z",
  "devdoc": {
    "methods": {
      "authorizeOperator(address)": {
        "params": {
          "_operator": "Address to add to the set of authorized operators"
        }
      },
      "balanceOf(address,uint256)": {
        "params": {
          "_id": "ID of the Token",
          "_owner": "The address of the token holder"
        },
        "returns": {
          "_0": "The _owner's balance of the Token type requested"
        }
      },
      "balanceOfBatch(address[],uint256[])": {
        "params": {
          "_ids": "ID of the Tokens",
          "_owners": "The addresses of the token holders"
        },
        "returns": {
          "balances_": "  The _owner's balance of the Token types requested"
        }
      },
      "create(string,bool,bytes)": {
        "details": "Creates a new token",
        "params": {
          "_data": "Additional data with no specified format",
          "_isNF": "is non-fungible token",
          "uri": "URI of the token"
        },
        "returns": {
          "type_": "Token type (a unique identifier)"
        }
      },
      "getNonFungibleBaseType(uint256)": {
        "details": "Returns base type of non-fungible token"
      },
      "getNonFungibleIndex(uint256)": {
        "details": "Returns index of non-fungible token"
      },
      "getRoleAdmin(bytes32)": {
        "details": "Returns the admin role that controls `role`. See {grantRole} and {revokeRole}.     * To change a role's admin, use {_setRoleAdmin}."
      },
      "getRoleMember(bytes32,uint256)": {
        "details": "Returns one of the accounts that have `role`. `index` must be a value between 0 and {getRoleMemberCount}, non-inclusive.     * Role bearers are not sorted in any particular way, and their ordering may change at any point.     * WARNING: When using {getRoleMember} and {getRoleMemberCount}, make sure you perform all queries on the same block. See the following https://forum.openzeppelin.com/t/iterating-over-elements-on-enumerableset-in-openzeppelin-contracts/2296[forum post] for more information."
      },
      "getRoleMemberCount(bytes32)": {
        "details": "Returns the number of accounts that have `role`. Can be used together with {getRoleMember} to enumerate all bearers of a role."
      },
      "grantRole(bytes32,address)": {
        "details": "Grants `role` to `account`.     * If `account` had not been already granted `role`, emits a {RoleGranted} event.     * Requirements:     * - the caller must have ``role``'s admin role."
      },
      "hasRole(bytes32,address)": {
        "details": "Returns `true` if `account` has been granted `role`."
      },
      "isFungible(uint256)": {
        "details": "Returns true if token is fungible"
      },
      "isNonFungible(uint256)": {
        "details": "Returns true if token is non-fungible"
      },
      "isNonFungibleBaseType(uint256)": {
        "details": "Returns true if input is base-type of a non-fungible token"
      },
      "isNonFungibleItem(uint256)": {
        "details": "Returns true if input is a non-fungible token"
      },
      "isOperatorFor(address,address)": {
        "params": {
          "_holder": "The owner of the Tokens",
          "_operator": "Address of authorized operator"
        },
        "returns": {
          "_0": "True if the operator is approved, false if not"
        }
      },
      "mintFungible(uint256,address[],uint256[],bytes,bytes)": {
        "details": "Mints fungible tokens",
        "params": {
          "_amounts": "Amounts of minted tokens",
          "_data": "Additional data with no specified format",
          "_id": "Token type",
          "_operatorData": "Additional data with no specified format",
          "_to": "Beneficiaries of minted tokens"
        }
      },
      "mintNonFungible(uint256,address[],bytes,bytes)": {
        "details": "Mints a non-fungible token",
        "params": {
          "_data": "Additional data with no specified format",
          "_operatorData": "Additional data with no specified format",
          "_to": "Beneficiaries of minted tokens",
          "_type": "Token type"
        }
      },
      "ownerOf(uint256)": {
        "details": "returns owner of a non-fungible token"
      },
      "paused()": {
        "details": "Returns true if the contract is paused, and false otherwise."
      },
      "renounceRole(bytes32,address)": {
        "details": "Revokes `role` from the calling account.     * Roles are often managed via {grantRole} and {revokeRole}: this function's purpose is to provide a mechanism for accounts to lose their privileges if they are compromised (such as when a trusted device is misplaced).     * If the calling account had been granted `role`, emits a {RoleRevoked} event.     * Requirements:     * - the caller must be `account`."
      },
      "revokeOperator(address)": {
        "params": {
          "_operator": "Address to add to the set of authorized operators"
        }
      },
      "revokeRole(bytes32,address)": {
        "details": "Revokes `role` from `account`.     * If `account` had been granted `role`, emits a {RoleRevoked} event.     * Requirements:     * - the caller must have ``role``'s admin role."
      },
      "swap((address,uint256[],uint256[],uint256[],uint256[]),uint256,uint256,uint8,bytes32,bytes32,bytes)": {
        "params": {
          "_data": "Additional data with no specified format",
          "_expiry": "Time at which to expire the signature",
          "_nonce": "Contract state required to match the signature",
          "_r": "Half of the ECDSA signature pair",
          "_s": "Half of the ECDSA signature pair",
          "_swap": "Swap data",
          "_v": "Recovery byte of the signature"
        }
      }
    }
  },
  "userdoc": {
    "methods": {
      "authorizeOperator(address)": {
        "notice": "Set a third party operator address as an operator of msg.sender to send and burn tokens on its behalf."
      },
      "balanceOf(address,uint256)": {
        "notice": "EXTERNAL VIEWGet the balance of an account's Tokens."
      },
      "balanceOfBatch(address[],uint256[])": {
        "notice": "Get the balance of multiple account/token pairs."
      },
      "create(string,bool,bytes)": {
        "notice": "EXTERNAL"
      },
      "granularityNF()": {
        "notice": "Get the granularity of fungible tokens."
      },
      "initialize(uint256)": {
        "notice": "INIT"
      },
      "isOperatorFor(address,address)": {
        "notice": "Queries whether the operator address is an operator of the holder address."
      },
      "revokeOperator(address)": {
        "notice": "Remove the right of the operator address to be an operator for msg.sender and to send and burn tokens on its behalf."
      },
      "swap((address,uint256[],uint256[],uint256[],uint256[]),uint256,uint256,uint8,bytes32,bytes32,bytes)": {
        "notice": "PUBLICSwaps tokens."
      }
    }
  }
}