{
  "contractName": "VToken",
  "abi": [
    {
      "anonymous": false,
      "inputs": [
        {
          "indexed": true,
          "internalType": "address",
          "name": "operator",
          "type": "address"
        },
        {
          "indexed": true,
          "internalType": "address",
          "name": "holder",
          "type": "address"
        }
      ],
      "name": "AuthorizedOperator",
      "type": "event"
    },
    {
      "anonymous": false,
      "inputs": [
        {
          "indexed": false,
          "internalType": "address",
          "name": "operator",
          "type": "address"
        },
        {
          "indexed": true,
          "internalType": "address",
          "name": "from",
          "type": "address"
        },
        {
          "indexed": true,
          "internalType": "uint256",
          "name": "id",
          "type": "uint256"
        },
        {
          "indexed": false,
          "internalType": "uint256",
          "name": "amount",
          "type": "uint256"
        },
        {
          "indexed": false,
          "internalType": "bytes",
          "name": "data",
          "type": "bytes"
        },
        {
          "indexed": false,
          "internalType": "bytes",
          "name": "operatorData",
          "type": "bytes"
        }
      ],
      "name": "Burned",
      "type": "event"
    },
    {
      "anonymous": false,
      "inputs": [
        {
          "indexed": false,
          "internalType": "address",
          "name": "operator",
          "type": "address"
        },
        {
          "indexed": true,
          "internalType": "address",
          "name": "to",
          "type": "address"
        },
        {
          "indexed": true,
          "internalType": "uint256",
          "name": "id",
          "type": "uint256"
        },
        {
          "indexed": false,
          "internalType": "uint256",
          "name": "amount",
          "type": "uint256"
        },
        {
          "indexed": false,
          "internalType": "bytes",
          "name": "data",
          "type": "bytes"
        },
        {
          "indexed": false,
          "internalType": "bytes",
          "name": "operatorData",
          "type": "bytes"
        }
      ],
      "name": "Minted",
      "type": "event"
    },
    {
      "anonymous": false,
      "inputs": [
        {
          "indexed": true,
          "internalType": "address",
          "name": "operator",
          "type": "address"
        },
        {
          "indexed": true,
          "internalType": "address",
          "name": "holder",
          "type": "address"
        }
      ],
      "name": "RevokedOperator",
      "type": "event"
    },
    {
      "anonymous": false,
      "inputs": [
        {
          "indexed": false,
          "internalType": "address",
          "name": "operator",
          "type": "address"
        },
        {
          "indexed": true,
          "internalType": "address",
          "name": "from",
          "type": "address"
        },
        {
          "indexed": true,
          "internalType": "address",
          "name": "to",
          "type": "address"
        },
        {
          "indexed": true,
          "internalType": "uint256",
          "name": "id",
          "type": "uint256"
        },
        {
          "indexed": false,
          "internalType": "uint256",
          "name": "amount",
          "type": "uint256"
        },
        {
          "indexed": false,
          "internalType": "bytes",
          "name": "data",
          "type": "bytes"
        },
        {
          "indexed": false,
          "internalType": "bytes",
          "name": "operatorData",
          "type": "bytes"
        }
      ],
      "name": "Sent",
      "type": "event"
    },
    {
      "inputs": [],
      "name": "DOMAIN_SEPARATOR",
      "outputs": [
        {
          "internalType": "bytes32",
          "name": "",
          "type": "bytes32"
        }
      ],
      "stateMutability": "view",
      "type": "function"
    },
    {
      "inputs": [],
      "name": "EIP712_DOMAIN_TYPEHASH",
      "outputs": [
        {
          "internalType": "bytes32",
          "name": "",
          "type": "bytes32"
        }
      ],
      "stateMutability": "view",
      "type": "function"
    },
    {
      "inputs": [],
      "name": "SWAP_TYPEHASH",
      "outputs": [
        {
          "internalType": "bytes32",
          "name": "",
          "type": "bytes32"
        }
      ],
      "stateMutability": "view",
      "type": "function"
    },
    {
      "inputs": [
        {
          "components": [
            {
              "internalType": "address",
              "name": "sender",
              "type": "address"
            },
            {
              "internalType": "uint256[]",
              "name": "senderTokenIds",
              "type": "uint256[]"
            },
            {
              "internalType": "uint256[]",
              "name": "senderTokenAmounts",
              "type": "uint256[]"
            },
            {
              "internalType": "uint256[]",
              "name": "signerTokenIds",
              "type": "uint256[]"
            },
            {
              "internalType": "uint256[]",
              "name": "signerTokenAmounts",
              "type": "uint256[]"
            }
          ],
          "internalType": "struct SwapLib.Swap",
          "name": "_swap",
          "type": "tuple"
        },
        {
          "internalType": "uint256",
          "name": "_nonce",
          "type": "uint256"
        },
        {
          "internalType": "uint256",
          "name": "_expiry",
          "type": "uint256"
        },
        {
          "internalType": "uint8",
          "name": "_v",
          "type": "uint8"
        },
        {
          "internalType": "bytes32",
          "name": "_r",
          "type": "bytes32"
        },
        {
          "internalType": "bytes32",
          "name": "_s",
          "type": "bytes32"
        }
      ],
      "name": "SwapVerify",
      "outputs": [
        {
          "internalType": "address",
          "name": "signer_",
          "type": "address"
        }
      ],
      "stateMutability": "nonpayable",
      "type": "function"
    },
    {
      "inputs": [
        {
          "internalType": "uint256",
          "name": "",
          "type": "uint256"
        }
      ],
      "name": "creators",
      "outputs": [
        {
          "internalType": "address",
          "name": "",
          "type": "address"
        }
      ],
      "stateMutability": "view",
      "type": "function"
    },
    {
      "inputs": [
        {
          "internalType": "uint256",
          "name": "id",
          "type": "uint256"
        }
      ],
      "name": "getNonFungibleBaseType",
      "outputs": [
        {
          "internalType": "uint256",
          "name": "",
          "type": "uint256"
        }
      ],
      "stateMutability": "pure",
      "type": "function"
    },
    {
      "inputs": [
        {
          "internalType": "uint256",
          "name": "id",
          "type": "uint256"
        }
      ],
      "name": "getNonFungibleIndex",
      "outputs": [
        {
          "internalType": "uint256",
          "name": "",
          "type": "uint256"
        }
      ],
      "stateMutability": "pure",
      "type": "function"
    },
    {
      "inputs": [
        {
          "internalType": "uint256",
          "name": "id",
          "type": "uint256"
        }
      ],
      "name": "isFungible",
      "outputs": [
        {
          "internalType": "bool",
          "name": "",
          "type": "bool"
        }
      ],
      "stateMutability": "pure",
      "type": "function"
    },
    {
      "inputs": [
        {
          "internalType": "uint256",
          "name": "id",
          "type": "uint256"
        }
      ],
      "name": "isNonFungible",
      "outputs": [
        {
          "internalType": "bool",
          "name": "",
          "type": "bool"
        }
      ],
      "stateMutability": "pure",
      "type": "function"
    },
    {
      "inputs": [
        {
          "internalType": "uint256",
          "name": "id",
          "type": "uint256"
        }
      ],
      "name": "isNonFungibleBaseType",
      "outputs": [
        {
          "internalType": "bool",
          "name": "",
          "type": "bool"
        }
      ],
      "stateMutability": "pure",
      "type": "function"
    },
    {
      "inputs": [
        {
          "internalType": "uint256",
          "name": "id",
          "type": "uint256"
        }
      ],
      "name": "isNonFungibleItem",
      "outputs": [
        {
          "internalType": "bool",
          "name": "",
          "type": "bool"
        }
      ],
      "stateMutability": "pure",
      "type": "function"
    },
    {
      "inputs": [
        {
          "internalType": "uint256",
          "name": "",
          "type": "uint256"
        }
      ],
      "name": "maxIndex",
      "outputs": [
        {
          "internalType": "uint256",
          "name": "",
          "type": "uint256"
        }
      ],
      "stateMutability": "view",
      "type": "function"
    },
    {
      "inputs": [],
      "name": "name",
      "outputs": [
        {
          "internalType": "string",
          "name": "",
          "type": "string"
        }
      ],
      "stateMutability": "view",
      "type": "function"
    },
    {
      "inputs": [
        {
          "internalType": "uint256",
          "name": "id",
          "type": "uint256"
        }
      ],
      "name": "ownerOf",
      "outputs": [
        {
          "internalType": "address",
          "name": "",
          "type": "address"
        }
      ],
      "stateMutability": "view",
      "type": "function"
    },
    {
      "inputs": [
        {
          "internalType": "address",
          "name": "",
          "type": "address"
        }
      ],
      "name": "signerNonces",
      "outputs": [
        {
          "internalType": "uint256",
          "name": "",
          "type": "uint256"
        }
      ],
      "stateMutability": "view",
      "type": "function"
    },
    {
      "inputs": [
        {
          "internalType": "address[]",
          "name": "_defaultOperators",
          "type": "address[]"
        },
        {
          "internalType": "uint256",
          "name": "_granularity",
          "type": "uint256"
        }
      ],
      "name": "initialize",
      "outputs": [],
      "stateMutability": "nonpayable",
      "type": "function"
    },
    {
      "inputs": [
        {
          "internalType": "bool",
          "name": "_isNF",
          "type": "bool"
        }
      ],
      "name": "create",
      "outputs": [
        {
          "internalType": "uint256",
          "name": "type_",
          "type": "uint256"
        }
      ],
      "stateMutability": "nonpayable",
      "type": "function"
    },
    {
      "inputs": [
        {
          "internalType": "uint256",
          "name": "_id",
          "type": "uint256"
        },
        {
          "internalType": "address[]",
          "name": "_to",
          "type": "address[]"
        },
        {
          "internalType": "uint256[]",
          "name": "_amounts",
          "type": "uint256[]"
        },
        {
          "internalType": "bytes",
          "name": "_data",
          "type": "bytes"
        },
        {
          "internalType": "bytes",
          "name": "_operatorData",
          "type": "bytes"
        }
      ],
      "name": "mintFungible",
      "outputs": [],
      "stateMutability": "nonpayable",
      "type": "function"
    },
    {
      "inputs": [
        {
          "internalType": "uint256",
          "name": "_type",
          "type": "uint256"
        },
        {
          "internalType": "address[]",
          "name": "_to",
          "type": "address[]"
        },
        {
          "internalType": "bytes",
          "name": "_data",
          "type": "bytes"
        },
        {
          "internalType": "bytes",
          "name": "_operatorData",
          "type": "bytes"
        }
      ],
      "name": "mintNonFungible",
      "outputs": [],
      "stateMutability": "nonpayable",
      "type": "function"
    },
    {
      "inputs": [
        {
          "internalType": "address",
          "name": "_to",
          "type": "address"
        },
        {
          "internalType": "uint256[]",
          "name": "_ids",
          "type": "uint256[]"
        },
        {
          "internalType": "uint256[]",
          "name": "_amounts",
          "type": "uint256[]"
        },
        {
          "internalType": "bytes",
          "name": "_data",
          "type": "bytes"
        }
      ],
      "name": "send",
      "outputs": [],
      "stateMutability": "nonpayable",
      "type": "function"
    },
    {
      "inputs": [
        {
          "internalType": "address",
          "name": "_from",
          "type": "address"
        },
        {
          "internalType": "address",
          "name": "_to",
          "type": "address"
        },
        {
          "internalType": "uint256[]",
          "name": "_ids",
          "type": "uint256[]"
        },
        {
          "internalType": "uint256[]",
          "name": "_amounts",
          "type": "uint256[]"
        },
        {
          "internalType": "bytes",
          "name": "_data",
          "type": "bytes"
        },
        {
          "internalType": "bytes",
          "name": "_operatorData",
          "type": "bytes"
        }
      ],
      "name": "operatorSend",
      "outputs": [],
      "stateMutability": "nonpayable",
      "type": "function"
    },
    {
      "inputs": [
        {
          "components": [
            {
              "internalType": "address",
              "name": "sender",
              "type": "address"
            },
            {
              "internalType": "uint256[]",
              "name": "senderTokenIds",
              "type": "uint256[]"
            },
            {
              "internalType": "uint256[]",
              "name": "senderTokenAmounts",
              "type": "uint256[]"
            },
            {
              "internalType": "uint256[]",
              "name": "signerTokenIds",
              "type": "uint256[]"
            },
            {
              "internalType": "uint256[]",
              "name": "signerTokenAmounts",
              "type": "uint256[]"
            }
          ],
          "internalType": "struct SwapLib.Swap",
          "name": "_swap",
          "type": "tuple"
        },
        {
          "internalType": "uint256",
          "name": "_nonce",
          "type": "uint256"
        },
        {
          "internalType": "uint256",
          "name": "_expiry",
          "type": "uint256"
        },
        {
          "internalType": "uint8",
          "name": "_v",
          "type": "uint8"
        },
        {
          "internalType": "bytes32",
          "name": "_r",
          "type": "bytes32"
        },
        {
          "internalType": "bytes32",
          "name": "_s",
          "type": "bytes32"
        },
        {
          "internalType": "bytes",
          "name": "_data",
          "type": "bytes"
        }
      ],
      "name": "swap",
      "outputs": [],
      "stateMutability": "nonpayable",
      "type": "function"
    },
    {
      "inputs": [
        {
          "internalType": "uint256[]",
          "name": "_ids",
          "type": "uint256[]"
        },
        {
          "internalType": "uint256[]",
          "name": "_amounts",
          "type": "uint256[]"
        },
        {
          "internalType": "bytes",
          "name": "_data",
          "type": "bytes"
        }
      ],
      "name": "burn",
      "outputs": [],
      "stateMutability": "nonpayable",
      "type": "function"
    },
    {
      "inputs": [
        {
          "internalType": "address",
          "name": "_from",
          "type": "address"
        },
        {
          "internalType": "uint256[]",
          "name": "_ids",
          "type": "uint256[]"
        },
        {
          "internalType": "uint256[]",
          "name": "_amounts",
          "type": "uint256[]"
        },
        {
          "internalType": "bytes",
          "name": "_data",
          "type": "bytes"
        },
        {
          "internalType": "bytes",
          "name": "_operatorData",
          "type": "bytes"
        }
      ],
      "name": "operatorBurn",
      "outputs": [],
      "stateMutability": "nonpayable",
      "type": "function"
    },
    {
      "inputs": [
        {
          "internalType": "address",
          "name": "_operator",
          "type": "address"
        }
      ],
      "name": "authorizeOperator",
      "outputs": [],
      "stateMutability": "nonpayable",
      "type": "function"
    },
    {
      "inputs": [
        {
          "internalType": "address",
          "name": "_operator",
          "type": "address"
        }
      ],
      "name": "revokeOperator",
      "outputs": [],
      "stateMutability": "nonpayable",
      "type": "function"
    },
    {
      "inputs": [
        {
          "internalType": "address",
          "name": "_operator",
          "type": "address"
        },
        {
          "internalType": "address",
          "name": "_holder",
          "type": "address"
        }
      ],
      "name": "isOperatorFor",
      "outputs": [
        {
          "internalType": "bool",
          "name": "",
          "type": "bool"
        }
      ],
      "stateMutability": "view",
      "type": "function"
    },
    {
      "inputs": [
        {
          "internalType": "address",
          "name": "_owner",
          "type": "address"
        },
        {
          "internalType": "uint256",
          "name": "_id",
          "type": "uint256"
        }
      ],
      "name": "balanceOf",
      "outputs": [
        {
          "internalType": "uint256",
          "name": "",
          "type": "uint256"
        }
      ],
      "stateMutability": "view",
      "type": "function"
    },
    {
      "inputs": [
        {
          "internalType": "address[]",
          "name": "_owners",
          "type": "address[]"
        },
        {
          "internalType": "uint256[]",
          "name": "_ids",
          "type": "uint256[]"
        }
      ],
      "name": "balanceOfBatch",
      "outputs": [
        {
          "internalType": "uint256[]",
          "name": "balances_",
          "type": "uint256[]"
        }
      ],
      "stateMutability": "view",
      "type": "function"
    }
  ],
  "bytecode": "0x6080604052604051620000129062000178565b60405180910390206040518060400160405280600781526020017f56616861747261000000000000000000000000000000000000000000000000008152508051906020012062000067620000aa60201b60201c565b306040516020016200007d94939291906200018f565b60405160208183030381529060405280519060200120600155348015620000a357600080fd5b506200022f565b6000804690508091505090565b620000c281620001e7565b82525050565b620000d381620001fb565b82525050565b6000620000e8604383620001dc565b91507f454950373132446f6d61696e28737472696e67206e616d652c75696e7432353660008301527f20636861696e49642c6164647265737320766572696679696e67436f6e74726160208301527f63742900000000000000000000000000000000000000000000000000000000006040830152604382019050919050565b620001728162000225565b82525050565b60006200018582620000d9565b9150819050919050565b6000608082019050620001a66000830187620000c8565b620001b56020830186620000c8565b620001c4604083018562000167565b620001d36060830184620000b7565b95945050505050565b600081905092915050565b6000620001f48262000205565b9050919050565b6000819050919050565b600073ffffffffffffffffffffffffffffffffffffffff82169050919050565b6000819050919050565b614a54806200023f6000396000f3fe608060405234801561001057600080fd5b50600436106101ce5760003560e01c80636352211e11610104578063adebf6f2116100a2578063d95b637111610071578063d95b637114610587578063db5a4ce6146105b7578063e44591f0146105e7578063fad8b32a14610617576101ce565b8063adebf6f2146104ed578063c1e206d81461051d578063c7977be714610539578063cd53d08e14610557576101ce565b80637eff2890116100de5780637eff289014610455578063959b8c3f146104715780639cca1c641461048d578063abd9e333146104bd576101ce565b80636352211e146103c55780636f969c2d146103f55780637269a32714610425576101ce565b80634bc30ea711610171578063536060571161014b57806353606057146103415780635d9ab0991461035d5780635e81b9581461037957806360b5bb3f146103a9576101ce565b80634bc30ea7146102d75780634d2d80c4146102f55780634e1273f414610311576101ce565b80632d0baf54116101ad5780632d0baf54146102515780633644e5151461026d5780633c850b1f1461028b578063428465c1146102bb576101ce565b8062fdd58e146101d357806306fdde031461020357806308d7d46914610221575b600080fd5b6101ed60048036036101e891908101906133fd565b610633565b6040516101fa919061474a565b60405180910390f35b61020b610717565b60405161021891906144c6565b60405180910390f35b61023b60048036036102369190810190613742565b610750565b604051610248919061474a565b60405180910390f35b61026b6004803603610266919081019061376b565b610768565b005b610275610a39565b60405161028291906143e9565b60405180910390f35b6102a560048036036102a091908101906130fb565b610a3f565b6040516102b2919061474a565b60405180910390f35b6102d560048036036102d09190810190613506565b610a57565b005b6102df610b42565b6040516102ec91906143e9565b60405180910390f35b61030f600480360361030a9190810190613315565b610b59565b005b61032b60048036036103269190810190613439565b610cc5565b60405161033891906143ac565b60405180910390f35b61035b60048036036103569190810190613853565b610ecc565b005b61037760048036036103729190810190613160565b6111db565b005b610393600480360361038e9190810190613742565b611349565b6040516103a091906143ce565b60405180910390f35b6103c360048036036103be91908101906134ae565b6113b8565b005b6103df60048036036103da9190810190613742565b611571565b6040516103ec9190614241565b60405180910390f35b61040f600480360361040a9190810190613742565b6115ae565b60405161041c919061474a565b60405180910390f35b61043f600480360361043a9190810190613742565b6115f0565b60405161044c91906143ce565b60405180910390f35b61046f600480360361046a919081019061325c565b61165e565b005b61048b600480360361048691908101906130fb565b61174b565b005b6104a760048036036104a29190810190613742565b611999565b6040516104b4919061474a565b60405180910390f35b6104d760048036036104d291908101906135d3565b6119d7565b6040516104e49190614241565b60405180910390f35b61050760048036036105029190810190613742565b611b7d565b60405161051491906143ce565b60405180910390f35b61053760048036036105329190810190613674565b611bab565b005b610541611c13565b60405161054e91906143e9565b60405180910390f35b610571600480360361056c9190810190613742565b611c2a565b60405161057e9190614241565b60405180910390f35b6105a1600480360361059c9190810190613124565b611c5d565b6040516105ae91906143ce565b60405180910390f35b6105d160048036036105cc91908101906135aa565b611c71565b6040516105de919061474a565b60405180910390f35b61060160048036036105fc9190810190613742565b611d76565b60405161060e91906143ce565b60405180910390f35b610631600480360361062c91908101906130fb565b611da4565b005b600061063e82611349565b156106bd578273ffffffffffffffffffffffffffffffffffffffff166002600084815260200190815260200160002060009054906101000a900473ffffffffffffffffffffffffffffffffffffffff1673ffffffffffffffffffffffffffffffffffffffff16146106b05760006106b3565b60015b60ff169050610711565b6008600083815260200190815260200160002060008473ffffffffffffffffffffffffffffffffffffffff1673ffffffffffffffffffffffffffffffffffffffff1681526020019081526020016000205490505b92915050565b6040518060400160405280600781526020017f566168617472610000000000000000000000000000000000000000000000000081525081565b60066020528060005260406000206000915090505481565b883373ffffffffffffffffffffffffffffffffffffffff166005600083815260200190815260200160002060009054906101000a900473ffffffffffffffffffffffffffffffffffffffff1673ffffffffffffffffffffffffffffffffffffffff161461080a576040517f08c379a00000000000000000000000000000000000000000000000000000000081526004016108019061470a565b60405180910390fd5b6108138a611b7d565b610852576040517f08c379a00000000000000000000000000000000000000000000000000000000081526004016108499061468a565b60405180910390fd5b60008090505b89899050811015610a2c5760008a8a8381811061087157fe5b905060200201602061088691908101906130fb565b9050600073ffffffffffffffffffffffffffffffffffffffff168173ffffffffffffffffffffffffffffffffffffffff1614156108f8576040517f08c379a00000000000000000000000000000000000000000000000000000000081526004016108ef906146ca565b60405180910390fd5b600089898481811061090657fe5b905060200201359050610972600860008f815260200190815260200160002060008473ffffffffffffffffffffffffffffffffffffffff1673ffffffffffffffffffffffffffffffffffffffff1681526020019081526020016000205482611ff290919063ffffffff16565b600860008f815260200190815260200160002060008473ffffffffffffffffffffffffffffffffffffffff1673ffffffffffffffffffffffffffffffffffffffff168152602001908152602001600020819055508c8273ffffffffffffffffffffffffffffffffffffffff167f3c2ecef3eb8bfe571b65f95f1015446c317f8c8d975971d3a99acd4fcda98b0533848c8c8c8c604051610a1796959493929190614302565b60405180910390a35050806001019050610858565b5050505050505050505050565b60015481565b60006020528060005260406000206000915090505481565b610b3a3333888880806020026020016040519081016040528093929190818152602001838360200280828437600081840152601f19601f82011690508083019250505050505050878780806020026020016040519081016040528093929190818152602001838360200280828437600081840152601f19601f8201169050808301925050505050505086868080601f016020809104026020016040519081016040528093929190818152602001838380828437600081840152601f19601f8201169050808301925050505050505060405180602001604052806000815250612047565b505050505050565b604051610b4e906141e0565b604051809103902081565b610b63338a612416565b610ba2576040517f08c379a0000000000000000000000000000000000000000000000000000000008152600401610b99906145ca565b60405180910390fd5b610cba338a8a8a80806020026020016040519081016040528093929190818152602001838360200280828437600081840152601f19601f82011690508083019250505050505050898980806020026020016040519081016040528093929190818152602001838360200280828437600081840152601f19601f8201169050808301925050505050505088888080601f016020809104026020016040519081016040528093929190818152602001838380828437600081840152601f19601f8201169050808301925050505050505087878080601f016020809104026020016040519081016040528093929190818152602001838380828437600081840152601f19601f82011690508083019250505050505050612047565b505050505050505050565b6060828290508585905014610d0f576040517f08c379a0000000000000000000000000000000000000000000000000000000008152600401610d069061454a565b60405180910390fd5b84849050604051908082528060200260200182016040528015610d415781602001602082028038833980820191505090505b50905060008090505b85859050811015610ec0576000848483818110610d6357fe5b905060200201359050610d7581611349565b15610e2a57868683818110610d8657fe5b9050602002016020610d9b91908101906130fb565b73ffffffffffffffffffffffffffffffffffffffff166002600083815260200190815260200160002060009054906101000a900473ffffffffffffffffffffffffffffffffffffffff1673ffffffffffffffffffffffffffffffffffffffff1614610e07576000610e0a565b60015b60ff16838381518110610e1957fe5b602002602001018181525050610eb4565b600860008281526020019081526020016000206000888885818110610e4b57fe5b9050602002016020610e6091908101906130fb565b73ffffffffffffffffffffffffffffffffffffffff1673ffffffffffffffffffffffffffffffffffffffff16815260200190815260200160002054838381518110610ea757fe5b6020026020010181815250505b50806001019050610d4a565b50809050949350505050565b863373ffffffffffffffffffffffffffffffffffffffff166005600083815260200190815260200160002060009054906101000a900473ffffffffffffffffffffffffffffffffffffffff1673ffffffffffffffffffffffffffffffffffffffff1614610f6e576040517f08c379a0000000000000000000000000000000000000000000000000000000008152600401610f659061470a565b60405180910390fd5b610f7788611d76565b610fb6576040517f08c379a0000000000000000000000000000000000000000000000000000000008152600401610fad9061462a565b60405180910390fd5b60006001600660008b81526020019081526020016000205401905060008090505b8888905081101561118f576000898983818110610ff057fe5b905060200201602061100591908101906130fb565b9050600073ffffffffffffffffffffffffffffffffffffffff168173ffffffffffffffffffffffffffffffffffffffff161415611077576040517f08c379a000000000000000000000000000000000000000000000000000000000815260040161106e906146ca565b60405180910390fd5b60008284018c179050816002600083815260200190815260200160002060006101000a81548173ffffffffffffffffffffffffffffffffffffffff021916908373ffffffffffffffffffffffffffffffffffffffff1602179055506001600860008e815260200190815260200160002060008473ffffffffffffffffffffffffffffffffffffffff1673ffffffffffffffffffffffffffffffffffffffff16815260200190815260200160002081905550808273ffffffffffffffffffffffffffffffffffffffff167f3c2ecef3eb8bfe571b65f95f1015446c317f8c8d975971d3a99acd4fcda98b053360018d8d8d8d60405161117a969594939291906142ab565b60405180910390a35050806001019050610fd7565b506111b9600660008b81526020019081526020016000205489899050611ff290919063ffffffff16565b600660008b815260200190815260200160002081905550505050505050505050565b6111e5338b612416565b611224576040517f08c379a000000000000000000000000000000000000000000000000000000000815260040161121b906145ca565b60405180910390fd5b61133d338b8b8b8b80806020026020016040519081016040528093929190818152602001838360200280828437600081840152601f19601f820116905080830192505050505050508a8a80806020026020016040519081016040528093929190818152602001838360200280828437600081840152601f19601f8201169050808301925050505050505089898080601f016020809104026020016040519081016040528093929190818152602001838380828437600081840152601f19601f8201169050808301925050505050505088888080601f016020809104026020016040519081016040528093929190818152602001838380828437600081840152601f19601f820116905080830192505050505050506125c7565b50505050505050505050565b60007f80000000000000000000000000000000000000000000000000000000000000008083161480156113b1575060007fffffffffffffffffffffffffffffffffffffffffffffffffffffffffffffffff6fffffffffffffffffffffffffffffffff16831614155b9050919050565b600360019054906101000a900460ff16806113d757506113d6612b7a565b5b806113ef5750600360009054906101000a900460ff16155b61142e576040517f08c379a0000000000000000000000000000000000000000000000000000000008152600401611425906145ea565b60405180910390fd5b6000600360019054906101000a900460ff161590508015611480576001600360016101000a81548160ff0219169083151502179055506001600360006101000a81548160ff0219169083151502179055505b81600781905550838360099190611498929190612d12565b5060008090505b600980549050811015611548576001600a6000600984815481106114bf57fe5b9060005260206000200160009054906101000a900473ffffffffffffffffffffffffffffffffffffffff1673ffffffffffffffffffffffffffffffffffffffff1673ffffffffffffffffffffffffffffffffffffffff16815260200190815260200160002060006101000a81548160ff021916908315150217905550808060010191505061149f565b50801561156b576000600360016101000a81548160ff0219169083151502179055505b50505050565b60006002600083815260200190815260200160002060009054906101000a900473ffffffffffffffffffffffffffffffffffffffff169050919050565b600060807fffffffffffffffffffffffffffffffffffffffffffffffffffffffffffffffff6fffffffffffffffffffffffffffffffff16901b82169050919050565b60007f8000000000000000000000000000000000000000000000000000000000000000808316148015611657575060007fffffffffffffffffffffffffffffffffffffffffffffffffffffffffffffffff6fffffffffffffffffffffffffffffffff168316145b9050919050565b611742333389898980806020026020016040519081016040528093929190818152602001838360200280828437600081840152601f19601f82011690508083019250505050505050888880806020026020016040519081016040528093929190818152602001838360200280828437600081840152601f19601f8201169050808301925050505050505087878080601f016020809104026020016040519081016040528093929190818152602001838380828437600081840152601f19601f82011690508083019250505050505050604051806020016040528060008152506125c7565b50505050505050565b8073ffffffffffffffffffffffffffffffffffffffff163373ffffffffffffffffffffffffffffffffffffffff1614156117ba576040517f08c379a00000000000000000000000000000000000000000000000000000000081526004016117b1906146ea565b60405180910390fd5b600a60008273ffffffffffffffffffffffffffffffffffffffff1673ffffffffffffffffffffffffffffffffffffffff16815260200190815260200160002060009054906101000a900460ff16156118a6576000600c60003373ffffffffffffffffffffffffffffffffffffffff1673ffffffffffffffffffffffffffffffffffffffff16815260200190815260200160002060008373ffffffffffffffffffffffffffffffffffffffff1673ffffffffffffffffffffffffffffffffffffffff16815260200190815260200160002060006101000a81548160ff02191690831515021790555061193c565b6001600b60003373ffffffffffffffffffffffffffffffffffffffff1673ffffffffffffffffffffffffffffffffffffffff16815260200190815260200160002060008373ffffffffffffffffffffffffffffffffffffffff1673ffffffffffffffffffffffffffffffffffffffff16815260200190815260200160002060006101000a81548160ff0219169083151502179055505b3373ffffffffffffffffffffffffffffffffffffffff168173ffffffffffffffffffffffffffffffffffffffff167ff4caeb2d6ca8932a215a353d0703c326ec2d81fc68170f320eb2ab49e9df61f960405160405180910390a350565b60007fffffffffffffffffffffffffffffffffffffffffffffffffffffffffffffffff6fffffffffffffffffffffffffffffffff1682169050919050565b600060016119e488612b91565b85858560405160008152602001604052604051611a049493929190614481565b6020604051602081039080840390855afa158015611a26573d6000803e3d6000fd5b505050602060405103519050600073ffffffffffffffffffffffffffffffffffffffff168173ffffffffffffffffffffffffffffffffffffffff161415611aa2576040517f08c379a0000000000000000000000000000000000000000000000000000000008152600401611a999061466a565b60405180910390fd5b6000808273ffffffffffffffffffffffffffffffffffffffff1673ffffffffffffffffffffffffffffffffffffffff1681526020019081526020016000206000815480929190600101919050558614611b30576040517f08c379a0000000000000000000000000000000000000000000000000000000008152600401611b279061464a565b60405180910390fd5b84421115611b73576040517f08c379a0000000000000000000000000000000000000000000000000000000008152600401611b6a906145aa565b60405180910390fd5b9695505050505050565b6000807f80000000000000000000000000000000000000000000000000000000000000008316149050919050565b6000611bbb8888888888886119d7565b9050611be33333838b602001518c6040015187604051806020016040528060008152506125c7565b611c098182338b606001518c6080015187604051806020016040528060008152506125c7565b5050505050505050565b604051611c1f906141f5565b604051809103902081565b60056020528060005260406000206000915054906101000a900473ffffffffffffffffffffffffffffffffffffffff1681565b6000611c698383612416565b905092915050565b60006080600460008154600101919050819055901b90508115611cb4577f8000000000000000000000000000000000000000000000000000000000000000811790505b336005600083815260200190815260200160002060006101000a81548173ffffffffffffffffffffffffffffffffffffffff021916908373ffffffffffffffffffffffffffffffffffffffff16021790555080600073ffffffffffffffffffffffffffffffffffffffff16600073ffffffffffffffffffffffffffffffffffffffff167fd8f74616455d4f655e590ebc8258f54015e99d0357ae1e905b12d15576d03720336000604051611d6992919061425c565b60405180910390a4919050565b60007f8000000000000000000000000000000000000000000000000000000000000000808316149050919050565b8073ffffffffffffffffffffffffffffffffffffffff163373ffffffffffffffffffffffffffffffffffffffff161415611e13576040517f08c379a0000000000000000000000000000000000000000000000000000000008152600401611e0a906146ea565b60405180910390fd5b600a60008273ffffffffffffffffffffffffffffffffffffffff1673ffffffffffffffffffffffffffffffffffffffff16815260200190815260200160002060009054906101000a900460ff1615611eff576001600c60003373ffffffffffffffffffffffffffffffffffffffff1673ffffffffffffffffffffffffffffffffffffffff16815260200190815260200160002060008373ffffffffffffffffffffffffffffffffffffffff1673ffffffffffffffffffffffffffffffffffffffff16815260200190815260200160002060006101000a81548160ff021916908315150217905550611f95565b6000600b60003373ffffffffffffffffffffffffffffffffffffffff1673ffffffffffffffffffffffffffffffffffffffff16815260200190815260200160002060008373ffffffffffffffffffffffffffffffffffffffff1673ffffffffffffffffffffffffffffffffffffffff16815260200190815260200160002060006101000a81548160ff0219169083151502179055505b3373ffffffffffffffffffffffffffffffffffffffff168173ffffffffffffffffffffffffffffffffffffffff167f50546e66e5f44d728365dc3908c63bc5cfeeab470722c1677e3073a6ac294aa160405160405180910390a350565b60008082840190508381101561203d576040517f08c379a00000000000000000000000000000000000000000000000000000000081526004016120349061452a565b60405180910390fd5b8091505092915050565b600073ffffffffffffffffffffffffffffffffffffffff168573ffffffffffffffffffffffffffffffffffffffff1614156120b7576040517f08c379a00000000000000000000000000000000000000000000000000000000081526004016120ae906146aa565b60405180910390fd5b60008090505b845181101561240d5760008582815181106120d457fe5b6020026020010151905060008583815181106120ec57fe5b602002602001015190506120ff82611d76565b156122ea5760018114612147576040517f08c379a000000000000000000000000000000000000000000000000000000000815260040161213e9061460a565b60405180910390fd5b8773ffffffffffffffffffffffffffffffffffffffff166002600084815260200190815260200160002060009054906101000a900473ffffffffffffffffffffffffffffffffffffffff1673ffffffffffffffffffffffffffffffffffffffff16146121e8576040517f08c379a00000000000000000000000000000000000000000000000000000000081526004016121df9061456a565b60405180910390fd5b600073ffffffffffffffffffffffffffffffffffffffff166002600084815260200190815260200160002060009054906101000a90505050600061222b836115ae565b9050612290826008600084815260200190815260200160002060008c73ffffffffffffffffffffffffffffffffffffffff1673ffffffffffffffffffffffffffffffffffffffff16815260200190815260200160002054612c1c90919063ffffffff16565b6008600083815260200190815260200160002060008b73ffffffffffffffffffffffffffffffffffffffff1673ffffffffffffffffffffffffffffffffffffffff16815260200190815260200160002081905550506123ab565b6122f381612c66565b612356816008600085815260200190815260200160002060008b73ffffffffffffffffffffffffffffffffffffffff1673ffffffffffffffffffffffffffffffffffffffff16815260200190815260200160002054612c1c90919063ffffffff16565b6008600084815260200190815260200160002060008a73ffffffffffffffffffffffffffffffffffffffff1673ffffffffffffffffffffffffffffffffffffffff168152602001908152602001600020819055505b818873ffffffffffffffffffffffffffffffffffffffff167f445046c439885ef9a7a8d144cb29b5c18e69bdaec44380162337529362eba4448b8489896040516123f89493929190614359565b60405180910390a350508060010190506120bd565b50505050505050565b60008273ffffffffffffffffffffffffffffffffffffffff168273ffffffffffffffffffffffffffffffffffffffff16148061252e5750600a60008473ffffffffffffffffffffffffffffffffffffffff1673ffffffffffffffffffffffffffffffffffffffff16815260200190815260200160002060009054906101000a900460ff16801561252d5750600c60008373ffffffffffffffffffffffffffffffffffffffff1673ffffffffffffffffffffffffffffffffffffffff16815260200190815260200160002060008473ffffffffffffffffffffffffffffffffffffffff1673ffffffffffffffffffffffffffffffffffffffff16815260200190815260200160002060009054906101000a900460ff16155b5b806125bf5750600b60008373ffffffffffffffffffffffffffffffffffffffff1673ffffffffffffffffffffffffffffffffffffffff16815260200190815260200160002060008473ffffffffffffffffffffffffffffffffffffffff1673ffffffffffffffffffffffffffffffffffffffff16815260200190815260200160002060009054906101000a900460ff165b905092915050565b600073ffffffffffffffffffffffffffffffffffffffff168573ffffffffffffffffffffffffffffffffffffffff161415612637576040517f08c379a000000000000000000000000000000000000000000000000000000000815260040161262e9061450a565b60405180910390fd5b825184511461267b576040517f08c379a00000000000000000000000000000000000000000000000000000000081526004016126729061458a565b60405180910390fd5b60008090505b8451811015612b7057600085828151811061269857fe5b6020026020010151905060008583815181106126b057fe5b602002602001015190506126c382611d76565b1561297f576001811461270b576040517f08c379a00000000000000000000000000000000000000000000000000000000081526004016127029061460a565b60405180910390fd5b8873ffffffffffffffffffffffffffffffffffffffff166002600084815260200190815260200160002060009054906101000a900473ffffffffffffffffffffffffffffffffffffffff1673ffffffffffffffffffffffffffffffffffffffff16146127ac576040517f08c379a00000000000000000000000000000000000000000000000000000000081526004016127a39061456a565b60405180910390fd5b876002600084815260200190815260200160002060006101000a81548173ffffffffffffffffffffffffffffffffffffffff021916908373ffffffffffffffffffffffffffffffffffffffff1602179055506000612809836115ae565b905061286e826008600084815260200190815260200160002060008d73ffffffffffffffffffffffffffffffffffffffff1673ffffffffffffffffffffffffffffffffffffffff16815260200190815260200160002054612c1c90919063ffffffff16565b6008600083815260200190815260200160002060008c73ffffffffffffffffffffffffffffffffffffffff1673ffffffffffffffffffffffffffffffffffffffff16815260200190815260200160002081905550612925826008600084815260200190815260200160002060008c73ffffffffffffffffffffffffffffffffffffffff1673ffffffffffffffffffffffffffffffffffffffff16815260200190815260200160002054611ff290919063ffffffff16565b6008600083815260200190815260200160002060008b73ffffffffffffffffffffffffffffffffffffffff1673ffffffffffffffffffffffffffffffffffffffff1681526020019081526020016000208190555050612af7565b61298881612c66565b6129eb816008600085815260200190815260200160002060008c73ffffffffffffffffffffffffffffffffffffffff1673ffffffffffffffffffffffffffffffffffffffff16815260200190815260200160002054612c1c90919063ffffffff16565b6008600084815260200190815260200160002060008b73ffffffffffffffffffffffffffffffffffffffff1673ffffffffffffffffffffffffffffffffffffffff16815260200190815260200160002081905550612aa2816008600085815260200190815260200160002060008b73ffffffffffffffffffffffffffffffffffffffff1673ffffffffffffffffffffffffffffffffffffffff16815260200190815260200160002054611ff290919063ffffffff16565b6008600084815260200190815260200160002060008a73ffffffffffffffffffffffffffffffffffffffff1673ffffffffffffffffffffffffffffffffffffffff168152602001908152602001600020819055505b818873ffffffffffffffffffffffffffffffffffffffff168a73ffffffffffffffffffffffffffffffffffffffff167fd8f74616455d4f655e590ebc8258f54015e99d0357ae1e905b12d15576d037208d858a8a604051612b5b9493929190614359565b60405180910390a45050806001019050612681565b5050505050505050565b6000803090506000813b9050600081149250505090565b6000600154604051612ba2906141e0565b604051809103902083600001518460200151856040015186606001518760800151604051602001612bd896959493929190614404565b60405160208183030381529060405280519060200120604051602001612bff92919061420a565b604051602081830303815290604052805190602001209050919050565b6000612c5e83836040518060400160405280601e81526020017f536166654d6174683a207375627472616374696f6e206f766572666c6f770000815250612cb7565b905092915050565b60006007548281612c7357fe5b0614612cb4576040517f08c379a0000000000000000000000000000000000000000000000000000000008152600401612cab9061472a565b60405180910390fd5b50565b6000838311158290612cff576040517f08c379a0000000000000000000000000000000000000000000000000000000008152600401612cf691906144e8565b60405180910390fd5b5060008385039050809150509392505050565b828054828255906000526020600020908101928215612da1579160200282015b82811115612da057823573ffffffffffffffffffffffffffffffffffffffff168260006101000a81548173ffffffffffffffffffffffffffffffffffffffff021916908373ffffffffffffffffffffffffffffffffffffffff16021790555091602001919060010190612d32565b5b509050612dae9190612db2565b5090565b612df291905b80821115612dee57600081816101000a81549073ffffffffffffffffffffffffffffffffffffffff021916905550600101612db8565b5090565b90565b600081359050612e04816149ab565b92915050565b60008083601f840112612e1c57600080fd5b8235905067ffffffffffffffff811115612e3557600080fd5b602083019150836020820283011115612e4d57600080fd5b9250929050565b60008083601f840112612e6657600080fd5b8235905067ffffffffffffffff811115612e7f57600080fd5b602083019150836020820283011115612e9757600080fd5b9250929050565b600082601f830112612eaf57600080fd5b8135612ec2612ebd82614792565b614765565b91508181835260208401935060208101905083856020840282011115612ee757600080fd5b60005b83811015612f175781612efd88826130d1565b845260208401935060208301925050600181019050612eea565b5050505092915050565b600081359050612f30816149c2565b92915050565b600081359050612f45816149d9565b92915050565b60008083601f840112612f5d57600080fd5b8235905067ffffffffffffffff811115612f7657600080fd5b602083019150836001820283011115612f8e57600080fd5b9250929050565b600082601f830112612fa657600080fd5b8135612fb9612fb4826147ba565b614765565b91508082526020830160208301858383011115612fd557600080fd5b612fe083828461494e565b50505092915050565b600060a08284031215612ffb57600080fd5b61300560a0614765565b9050600061301584828501612df5565b600083015250602082013567ffffffffffffffff81111561303557600080fd5b61304184828501612e9e565b602083015250604082013567ffffffffffffffff81111561306157600080fd5b61306d84828501612e9e565b604083015250606082013567ffffffffffffffff81111561308d57600080fd5b61309984828501612e9e565b606083015250608082013567ffffffffffffffff8111156130b957600080fd5b6130c584828501612e9e565b60808301525092915050565b6000813590506130e0816149f0565b92915050565b6000813590506130f581614a07565b92915050565b60006020828403121561310d57600080fd5b600061311b84828501612df5565b91505092915050565b6000806040838503121561313757600080fd5b600061314585828601612df5565b925050602061315685828601612df5565b9150509250929050565b60008060008060008060008060008060c08b8d03121561317f57600080fd5b600061318d8d828e01612df5565b9a5050602061319e8d828e01612df5565b99505060408b013567ffffffffffffffff8111156131bb57600080fd5b6131c78d828e01612e54565b985098505060608b013567ffffffffffffffff8111156131e657600080fd5b6131f28d828e01612e54565b965096505060808b013567ffffffffffffffff81111561321157600080fd5b61321d8d828e01612f4b565b945094505060a08b013567ffffffffffffffff81111561323c57600080fd5b6132488d828e01612f4b565b92509250509295989b9194979a5092959850565b60008060008060008060006080888a03121561327757600080fd5b60006132858a828b01612df5565b975050602088013567ffffffffffffffff8111156132a257600080fd5b6132ae8a828b01612e54565b9650965050604088013567ffffffffffffffff8111156132cd57600080fd5b6132d98a828b01612e54565b9450945050606088013567ffffffffffffffff8111156132f857600080fd5b6133048a828b01612f4b565b925092505092959891949750929550565b600080600080600080600080600060a08a8c03121561333357600080fd5b60006133418c828d01612df5565b99505060208a013567ffffffffffffffff81111561335e57600080fd5b61336a8c828d01612e54565b985098505060408a013567ffffffffffffffff81111561338957600080fd5b6133958c828d01612e54565b965096505060608a013567ffffffffffffffff8111156133b457600080fd5b6133c08c828d01612f4b565b945094505060808a013567ffffffffffffffff8111156133df57600080fd5b6133eb8c828d01612f4b565b92509250509295985092959850929598565b6000806040838503121561341057600080fd5b600061341e85828601612df5565b925050602061342f858286016130d1565b9150509250929050565b6000806000806040858703121561344f57600080fd5b600085013567ffffffffffffffff81111561346957600080fd5b61347587828801612e0a565b9450945050602085013567ffffffffffffffff81111561349457600080fd5b6134a087828801612e54565b925092505092959194509250565b6000806000604084860312156134c357600080fd5b600084013567ffffffffffffffff8111156134dd57600080fd5b6134e986828701612e0a565b935093505060206134fc868287016130d1565b9150509250925092565b6000806000806000806060878903121561351f57600080fd5b600087013567ffffffffffffffff81111561353957600080fd5b61354589828a01612e54565b9650965050602087013567ffffffffffffffff81111561356457600080fd5b61357089828a01612e54565b9450945050604087013567ffffffffffffffff81111561358f57600080fd5b61359b89828a01612f4b565b92509250509295509295509295565b6000602082840312156135bc57600080fd5b60006135ca84828501612f21565b91505092915050565b60008060008060008060c087890312156135ec57600080fd5b600087013567ffffffffffffffff81111561360657600080fd5b61361289828a01612fe9565b965050602061362389828a016130d1565b955050604061363489828a016130d1565b945050606061364589828a016130e6565b935050608061365689828a01612f36565b92505060a061366789828a01612f36565b9150509295509295509295565b600080600080600080600060e0888a03121561368f57600080fd5b600088013567ffffffffffffffff8111156136a957600080fd5b6136b58a828b01612fe9565b97505060206136c68a828b016130d1565b96505060406136d78a828b016130d1565b95505060606136e88a828b016130e6565b94505060806136f98a828b01612f36565b93505060a061370a8a828b01612f36565b92505060c088013567ffffffffffffffff81111561372757600080fd5b6137338a828b01612f95565b91505092959891949750929550565b60006020828403121561375457600080fd5b6000613762848285016130d1565b91505092915050565b600080600080600080600080600060a08a8c03121561378957600080fd5b60006137978c828d016130d1565b99505060208a013567ffffffffffffffff8111156137b457600080fd5b6137c08c828d01612e0a565b985098505060408a013567ffffffffffffffff8111156137df57600080fd5b6137eb8c828d01612e54565b965096505060608a013567ffffffffffffffff81111561380a57600080fd5b6138168c828d01612f4b565b945094505060808a013567ffffffffffffffff81111561383557600080fd5b6138418c828d01612f4b565b92509250509295985092959850929598565b60008060008060008060006080888a03121561386e57600080fd5b600061387c8a828b016130d1565b975050602088013567ffffffffffffffff81111561389957600080fd5b6138a58a828b01612e0a565b9650965050604088013567ffffffffffffffff8111156138c457600080fd5b6138d08a828b01612f4b565b9450945050606088013567ffffffffffffffff8111156138ef57600080fd5b6138fb8a828b01612f4b565b925092505092959891949750929550565b600061391883836141b3565b60208301905092915050565b61392d816148f4565b82525050565b61393c81614895565b82525050565b600061394d82614811565b6139578185614857565b9350613962836147f6565b8060005b8381101561399357815161397a888261390c565b97506139858361484a565b925050600181019050613966565b5085935050505092915050565b60006139ab82614806565b6139b58185614857565b93506139c0836147e6565b8060005b838110156139f15781516139d8888261390c565b97506139e38361483d565b9250506001810190506139c4565b5085935050505092915050565b613a07816148a7565b82525050565b613a16816148b3565b82525050565b613a2d613a28826148b3565b614990565b82525050565b6000613a3f8385614868565b9350613a4c83858461494e565b613a558361499a565b840190509392505050565b6000613a6b8261481c565b613a758185614868565b9350613a8581856020860161495d565b613a8e8161499a565b840191505092915050565b613aa281614906565b82525050565b613ab181614918565b82525050565b6000613ac282614832565b613acc8185614879565b9350613adc81856020860161495d565b613ae58161499a565b840191505092915050565b6000613afb82614827565b613b058185614879565b9350613b1581856020860161495d565b613b1e8161499a565b840191505092915050565b6000613b36601f83614879565b91507f43414e4e4f545f5452414e534645525f544f5f414444524553535f5a45524f006000830152602082019050919050565b6000613b76601b83614879565b91507f536166654d6174683a206164646974696f6e206f766572666c6f7700000000006000830152602082019050919050565b6000613bb6601e83614879565b91507f4f574e4552535f414e445f4944535f4c454e4754485f4d49534d4154434800006000830152602082019050919050565b6000613bf6601d83614879565b91507f4e46545f4e4f545f4f574e45445f42595f46524f4d5f414444524553530000006000830152602082019050919050565b6000613c36601e83614879565b91507f4944535f414e445f56414c5545535f4c454e4754485f4d49534d4154434800006000830152602082019050919050565b6000613c76601183614879565b91507f5349474e41545552455f455850495245440000000000000000000000000000006000830152602082019050919050565b6000613cb6601683614879565b91507f494e53554646494349454e545f414c4c4f57414e4345000000000000000000006000830152602082019050919050565b6000613cf6602e83614879565b91507f496e697469616c697a61626c653a20636f6e747261637420697320616c72656160008301527f647920696e697469616c697a65640000000000000000000000000000000000006020830152604082019050919050565b6000613d5c601c83614879565b91507f414d4f554e545f455155414c5f544f5f4f4e455f5245515549524544000000006000830152602082019050919050565b6000613d9c602d83614879565b91507f54524945445f544f5f4d494e545f4e4f4e5f46554e4749424c455f464f525f4660008301527f554e4749424c455f544f4b454e000000000000000000000000000000000000006020830152604082019050919050565b6000613e0260808361488a565b91507f5377617028616464726573732073656e6465722c75696e743235365b5d20736560008301527f6e646572546f6b656e4964732c75696e743235365b5d2073656e646572546f6b60208301527f656e416d6f756e74732c75696e743235365b5d207369676e6572546f6b656e4960408301527f64732c75696e743235365b5d207369676e6572546f6b656e416d6f756e7473296060830152608082019050919050565b6000613eb460438361488a565b91507f454950373132446f6d61696e28737472696e67206e616d652c75696e7432353660008301527f20636861696e49642c6164647265737320766572696679696e67436f6e74726160208301527f63742900000000000000000000000000000000000000000000000000000000006040830152604382019050919050565b6000613f40600d83614879565b91507f494e56414c49445f4e4f4e4345000000000000000000000000000000000000006000830152602082019050919050565b6000613f80600e83614879565b91507f494e56414c49445f5349474e45520000000000000000000000000000000000006000830152602082019050919050565b6000613fc0602d83614879565b91507f54524945445f544f5f4d494e545f46554e4749424c455f464f525f4e4f4e5f4660008301527f554e4749424c455f544f4b454e000000000000000000000000000000000000006020830152604082019050919050565b6000614026600083614868565b9150600082019050919050565b6000614040601d83614879565b91507f43414e4e4f545f4255524e5f46524f4d5f414444524553535f5a45524f0000006000830152602082019050919050565b6000614080601c83614879565b91507f43414e4e4f545f4d494e545f464f525f414444524553535f5a45524f000000006000830152602082019050919050565b60006140c0601b83614879565b91507f53454e4445525f414c52454144595f4849535f4f50455241544f5200000000006000830152602082019050919050565b6000614100600b83614879565b91507f4e4f545f43524541544f520000000000000000000000000000000000000000006000830152602082019050919050565b6000614140601b83614879565b91507f4e4f545f4d554c5449504c455f4f465f4752414e554c415249545900000000006000830152602082019050919050565b600061418060088361488a565b91507f19010000000000000000000000000000000000000000000000000000000000006000830152600882019050919050565b6141bc816148dd565b82525050565b6141cb816148dd565b82525050565b6141da816148e7565b82525050565b60006141eb82613df5565b9150819050919050565b600061420082613ea7565b9150819050919050565b600061421582614173565b91506142218285613a1c565b6020820191506142318284613a1c565b6020820191508190509392505050565b60006020820190506142566000830184613933565b92915050565b60006080820190506142716000830185613924565b61427e6020830184613a99565b818103604083015261428f81614019565b905081810360608301526142a281614019565b90509392505050565b60006080820190506142c06000830189613924565b6142cd6020830188613aa8565b81810360408301526142e0818688613a33565b905081810360608301526142f5818486613a33565b9050979650505050505050565b60006080820190506143176000830189613924565b61432460208301886141c2565b8181036040830152614337818688613a33565b9050818103606083015261434c818486613a33565b9050979650505050505050565b600060808201905061436e6000830187613933565b61437b60208301866141c2565b818103604083015261438d8185613a60565b905081810360608301526143a18184613a60565b905095945050505050565b600060208201905081810360008301526143c68184613942565b905092915050565b60006020820190506143e360008301846139fe565b92915050565b60006020820190506143fe6000830184613a0d565b92915050565b600060c0820190506144196000830189613a0d565b6144266020830188613933565b818103604083015261443881876139a0565b9050818103606083015261444c81866139a0565b9050818103608083015261446081856139a0565b905081810360a083015261447481846139a0565b9050979650505050505050565b60006080820190506144966000830187613a0d565b6144a360208301866141d1565b6144b06040830185613a0d565b6144bd6060830184613a0d565b95945050505050565b600060208201905081810360008301526144e08184613af0565b905092915050565b600060208201905081810360008301526145028184613ab7565b905092915050565b6000602082019050818103600083015261452381613b29565b9050919050565b6000602082019050818103600083015261454381613b69565b9050919050565b6000602082019050818103600083015261456381613ba9565b9050919050565b6000602082019050818103600083015261458381613be9565b9050919050565b600060208201905081810360008301526145a381613c29565b9050919050565b600060208201905081810360008301526145c381613c69565b9050919050565b600060208201905081810360008301526145e381613ca9565b9050919050565b6000602082019050818103600083015261460381613ce9565b9050919050565b6000602082019050818103600083015261462381613d4f565b9050919050565b6000602082019050818103600083015261464381613d8f565b9050919050565b6000602082019050818103600083015261466381613f33565b9050919050565b6000602082019050818103600083015261468381613f73565b9050919050565b600060208201905081810360008301526146a381613fb3565b9050919050565b600060208201905081810360008301526146c381614033565b9050919050565b600060208201905081810360008301526146e381614073565b9050919050565b60006020820190508181036000830152614703816140b3565b9050919050565b60006020820190508181036000830152614723816140f3565b9050919050565b6000602082019050818103600083015261474381614133565b9050919050565b600060208201905061475f60008301846141c2565b92915050565b6000604051905081810181811067ffffffffffffffff8211171561478857600080fd5b8060405250919050565b600067ffffffffffffffff8211156147a957600080fd5b602082029050602081019050919050565b600067ffffffffffffffff8211156147d157600080fd5b601f19601f8301169050602081019050919050565b6000819050602082019050919050565b6000819050602082019050919050565b600081519050919050565b600081519050919050565b600081519050919050565b600081519050919050565b600081519050919050565b6000602082019050919050565b6000602082019050919050565b600082825260208201905092915050565b600082825260208201905092915050565b600082825260208201905092915050565b600081905092915050565b60006148a0826148bd565b9050919050565b60008115159050919050565b6000819050919050565b600073ffffffffffffffffffffffffffffffffffffffff82169050919050565b6000819050919050565b600060ff82169050919050565b60006148ff8261492a565b9050919050565b6000614911826148dd565b9050919050565b6000614923826148dd565b9050919050565b60006149358261493c565b9050919050565b6000614947826148bd565b9050919050565b82818337600083830152505050565b60005b8381101561497b578082015181840152602081019050614960565b8381111561498a576000848401525b50505050565b6000819050919050565b6000601f19601f8301169050919050565b6149b481614895565b81146149bf57600080fd5b50565b6149cb816148a7565b81146149d657600080fd5b50565b6149e2816148b3565b81146149ed57600080fd5b50565b6149f9816148dd565b8114614a0457600080fd5b50565b614a10816148e7565b8114614a1b57600080fd5b5056fea2646970667358221220dd3b6838d916c4e4cba9e8e7870f24793f6f1d6220b97125dc3e8497c26e27cc64736f6c63430006020033",
  "source": "// SPDX-License-Identifier: UNLICENSED\r\npragma solidity ^0.6.0;\r\npragma experimental ABIEncoderV2;\r\n\r\nimport \"@openzeppelin/contracts/math/SafeMath.sol\";\r\nimport \"@openzeppelin/contracts/utils/Address.sol\";\r\nimport \"@openzeppelin/contracts/proxy/Initializable.sol\";\r\nimport \"./MixinNonFungibleToken.sol\";\r\nimport \"./SwapVerifier.sol\";\r\n\r\ncontract VToken is SwapVerifier, MixinNonFungibleToken, Initializable {\r\n    using Address for address;\r\n    using SafeMath for uint256;\r\n\r\n    /// token nonce\r\n    uint256 internal nonce;\r\n\r\n    /// mapping from token to creator\r\n    mapping(uint256 => address) public creators;\r\n\r\n    /// mapping from token to max index\r\n    mapping(uint256 => uint256) public maxIndex;\r\n\r\n    /// granularity for fungible tokens.\r\n    uint256 internal granularity;\r\n\r\n    /// balance\r\n    mapping(uint256 => mapping(address => uint256)) internal balances;\r\n\r\n    /// operators\r\n    address[] internal defaultOperators;\r\n    mapping(address => bool) internal isDefaultOperators;\r\n    mapping(address => mapping(address => bool)) internal operators;\r\n    mapping(address => mapping(address => bool)) internal revokedDefaultOperators;\r\n\r\n    /// asserts token is owned by msg.sender\r\n    modifier creatorOnly(uint256 _id) {\r\n        require(creators[_id] == msg.sender, \"NOT_CREATOR\");\r\n        _;\r\n    }\r\n\r\n    /// INIT\r\n\r\n    function initialize(address[] calldata _defaultOperators, uint256 _granularity) external initializer {\r\n        granularity = _granularity;\r\n        defaultOperators = _defaultOperators;\r\n\r\n        for (uint256 i = 0; i < defaultOperators.length; i++) {\r\n            isDefaultOperators[defaultOperators[i]] = true;\r\n        }\r\n    }\r\n\r\n    /// EVENT\r\n\r\n    event Sent(\r\n        address operator,\r\n        address indexed from,\r\n        address indexed to,\r\n        uint256 indexed id,\r\n        uint256 amount,\r\n        bytes data,\r\n        bytes operatorData\r\n    );\r\n    event Minted(\r\n        address operator,\r\n        address indexed to,\r\n        uint256 indexed id,\r\n        uint256 amount,\r\n        bytes data,\r\n        bytes operatorData\r\n    );\r\n    event Burned(\r\n        address operator,\r\n        address indexed from,\r\n        uint256 indexed id,\r\n        uint256 amount,\r\n        bytes data,\r\n        bytes operatorData\r\n    );\r\n    event AuthorizedOperator(address indexed operator, address indexed holder);\r\n    event RevokedOperator(address indexed operator, address indexed holder);\r\n\r\n    /// OTHER\r\n\r\n    function _checkGranularity(uint256 _amount) internal view {\r\n        require(_amount % granularity == 0, \"NOT_MULTIPLE_OF_GRANULARITY\");\r\n    }\r\n\r\n    // function granularity() external view returns (uint256) {\r\n    //     return granularity;\r\n    // }\r\n\r\n    // function defaultOperators() external view returns (address[] memory) {\r\n    //     return defaultOperators;\r\n    // }\r\n\r\n    /// CREATE\r\n\r\n    /// @dev creates a new token\r\n    /// @param _isNF is non-fungible token\r\n    /// @return type_ of token (a unique identifier)\r\n    function create(bool _isNF) external returns (uint256 type_) {\r\n        // Store the type in the upper 128 bits\r\n        type_ = (++nonce << 128);\r\n\r\n        // Set a flag if this is an NFI.\r\n        if (_isNF) {\r\n            type_ = type_ | TYPE_NF_BIT;\r\n        }\r\n\r\n        // This will allow restricted access to creators.\r\n        creators[type_] = msg.sender;\r\n\r\n        // emit a Sent event with Create semantic to help with discovery.\r\n        emit Sent(msg.sender, address(0), address(0), type_, 0, \"\", \"\");\r\n    }\r\n\r\n    /// MINT\r\n\r\n    /// @dev mints fungible tokens\r\n    /// @param _id token type\r\n    /// @param _to beneficiaries of minted tokens\r\n    /// @param _amounts amounts of minted tokens\r\n    /// @param _data    Additional data with no specified format\r\n    /// @param _operatorData Additional data with no specified format\r\n    function mintFungible(\r\n        uint256 _id,\r\n        address[] calldata _to,\r\n        uint256[] calldata _amounts,\r\n        bytes calldata _data,\r\n        bytes calldata _operatorData\r\n    ) external creatorOnly(_id) {\r\n        require(isFungible(_id), \"TRIED_TO_MINT_FUNGIBLE_FOR_NON_FUNGIBLE_TOKEN\");\r\n        // HERE need to check contract caller\r\n\r\n        // mint tokens\r\n        for (uint256 i = 0; i < _to.length; ++i) {\r\n            // cache to reduce number of loads\r\n            address to = _to[i];\r\n            require(to != address(0), \"CANNOT_MINT_FOR_ADDRESS_ZERO\");\r\n            uint256 amount = _amounts[i];\r\n\r\n            // Grant the items to the caller\r\n            balances[_id][to] = amount.add(balances[_id][to]);\r\n\r\n            // Emit the Sent/Mint event.\r\n            // the 0x0 source address implies a mint\r\n            emit Minted(msg.sender, to, _id, amount, _data, _operatorData);\r\n        }\r\n    }\r\n\r\n    /// @dev mints a non-fungible token\r\n    /// @param _type token type\r\n    /// @param _to beneficiaries of minted tokens\r\n    /// @param _data    Additional data with no specified format\r\n    /// @param _operatorData Additional data with no specified format\r\n    function mintNonFungible(\r\n        uint256 _type,\r\n        address[] calldata _to,\r\n        bytes calldata _data,\r\n        bytes calldata _operatorData\r\n    ) external creatorOnly(_type) {\r\n        // No need to check this is a nf type rather than an id since\r\n        // creatorOnly() will only let a type pass through.\r\n        require(isNonFungible(_type), \"TRIED_TO_MINT_NON_FUNGIBLE_FOR_FUNGIBLE_TOKEN\");\r\n\r\n        // Index are 1-based.\r\n        uint256 index = maxIndex[_type] + 1;\r\n\r\n        for (uint256 i = 0; i < _to.length; ++i) {\r\n            // cache to reduce number of loads\r\n            address to = _to[i];\r\n            require(to != address(0), \"CANNOT_MINT_FOR_ADDRESS_ZERO\");\r\n            uint256 id = _type | (index + i);\r\n\r\n            nfOwners[id] = to;\r\n\r\n            // NFT base type balance\r\n            balances[_type][to] = 1;\r\n\r\n            emit Minted(msg.sender, to, id, 1, _data, _operatorData);\r\n        }\r\n\r\n        // record the `maxIndex` of this nft type\r\n        // this allows us to mint more nft's of this type in a subsequent call.\r\n        maxIndex[_type] = _to.length.add(maxIndex[_type]);\r\n    }\r\n\r\n    /// SEND\r\n\r\n    /// @notice Send multiple types of Tokens in one transfer from msg.sender.\r\n    /// @param _to      Target addresses\r\n    /// @param _ids     IDs of each token type\r\n    /// @param _amounts  Transfer amounts per token type\r\n    /// @param _data    Additional data with no specified format\r\n    function send(\r\n        address _to,\r\n        uint256[] calldata _ids,\r\n        uint256[] calldata _amounts,\r\n        bytes calldata _data\r\n    ) external {\r\n        _send(msg.sender, msg.sender, _to, _ids, _amounts, _data, \"\");\r\n    }\r\n\r\n    /// @notice Send multiple types of Tokens in one transfer from the _from address.\r\n    /// @param _from    Source addresses\r\n    /// @param _to      Target addresses\r\n    /// @param _ids     IDs of each token type\r\n    /// @param _amounts  Transfer amounts per token type\r\n    /// @param _data    Additional data with no specified format\r\n    /// @param _operatorData Additional data with no specified format\r\n    function operatorSend(\r\n        address _from,\r\n        address _to,\r\n        uint256[] calldata _ids,\r\n        uint256[] calldata _amounts,\r\n        bytes calldata _data,\r\n        bytes calldata _operatorData\r\n    ) external {\r\n        require(_isOperatorFor(msg.sender, _from), \"INSUFFICIENT_ALLOWANCE\");\r\n        _send(msg.sender, _from, _to, _ids, _amounts, _data, _operatorData);\r\n    }\r\n\r\n    /// @notice Actually make the transfers.\r\n    /// @param _operator msg.sender\r\n    /// @param _from    Source addresses\r\n    /// @param _to      Target addresses\r\n    /// @param _ids     IDs of each token type\r\n    /// @param _amounts  Transfer amounts per token type\r\n    /// @param _data    Additional data with no specified format\r\n    /// @param _operatorData Additional data with no specified format\r\n    function _send(\r\n        address _operator,\r\n        address _from,\r\n        address _to,\r\n        uint256[] memory _ids,\r\n        uint256[] memory _amounts,\r\n        bytes memory _data,\r\n        bytes memory _operatorData\r\n    ) internal {\r\n        // sanity checks\r\n        require(_to != address(0x0), \"CANNOT_TRANSFER_TO_ADDRESS_ZERO\");\r\n        require(_ids.length == _amounts.length, \"IDS_AND_VALUES_LENGTH_MISMATCH\");\r\n\r\n        // perform transfers\r\n        for (uint256 i = 0; i < _ids.length; ++i) {\r\n            // Cache amount to local variable to reduce read costs.\r\n            uint256 id = _ids[i];\r\n            uint256 amount = _amounts[i];\r\n\r\n            if (isNonFungible(id)) {\r\n                require(amount == 1, \"AMOUNT_EQUAL_TO_ONE_REQUIRED\");\r\n                require(nfOwners[id] == _from, \"NFT_NOT_OWNED_BY_FROM_ADDRESS\");\r\n                nfOwners[id] = _to;\r\n                // Keep the balance of NF type in base type id\r\n                uint256 baseType = getNonFungibleBaseType(id);\r\n                balances[baseType][_from] = balances[baseType][_from].sub(amount);\r\n                balances[baseType][_to] = balances[baseType][_to].add(amount);\r\n            } else {\r\n                _checkGranularity(amount);\r\n                balances[id][_from] = balances[id][_from].sub(amount);\r\n                balances[id][_to] = balances[id][_to].add(amount);\r\n            }\r\n            emit Sent(_operator, _from, _to, id, amount, _data, _operatorData);\r\n        }\r\n    }\r\n\r\n    /// SWAP\r\n\r\n    /// @notice Swap tokens\r\n    /// @param _swap Swap data\r\n    /// @param _nonce Contract state required to match the signature\r\n    /// @param _expiry Time at which to expire the signature\r\n    /// @param _v Recovery byte of the signature\r\n    /// @param _r Half of the ECDSA signature pair\r\n    /// @param _s Half of the ECDSA signature pair\r\n    /// @param _data    Additional data with no specified format\r\n    function swap(\r\n        SwapLib.Swap memory _swap,\r\n        uint256 _nonce,\r\n        uint256 _expiry,\r\n        uint8 _v,\r\n        bytes32 _r,\r\n        bytes32 _s,\r\n        bytes memory _data\r\n    ) public {\r\n        address signer = SwapVerify(_swap, _nonce, _expiry, _v, _r, _s);\r\n        _send(msg.sender, msg.sender, signer, _swap.senderTokenIds, _swap.senderTokenAmounts, _data, \"\");\r\n        _send(signer, signer, msg.sender, _swap.signerTokenIds, _swap.signerTokenAmounts, _data, \"\");\r\n    }\r\n\r\n    /// BURN\r\n\r\n    /// @notice Burn _value amount of an _id from msg.sender.\r\n    /// @param _ids      IDs of the token type\r\n    /// @param _amounts  Burn amounts\r\n    /// @param _data     Additional data with no specified format\r\n    function burn(\r\n        uint256[] calldata _ids,\r\n        uint256[] calldata _amounts,\r\n        bytes calldata _data\r\n    ) external {\r\n        _burn(msg.sender, msg.sender, _ids, _amounts, _data, \"\");\r\n    }\r\n\r\n    /// @notice Burn _value amount of an _id from _from.\r\n    /// @param _from    Source address\r\n    /// @param _ids      ID of the token type\r\n    /// @param _amounts   Burn amount\r\n    /// @param _data    Additional data with no specified format\r\n    /// @param _operatorData Additional data with no specified format\r\n    function operatorBurn(\r\n        address _from,\r\n        uint256[] calldata _ids,\r\n        uint256[] calldata _amounts,\r\n        bytes calldata _data,\r\n        bytes calldata _operatorData\r\n    ) external {\r\n        require(_isOperatorFor(msg.sender, _from), \"INSUFFICIENT_ALLOWANCE\");\r\n        _burn(msg.sender, _from, _ids, _amounts, _data, _operatorData);\r\n    }\r\n\r\n    /// @notice Actually make the burnning.\r\n    /// @param _operator msg.sender\r\n    /// @param _from    Source address\r\n    /// @param _ids     IDs of the token type\r\n    /// @param _amounts Burn amounts\r\n    /// @param _data    Additional data with no specified format\r\n    /// @param _operatorData Additional data with no specified format\r\n    function _burn(\r\n        address _operator,\r\n        address _from,\r\n        uint256[] memory _ids,\r\n        uint256[] memory _amounts,\r\n        bytes memory _data,\r\n        bytes memory _operatorData\r\n    ) internal {\r\n        require(_from != address(0), \"CANNOT_BURN_FROM_ADDRESS_ZERO\");\r\n\r\n        // perform transfers\r\n        for (uint256 i = 0; i < _ids.length; ++i) {\r\n            // Cache amount to local variable to reduce read costs.\r\n            uint256 id = _ids[i];\r\n            uint256 amount = _amounts[i];\r\n\r\n            if (isNonFungible(id)) {\r\n                require(amount == 1, \"AMOUNT_EQUAL_TO_ONE_REQUIRED\");\r\n                require(nfOwners[id] == _from, \"NFT_NOT_OWNED_BY_FROM_ADDRESS\");\r\n                nfOwners[id] == address(0);\r\n                uint256 baseType = getNonFungibleBaseType(id);\r\n                balances[baseType][_from] = balances[baseType][_from].sub(amount);\r\n            } else {\r\n                _checkGranularity(amount);\r\n                balances[id][_from] = balances[id][_from].sub(amount);\r\n            }\r\n            emit Burned(_operator, _from, id, amount, _data, _operatorData);\r\n        }\r\n    }\r\n\r\n    /// OPERATOR\r\n\r\n    /// @notice Set a third party operator address as an operator of msg.sender to send\r\n    /// and burn tokens on its behalf.\r\n    /// @param _operator  Address to add to the set of authorized operators\r\n    function authorizeOperator(address _operator) external {\r\n        require(msg.sender != _operator, \"SENDER_ALREADY_HIS_OPERATOR\");\r\n\r\n        if (isDefaultOperators[_operator]) {\r\n            revokedDefaultOperators[msg.sender][_operator] = false;\r\n        } else {\r\n            operators[msg.sender][_operator] = true;\r\n        }\r\n        emit AuthorizedOperator(_operator, msg.sender);\r\n    }\r\n\r\n    /// @notice Remove the right of the operator address to be an operator for msg.sender\r\n    /// and to send and burn tokens on its behalf.\r\n    /// @param _operator  Address to add to the set of authorized operators\r\n    function revokeOperator(address _operator) external {\r\n        require(msg.sender != _operator, \"SENDER_ALREADY_HIS_OPERATOR\");\r\n        if (isDefaultOperators[_operator]) {\r\n            revokedDefaultOperators[msg.sender][_operator] = true;\r\n        } else {\r\n            operators[msg.sender][_operator] = false;\r\n        }\r\n        emit RevokedOperator(_operator, msg.sender);\r\n    }\r\n\r\n    /// @notice Queries whether the operator address is an operator of the holder address.\r\n    /// @param _operator  Address of authorized operator\r\n    /// @param _holder    The owner of the Tokens\r\n    /// @return          True if the operator is approved, false if not\r\n    function isOperatorFor(address _operator, address _holder) external view returns (bool) {\r\n        return _isOperatorFor(_operator, _holder);\r\n    }\r\n\r\n    function _isOperatorFor(address _operator, address _holder) internal view returns (bool) {\r\n        return\r\n            _holder == _operator ||\r\n            (isDefaultOperators[_operator] && !revokedDefaultOperators[_holder][_operator]) ||\r\n            operators[_holder][_operator];\r\n    }\r\n\r\n    /// BALANCE\r\n\r\n    /// @notice Get the balance of an account's Tokens.\r\n    /// @param _owner  The address of the token holder\r\n    /// @param _id     ID of the Token\r\n    /// @return        The _owner's balance of the Token type requested\r\n    function balanceOf(address _owner, uint256 _id) external view returns (uint256) {\r\n        if (isNonFungibleItem(_id)) {\r\n            return nfOwners[_id] == _owner ? 1 : 0;\r\n        }\r\n        return balances[_id][_owner];\r\n    }\r\n\r\n    /// @notice Get the balance of multiple account/token pairs\r\n    /// @param _owners The addresses of the token holders\r\n    /// @param _ids    ID of the Tokens\r\n    /// @return balances_   The _owner's balance of the Token types requested\r\n    function balanceOfBatch(address[] calldata _owners, uint256[] calldata _ids)\r\n        external\r\n        view\r\n        returns (uint256[] memory balances_)\r\n    {\r\n        // sanity check\r\n        require(_owners.length == _ids.length, \"OWNERS_AND_IDS_LENGTH_MISMATCH\");\r\n\r\n        // get balances\r\n        balances_ = new uint256[](_owners.length);\r\n        for (uint256 i = 0; i < _owners.length; ++i) {\r\n            uint256 id = _ids[i];\r\n            if (isNonFungibleItem(id)) {\r\n                balances_[i] = nfOwners[id] == _owners[i] ? 1 : 0;\r\n            } else {\r\n                balances_[i] = balances[id][_owners[i]];\r\n            }\r\n        }\r\n        return balances_;\r\n    }\r\n}\r\n",
  "sourcePath": "C:/Users/Vahatra/Source/github-monorepo/contracts/token/contracts/VToken.sol",
  "compiler": {
    "name": "solc",
    "version": "0.6.2+commit.bacdbe57.Emscripten.clang"
  },
  "schemaVersion": "3.3.1",
  "updatedAt": "2020-10-29T17:03:31.767Z",
  "devdoc": {
    "methods": {
      "authorizeOperator(address)": {
        "params": {
          "_operator": "Address to add to the set of authorized operators"
        }
      },
      "balanceOf(address,uint256)": {
        "params": {
          "_id": "ID of the Token",
          "_owner": "The address of the token holder"
        },
        "returns": {
          "_0": "The _owner's balance of the Token type requested"
        }
      },
      "balanceOfBatch(address[],uint256[])": {
        "params": {
          "_ids": "ID of the Tokens",
          "_owners": "The addresses of the token holders"
        },
        "returns": {
          "balances_": "  The _owner's balance of the Token types requested"
        }
      },
      "burn(uint256[],uint256[],bytes)": {
        "params": {
          "_amounts": "Burn amounts",
          "_data": "Additional data with no specified format",
          "_ids": "IDs of the token type"
        }
      },
      "create(bool)": {
        "details": "creates a new token",
        "params": {
          "_isNF": "is non-fungible token"
        },
        "returns": {
          "type_": "of token (a unique identifier)"
        }
      },
      "getNonFungibleBaseType(uint256)": {
        "details": "Returns base type of non-fungible token"
      },
      "getNonFungibleIndex(uint256)": {
        "details": "Returns index of non-fungible token"
      },
      "isFungible(uint256)": {
        "details": "Returns true if token is fungible"
      },
      "isNonFungible(uint256)": {
        "details": "Returns true if token is non-fungible"
      },
      "isNonFungibleBaseType(uint256)": {
        "details": "Returns true if input is base-type of a non-fungible token"
      },
      "isNonFungibleItem(uint256)": {
        "details": "Returns true if input is a non-fungible token"
      },
      "isOperatorFor(address,address)": {
        "params": {
          "_holder": "The owner of the Tokens",
          "_operator": "Address of authorized operator"
        },
        "returns": {
          "_0": "True if the operator is approved, false if not"
        }
      },
      "mintFungible(uint256,address[],uint256[],bytes,bytes)": {
        "details": "mints fungible tokens",
        "params": {
          "_amounts": "amounts of minted tokens",
          "_data": "Additional data with no specified format",
          "_id": "token type",
          "_operatorData": "Additional data with no specified format",
          "_to": "beneficiaries of minted tokens"
        }
      },
      "mintNonFungible(uint256,address[],bytes,bytes)": {
        "details": "mints a non-fungible token",
        "params": {
          "_data": "Additional data with no specified format",
          "_operatorData": "Additional data with no specified format",
          "_to": "beneficiaries of minted tokens",
          "_type": "token type"
        }
      },
      "operatorBurn(address,uint256[],uint256[],bytes,bytes)": {
        "params": {
          "_amounts": "Burn amount",
          "_data": "Additional data with no specified format",
          "_from": "Source address",
          "_ids": "ID of the token type",
          "_operatorData": "Additional data with no specified format"
        }
      },
      "operatorSend(address,address,uint256[],uint256[],bytes,bytes)": {
        "params": {
          "_amounts": "Transfer amounts per token type",
          "_data": "Additional data with no specified format",
          "_from": "Source addresses",
          "_ids": "IDs of each token type",
          "_operatorData": "Additional data with no specified format",
          "_to": "Target addresses"
        }
      },
      "ownerOf(uint256)": {
        "details": "returns owner of a non-fungible token"
      },
      "revokeOperator(address)": {
        "params": {
          "_operator": "Address to add to the set of authorized operators"
        }
      },
      "send(address,uint256[],uint256[],bytes)": {
        "params": {
          "_amounts": "Transfer amounts per token type",
          "_data": "Additional data with no specified format",
          "_ids": "IDs of each token type",
          "_to": "Target addresses"
        }
      },
      "swap((address,uint256[],uint256[],uint256[],uint256[]),uint256,uint256,uint8,bytes32,bytes32,bytes)": {
        "params": {
          "_data": "Additional data with no specified format",
          "_expiry": "Time at which to expire the signature",
          "_nonce": "Contract state required to match the signature",
          "_r": "Half of the ECDSA signature pair",
          "_s": "Half of the ECDSA signature pair",
          "_swap": "Swap data",
          "_v": "Recovery byte of the signature"
        }
      }
    }
  },
  "userdoc": {
    "methods": {
      "authorizeOperator(address)": {
        "notice": "OPERATORSet a third party operator address as an operator of msg.sender to send and burn tokens on its behalf."
      },
      "balanceOf(address,uint256)": {
        "notice": "BALANCEGet the balance of an account's Tokens."
      },
      "balanceOfBatch(address[],uint256[])": {
        "notice": "Get the balance of multiple account/token pairs"
      },
      "burn(uint256[],uint256[],bytes)": {
        "notice": "BURNBurn _value amount of an _id from msg.sender."
      },
      "create(bool)": {
        "notice": "CREATE"
      },
      "initialize(address[],uint256)": {
        "notice": "INIT"
      },
      "isOperatorFor(address,address)": {
        "notice": "Queries whether the operator address is an operator of the holder address."
      },
      "mintFungible(uint256,address[],uint256[],bytes,bytes)": {
        "notice": "MINT"
      },
      "operatorBurn(address,uint256[],uint256[],bytes,bytes)": {
        "notice": "Burn _value amount of an _id from _from."
      },
      "operatorSend(address,address,uint256[],uint256[],bytes,bytes)": {
        "notice": "Send multiple types of Tokens in one transfer from the _from address."
      },
      "revokeOperator(address)": {
        "notice": "Remove the right of the operator address to be an operator for msg.sender and to send and burn tokens on its behalf."
      },
      "send(address,uint256[],uint256[],bytes)": {
        "notice": "SENDSend multiple types of Tokens in one transfer from msg.sender."
      },
      "swap((address,uint256[],uint256[],uint256[],uint256[]),uint256,uint256,uint8,bytes32,bytes32,bytes)": {
        "notice": "SWAPSwap tokens"
      }
    }
  }
}